:020000040000FA
:10000000B0070020C1000000AD0600009D06000002
:10001000FFFFFFFFFFFFFFFFFFFFFFFFFFFFFFFFF0
:10002000FFFFFFFFFFFFFFFFFFFFFFFF4D07000088
:10003000FFFFFFFFFFFFFFFFDD0600004F0700008F
:1000400035010000350100003501000035010000D8
:1000500035010000350100003501000035010000C8
:1000600035010000FFFFFFFF3501000035010000F2
:10007000350100003501000035010000FFFFFFFFE2
:10008000FFFFFFFF210200003501000035010000E5
:10009000350100003501000035010000390800007D
:1000A000D1080000350100003501000035010000D5
:1000B0003501000035010000350100003501000068
:1000C0001D4880471D4880471D4800471D4801695D
:1000D000002908D14169002905D18169002902D18F
:1000E000C169002909D01848C1680901090D002912
:1000F0000ED005290CD006290AD0BFF34F8F134824
:100100001349016013491248C860BFF34F8FFEE7DF
:100110000E4801680E48884200D070470E480F49CB
:1001200001600A480E4901607047FEE7FEE7FEE7FE
:10013000FEE7FEE7FEE70000CD00000051070000EB
:100140006501000000030840800108400000002015
:100150000400FA0500ED00E0008108400100000005
:10016000000000000348854600F01CF800480047E6
:10017000C9120000B007002030B50B460146002030
:100180002022012409E00D46D5409D4205D31D469D
:100190009540491B2546954040191546521E002D95
:1001A000F1DC30BD064C0125064E05E0E36807CCC6
:1001B0002B430C3C98471034B442F7D3FFF7D6FFDB
:1001C000981B0000B81B0000F0B596460A4613497C
:1001D000C000461800230025FF2098402C461042FE
:1001E00016D00020012199408C461146C140674637
:1001F000394206D087000F21B9400D437146B940FE
:100200000C43401C0828F0D33068A84320433060DA
:100210000833361D082BDEDDF0BD00002020024033
:1002200010B504480168491C0160034800F006F855
:1002300010BD00004C0000200060074041684908E4
:1002400049004160BFF34F8F7047042200290168C5
:1002500001D0114300E0914301607047002901681B
:1002600002D00122114301E04908490001607047B2
:10027000C16070478160704770B5184D0446686B67
:100280004607760F00F02EF815492060330000F085
:10029000D7FC081405070714140E1114606000E061
:1002A0006160296A6068052909D3400908E00120D6
:1002B000C003F3E77D200002F0E70020EEE7C8402E
:1002C000A060A96A4903490F072902D0C840E0602D
:1002D00070BD0321FFF750FFF9E7000000800840E0
:1002E00000127A000C490868C869C20F4868400AC1
:1002F000C007C00F0ED00948002A0BD18869C00D75
:100300000007000F00D110208969044A4902890FB3
:100310005043C840704700000080084000127A0037
:100320001FB541090A4A89008A1800212E2800D1E8
:100330000221C006C00E1268032383401A40C24047
:1003400054186846FFF798FF029804B0E04010BDCB
:1003500038800840F0B5084F7C6AFD6A3E6B8443E4
:100360008D439643002B02D004430D4316437C6219
:10037000FD623E63F0BD000000800840F8B50A2031
:1003800001F0CEFB8BA001F0D5FB282001F0ECFBA7
:100390000A2001F0C5FB8D48027A01231021282094
:1003A00001F0FAF801228A49002001F0A5F80420A2
:1003B00001F0AEF9022001F0D5F8032001F076F942
:1003C000844E0020F0607061B0613020B071012077
:1003D00070717E4D00202C3504E0B1790918295444
:1003E000401CC0B271798842F7D3B079401CB0711B
:1003F0007279764900202C3101F004FA00F030FEC9
:1004000000F0E8FD01F0C3F804468006800F01D13A
:100410006006F7D5E00644D51021072001F0E4F985
:10042000012001F09FF801F037F8202070710020C2
:1004300004E0B17909182954401CC0B2717988428E
:10044000F7D3B079401CB0717279604900202C312B
:1004500001F0D8F972795D4900202C3101F0D2F910
:100460000A2001F05DFB002000F096FE5AA001F08A
:1004700061FB307801F078FB5AA001F05BFB0420AF
:1004800001F024F901F070FB5BA001F053FB0820A0
:1004900001F01CF901F068FB7D20F168C000814289
:1004A00024D2A0067DD501240A20F46001F038FB97
:1004B000012000F071FE48A001F03CFB307801F013
:1004C00053FB51A001F036FB042001F0FFF801F0CE
:1004D0004BFB49A001F02EFB082001F0F7F801F0DA
:1004E00043FB7D20F168C00081420CD3002001F065
:1004F0004BFA042001F00CF9022001F033F83349E3
:1005000000200870F8BD7079401CC0B270712028BE
:1005100000D9747101F074F80090684600780328DF
:1005200007D02021072001F05FF900F0B5FF00207F
:100530002CE06021072001F057F9684687782348AE
:1005400039460C3001F0CAF8204938460C3100F029
:1005500095FD32A001F0EEFA384601F005FB32A01D
:1005600001F0E8FA002409E033A001F0E3FA1748AB
:100570000C30005D01F0F8FA641CE4B2A742F3D835
:10058000D3E7B17909182954401CC0B27179884267
:10059000F7D3B079401CB07172790C492C3100202E
:1005A00000E001E001F02EF9FF20F53000F0E6FD5B
:1005B00024E700006E726632344C30312B2020501C
:1005C000545820202043483D0000000080000020B7
:1005D0007A1B000004000020207A7A7A5F7069702C
:1005E000653D0000204D415852542020534554553C
:1005F000505F524554523D0020204F4253455256C1
:10060000455F54583D0000002054585F445320205B
:1006100053455455505F524554523D00207061631C
:100620006B65745F737A3D0020526563656976651A
:10063000446174613D00000020000000002A02684F
:1006400001D00A4300E08A4302607047002A4268F2
:1006500001D00A4300E08A4342607047002A08D074
:10066000012A09D082688A438260C2688A43C260D4
:10067000704782680A43F7E7C2680A43C26082682B
:100680008A4382607047C069084000D001207047EB
:10069000002A01D0416270478162704702480168B8
:1006A0000029FCD0704700000000002070470000C7
:1006B000084A074801211160074902E08A68272A91
:1006C00003D0401EFAD1012070470020704700007F
:1006D00000366E010083084000A1064070470029E3
:1006E000016802D00122114301E04908490001607C
:1006F000704730B54C698B69002C1AD00122520228
:10070000DA4022438C680B680D692343CC682C4384
:100710002343CC692343134343604B6A4A681A431B
:100720000B6A1B011A438261896A4908491EC1602C
:1007300030BDFF2201329A40E4E708220029016817
:1007400001D0114300E0914301607047704770474A
:10075000F0B534491020C86033490120086033489F
:10076000016B40242143016331498A68272AFCD167
:10077000416A032292029143416241680122D202FE
:10078000114341608168C908C907FBD04168C908A5
:10079000C900C91C4160416B4907490F0329FAD1BF
:1007A000244B1968C908C900491C19600025056255
:1007B00041685E15B143416001689F15394301608E
:1007C00041681A151143416081688908C907FBD047
:1007D000016BA14301630168B9430160032109066C
:1007E000816141683143416081684908C907FBD094
:1007F0001968C908C900891C196005624168C908DF
:10080000C900491C4160416B4907490F0129FAD1D0
:100810001868102108431860186809020843186016
:10082000F0BD0000008108400083084000800840BF
:1008300000A1064000020840F8B58021CE053046F0
:1008400000F096F800281DD01B4F38681B4D296812
:10085000884205D100220221304600F0D1F811E093
:10086000002417482968415C304600F0D4F8286815
:10087000401CC0B2286038682968884202D0641CD5
:10088000082CEED32021304600F072F8002811D059
:100890000C4C2168491CC8B20B490968884209D030
:1008A000304600F0B5F80949226888542068401C99
:1008B000C0B22060F8BD00005800002054000020A5
:1008C000AC0100207800002074000020AC0400205F
:1008D000F8B51E4E8021304600F04AF800281CD0A2
:1008E0001B4F38681B4D2968884205D10022022120
:1008F000304600F085F810E0002417482968415C74
:10090000304600F088F82878401CC0B2286039686A
:10091000814202D0641C082CEFD32021304600F025
:1009200027F8002811D00D4C2168491CC8B20C4989
:100930000968884209D0304600F06AF809492268FF
:1009400088542068401CC0B22060F8BD00000440FC
:10095000600000205C000020AC0200206800002045
:1009600064000020AC03002082680A438260704764
:100970000069084000D001207047000070B50446AF
:100980000D46C8888988626808432989184B1A402F
:10099000114308436989084360600120800784424D
:1009A00006D11820FFF7BCFC2968FFF7E5FB606261
:1009B0001048844206D11A20FFF7B2FC2968FFF7DD
:1009C000DBFB60620C48844206D11C20FFF7A8FCC8
:1009D0002968FFF7D1FB60620848844206D11E20D7
:1009E000FFF79EFC2968FFF7C7FB606270BD00003F
:1009F000FCE0FFFF00000440001000400010044035
:100A0000002AC26801D00A4300E08A43C2607047EE
:100A1000006880B270470160704710238B404168C6
:100A2000002A01D0194300E099434160704700005B
:100A300008B50A2001F074F85FA001F07BF82820C7
:100A400001F092F80A2001F06BF86148027A012364
:100A50001021282000F0A0FD01225E49002000F0B6
:100A60004BFD5C490222491D012000F045FD59491A
:100A70000B220A31022000F03FFD564916220F31A9
:100A8000032000F039FD53491F221431042000F0E7
:100A900033FD504920221931052000F02DFD04209E
:100AA00000F036FE022000F05DFD022000F0FEFDA9
:100AB00000F0EAFD484D00262E6100F08BFA00F0B0
:100AC00061FD800624D4E879401CC0B2E87120287A
:100AD00001D90120E8713E4A00202C3204E0297A35
:100AE00009181154401CC0B2E9798842F7D3287A1A
:100AF0002B46401C2872687A401CC0B268720528D8
:100B000000D95E72DA793249687A2C3100F015FE2C
:100B100004213248FFF7B7FD0028CED100F037FDA1
:100B20008006800F03D03021072000F05DFE00F02A
:100B300067FD009068460078032838D140210720DF
:100B400000F052FE68468478214821460C3000F0BF
:100B5000C5FD1F4920460C3100F0C2FA20A000F06C
:100B6000E9FF2A69521C90B22A6100F0EDFF20A033
:100B700000F0E0FF6846407800F0F6FF1EA000F0AD
:100B8000D9FF204600F0F0FF1EA000F0D3FF104F69
:100B900000240C371FA000F0CDFF385D00F0E4FF0B
:100BA000641C2406240EF5D00A2000F0B9FF00F0E2
:100BB000E9FCC007BBD080E76E726632344C30313E
:100BC0002B202050525820202043483D0000000098
:100BD000800000207A1B00000400002000000B4071
:100BE000636F756E745F737563636573733D000047
:100BF00020706970653D0000207061636B65745FF3
:100C0000737A3D002052656365697665446174615D
:100C10003D000000200000000FB410B504A9074BF0
:100C200002AA039800F028F8044602A9002000F068
:100C3000CBF9204610BC08BC04B01847C90F00000F
:100C400030B47446641E2578641CAB4200D21D4645
:100C5000635D5B00E31830BC184702E008C8121F50
:100C600008C1002AFAD170477047002001E001C195
:100C7000121F002AFBD17047FFB58FB00546002632
:100C800006E025280AD0129A119990476D1C761C0F
:100C900028780028F5D1304613B0F0BD0024029426
:100CA0000121B54A009400E004436D1C2B780846EE
:100CB000203B98401042F7D128782A280ED00222F3
:100CC000287801463039092916D802990A23594350
:100CD0003039401814436D1C0290F1E7109802C897
:100CE00002911090002904DA012040030443484295
:100CF0000290022004436D1C28782E2817D104206E
:100D0000044368786D1C2A280CD110986D1C02C809
:100D1000009110900BE000990A225143303940189D
:100D20006D1C00902878014630390929F3D92878BC
:100D30006C2810D006DC4C281AD068280ED06A28FF
:100D400017D104E0742813D07A2812D110E00120C2
:100D5000400504430CE00121090501E003210905D8
:100D60000C436978814203D10120000524186D1CD1
:100D70006D1C2878692874D006DC00288BD0632885
:100D800027D0642806D16CE06E2808D073282CD0B8
:100D9000752878D0129A11999047761C5FE060020E
:100DA000400F022809D003280DD0042810980168AC
:100DB0000DD00E60001D109051E01098F2170168E0
:100DC0000E604A60F6E7109801680E80F2E70E7038
:100DD000F0E710986A4601781173001D109000200A
:100DE000507303A80190012005E0109802C80191FA
:100DF00010900020C04361070CD5002700E07F1C45
:100E000000998F420FDA8742F9DB0199C95D002909
:100E1000F5D108E0002700E07F1C8742FCDB019948
:100E2000C95D0029F8D102982146C01B0290129B8F
:100E3000119A00F0B3F88019C61907E001980199DA
:100E40000078491C0191129A119990477F1EF5D2A2
:100E50002146129B119A029800F090F886196D1C99
:100E600016E70A200190109901C910916102490FFB
:100E7000032900D100B2042900D140B2002803DACE
:100E800040422D2103E00DE0210504D52B216A46C7
:100E90001173012103E0E10711D02021F7E70CAF26
:100EA0000C9114E00A200190109901C9109161027F
:100EB000490F032900D180B2042900D1C0B200211A
:100EC000EDE70199FFF758F930317F1E397000289E
:100ED000F7D104A8C01B20300190600704D5012081
:100EE00000048443009801E00120009001998842A9
:100EF00001DD401A00E00020411800900C9809180C
:100F00000298401A0290E00306D42146129B119ADF
:100F1000029800F043F8861900200D9008E003A91C
:100F2000085C129A119990470D98401C761C0D9000
:100F30000C998842F3DBE0030CD52146129B119AF1
:100F4000029800F02BF8861904E0129A30201199CB
:100F50009047761C0099481E00900029F5DC05E0BA
:100F60003878129A7F1C11999047761C0199481E77
:100F700001900029F4DC6BE709280100F8B504466C
:100F800000251E461746880404D405E03946202073
:100F9000B0476D1C641EF9D52846F8BDFFB5044660
:100FA000002581B01E46C80301D5302700E0202768
:100FB000880404D505E038460399B0476D1C641ECB
:100FC000F9D5284605B0F0BD0A68531C0B601070B7
:100FD00070470000F0B5174F87B002263E7000F052
:100FE0001DFD154D0346012802D0022B0BD01DE03C
:100FF0002969E868019100900B2210A102A8FFF76F
:101000000BFE02A80DE00024042211A101A8009407
:10101000FFF702FEEC606C61AC6110482C61067059
:1010200001A800F087FD0A2000F07AFD0120387049
:1010300007B0F0BD500000200400002025303264CD
:1010400025303164253034642530346400000000DC
:101050002530326425303164256400008000002092
:1010600010B5012000F090FCE1200146401EC0B206
:101070000029FAD1002000F087FC10BDF8B5044625
:10108000154E0D4601200022317907E0AB5C8F1828
:10109000FFB2BB4200D00020521CD2B2A242F5D314
:1010A000F178A14201D101280BD00C4800F042FD9B
:1010B0000A2000F035FD0A2000F032FD0A2000F081
:1010C0002FFD641CE0B2F070202801D90120F070DF
:1010D0002878401C3071F8BD040000203C1100004D
:1010E000F8B50446144E0D4601200022B17807E001
:1010F000AB5C8F18FFB2BB4200D00020521CD2B2B2
:10110000A242F5D301280BD00CA000F013FD0A2059
:1011100000F006FD0A2000F003FD0A2000F000FDAB
:10112000641CE0B27070202801D90120707028780A
:10113000401CB070F8BD0000040000204552524F22
:10114000522021212121212121212121212121215F
:10115000212121212121212121212121212121217F
:10116000212121212121212121212121212121216F
:1011700021212121212121212121200008B50346FF
:101180000448006800901946009800F03BFC0028D5
:10119000F9D008BD4C00002010B5134CE168491C83
:1011A000E160002803D06069401C606102E0A06932
:1011B000401CA0610DA000F0BDFCA08980B200F031
:1011C000C3FC0DA000F0B6FCA08A80B200F0BCFC0D
:1011D0000BA000F0AFFC208B80B200F0B5FC0AA0A1
:1011E00000F0A8FC10BD000004000020636F756EC5
:1011F000745F73656E643D0020747864733D000015
:10120000206D617872743D0020000000144C0120B4
:10121000207200F029F8012204210020FEF7D4FFFB
:10122000104D002204212846FFF708FA002204216D
:101230002846FFF713FA012204212846FFF706FA91
:10124000022020702078022801D1FFF797F820783B
:10125000032802D0FFF7BEFEF4E7FFF7E9FB00002A
:101260008000002000000B4010B5104C002202212D
:101270002046FFF70DFA002202211046FEF7A4FFD8
:10128000012202212046FFF7D9F901220821204638
:10129000FFF7FEF9002208211046FEF795FF012214
:1012A00008212046FFF7CAF910BD000000000B40DE
:1012B000000710B5000F0A2801D2303000E03730A7
:1012C00000F0E8FB10BD000001277F0403208EB072
:1012D00000240004FE106649664A0123FFF73AF82D
:1012E000FFF7E6F9002800D0FEE76448624900688D
:1012F000FEF742FF624D01462846FEF7B9FF002186
:101300002846FEF7B7FF01212846FEF7A7FF012177
:101310002846FEF79AFF5B4D2F60002204215A48B1
:10132000FFF79CF9052204210120FEF74DFF05225D
:1013300008210120FEF748FF052210210120FEF7B9
:1013400043FF052220210120FEF73EFF08200594DF
:101350000794009602900A204C4E01940394049442
:101360000A9006940894099469463046FFF7C1F93B
:1013700001213046FFF7E1F901213046FFF7AFF9CF
:10138000B615062231460020FEF71EFF0622B100E8
:101390000020FEF719FF062210210020FEF714FF9F
:1013A000062220210020FEF70FFF7D20C0020B90B7
:1013B0006846068644868486C486354C0BA920463A
:1013C000FFF7DCFA03212046FFF7CEFA01220221C3
:1013D0002046FFF715FB012211462046FFF710FBC0
:1013E000012231462046FFF70BFB01220021204657
:1013F000FFF713FB012211462046FFF70EFBA00169
:10140000286084010BA92046FFF7B8FA0321204683
:10141000FFF7AAFA012202212046FFF7F1FA012282
:1014200011462046FFF7ECFA012200212046FFF783
:10143000F4FA012211462046FFF7EFFAE011286086
:10144000012204210020FEF7BFFE124C00220421DD
:101450002046FFF7F3F8002204212046FFF7FEF8AC
:10146000012204212046FFF7F1F8FFF7CFFEFEE747
:101470001043000040000100204E00007C000020CE
:101480000060074000E100E000200B400040004009
:101490000000044000000B4010B515490878401CBE
:1014A000C0B20870052802D9002008700DE000289D
:1014B0000BD001280CD0022810D0032811D004280A
:1014C00012D0052809D10B4904E00A49193901E075
:1014D00008491439002000F005FA10BD05490F39FC
:1014E000F8E704490A39F5E70249491FF2E7000025
:1014F00004000020931B0000F8B517460546062897
:101500002DD2002901D000F0EDF9052000F0BCF942
:1015100001263446AC40E2B2E1B2022000F050F9BC
:10152000E2B2E1B2012000F04BF90D4880780028CA
:1015300005D0E2B2E1B21C2000F042F90AE0E1B2CB
:1015400000221C2000F03CF928461130C0B2394678
:1015500000F04AF9062045430148401D4655F8BDB4
:101560002000002010B5040001D0022C02D1E2209E
:1015700000F033F9012C01D0022C02D1E12000F05F
:101580002CF910BD10B5172000F0A0F810BD10B553
:10159000FF2000F022F910BDF8B5184C1D001646CA
:1015A0000746217001D1202917D8002000F0BCF98E
:1015B000062000F0C0F9002D03D00120A070042205
:1015C00002E00020A070024604211D2000F0F8F87F
:1015D000012211461D2000F0F3F8022211461D20C1
:1015E00000F0EEF8304600F06CF9022000F05BF9F4
:1015F0003946052000F0F8F8F8BD00002000002072
:1016000038B5FFF7BFFFC0070024002807D06846A1
:1016100004706946088889780904084338BD0320A6
:1016200069460870FFF7B3FF0007400F694648702E
:10163000144989780125002909D0602000F046F876
:10164000694688702028E4D90D708C70E1E7002885
:101650000DD001280ED002280ED003280ED0042869
:101660000ED00528D5D1202069468870D1E768467C
:101670008570CEE70220F7E70B20F5E71620F3E7A9
:101680001F20F1E72000002010B5052206490A209E
:1016900000F079F8044C0020A41F6070012000F0D5
:1016A00073F90220E07010BD2600002010B5064935
:1016B000C870022805D002220321002000F080F823
:1016C00010BD0322F8E700002000002010B5012122
:1016D00000F072F9022000F037F910BDF8B50E469F
:1016E00005460121612000F067F90024771E009073
:1016F0000AE0BC4201D1022100E00321FF2000F0FA
:101700005BF92855641CE4B2B442F2D30098F8BDEA
:1017100010B50446022801D0042C04D160221146E1
:10172000072000F04DF8032C01D0042C04D1102226
:101730001146072000F044F810BDFEB50F46002604
:10174000694615460E714007400F0121A83000F090
:1017500033F900246E1E11E0AC4201D2385D00E086
:10176000002069460870B44201D1022100E0032143
:101770006846007800F020F9641CE4B2AC42EBD378
:1017800068460079FEBDF8B50E462021084315468F
:10179000012100F011F90124074676190CE0AC4252
:1017A00003D1301B0078022102E0301B00780321B6
:1017B00000F002F9641CE4B2AC42F0D93846F8BD3E
:1017C00070B514460D460646FFF780FFA843204338
:1017D0000146304600F008F870BD202110B50843DE
:1017E000042100F0E9F810BD70B50C462021084333
:1017F000012100F0E1F805460221204600F0DCF866
:10180000284670BDFEB50F460446002069461546C1
:101810000871062C1CD220460621484319490A5C4F
:10182000002A15D04618711C05221020FFF7ABFFC7
:10183000711C05220A20FFF7A6FF1248401F047101
:1018400001214170B02000F0B7F800246E1E13E0B3
:10185000FF20FEBDAC4201D2385D00E000206946A9
:101860000870B44201D1022100E0032168460078EB
:1018700000F0A2F8641CE4B2AC42EBD368460079F5
:10188000FEBD00002500002010B5032807D0042865
:1018900007D0032203210846FFF792FF10BD012263
:1018A000F8E70222F6E710B50C210022002802D04A
:1018B000012804D00C220020FFF782FF10BD08226F
:1018C000F9E710B52E210622002804D0012805D002
:1018D000022803D101E0262200E00E220620FFF7B5
:1018E0006FFF10BD70B5062801D3002070BD062221
:1018F0000C4B4243D31802280AD200229D180C78C0
:10190000521CD2B2491C6C70052AF7D3052202E0A2
:101910000979597001220A30591CC0B2FFF733FF10
:1019200070BD00002500002010B502460F210420E4
:10193000FFF746FF10BD000710B5020EF02104208E
:10194000FFF73EFF10BD000038B50E4D04460428D9
:1019500001D0012C04D1002208212846FEF798FE70
:10196000FF2000F01FF869460870042C01D0022CFB
:1019700004D1012208212846FEF78AFE6846007835
:1019800038BD000000000B4010B5054B002801D009
:10199000012200E0002202211846FEF779FE10BD68
:1019A00000000B400349086148698007FCD50869BD
:1019B000C0B2704700400040F8B50E4D0C460646D8
:1019C000042901D0012C04D1002208212846FEF769
:1019D0005FFE3046FFF7E6FF69460870042C01D031
:1019E000022C04D1012208212846FEF751FE684648
:1019F0000078F8BD00000B40014800687047000007
:101A00004C000020044A404212688018884201D3EA
:101A100001207047002070474C00002010B51A4C80
:101A2000A069616988422CD06069401CC1B2174826
:101A3000425C61690A23415C59435218A169636998
:101A4000C91AC9B2511A124A914208D16169891C56
:101A5000C9B2405CA1693038C0B2616110BDA169F2
:101A6000206A884205D0A0692062FFF7C5FFE061C7
:101A700007E03221E069FFF7C5FF002801D0A06927
:101A80006061FF2010BD000050000020AC0300206A
:101A90000E02000070B51E4C054620780126B607E0
:101AA000012805D016E0012202213046FEF7A8FFEA
:101AB000A0686168401CC0B28842F4D01548A16893
:101AC0004554A068401CC0B2A060012202213046EB
:101AD000FEF796FF2078104E022805D070BD012237
:101AE00002213046FEF78CFF2069E168401CC0B23D
:101AF0008842F4D00948216945542069401CC0B28D
:101B00002061012202213046FEF77AFF70BD0000FD
:101B100050000020AC01002000000440AC02002076
:101B200010B50A2803D10D20FFF7B4FF0A20FFF7F4
:101B3000B1FF10BD10B5044602E0641CFFF7AAFF18
:101B400020780028F9D110BD10B50446000BFFF72E
:101B5000AFFB200AFFF7ACFB2005000EFFF7A8FB48
:101B6000E0B2FFF7A5FB10BD10B504460009FFF772
:101B70009FFB2046FFF79CFB10BDD14AF2EE077891
:101B8000563412717856341272785634127378566D
:101B90003412747856341275B81B0000000000200F
:101BA000800000005A0C0000381C0000800000205B
:101BB000300700006A0C0000000000000001300146
:101BC00030012F012F000000000000000000000085
:101BD000000000000000000010000000FF01B71925
:101BE0005195E70148E1F2F1C20148E1F2F1C30188
:101BF00048E1F2F1C40148E1F2F1C50148E1F2F136
:101C0000C60000000000000001000000000000000D
:101C100000000000000000000000000000000000C4
:101C200000000000000000000000000000000000B4
:081C300000000000006CDC0262
:04000005000000C136
:00000001FF
