:020000040000FA
:10000000D80A002055010000B1030000AD03000034
:10001000AF0300006B020000C706000000000000F4
:100020000000000000000000000000008504000047
:1000300035030000000000001104000087040000E8
:100040006F0100006F0100006F0100006F010000F0
:100050006F0100006F0100006F0100006F010000E0
:100060006F0100006F0100006F0100006F010000D0
:100070006F0100006F0100006F0100006F010000C0
:100080006F0100006F0100006F0100006F010000B0
:100090006F0100006F0100006F0100006F010000A0
:1000A0006F0100006F010000000000006F01000000
:1000B0006F0100006F0100006F0100006F01000080
:1000C0006F0100006F0100006F0100006F01000070
:1000D0006F010000000000000000000000000000B0
:1000E00000000000150200006F0100006F01000019
:1000F0006F0100006F0100006F0100006F01000040
:100100006F010000E90400006F0100006F010000B2
:100110006F0100006F010000000000006F0100008F
:100120006F0100006F0100006F0100006F0100000F
:100130006F0100006F0100006F010000000000006F
:1001400000000000000000000000000000000000AF
:100150006F0100000648804706480047FEE7FEE7BB
:10016000FEE7FEE7FEE7FEE7FEE7FEE7FEE7FEE767
:100170008904000079010000DFF80CD000F006F8D7
:100180000048004711120000D80A0020064C074D15
:1001900006E0E06840F0010394E807009847103457
:1001A000AC42F6D3FFF7ECFF0C1B00002C1B000049
:1001B0002DE9F0479146164A4FF0FF0A02EBC005C1
:1001C000002200240AFA02F02346084219D04FF018
:1001D000010C00200CFA02FC4FF00F0821FA00F687
:1001E00016EA0C0F06D0860008FA06F73C4309FA17
:1001F00006F73B43401C0828F0D32868A043184367
:10020000286008322D1D082ADBDDBDE8F0870000DC
:100210002020024003480168491C0160024800F0A8
:1002200005B800001000002000600740416821F080
:1002300001014160BFF34F8F70470029016802D070
:1002400041F0040101E021F0040101607047002940
:10025000016802D041F0010101E021F001010160DB
:100260007047C160704781607047FEE770B5124EFD
:100270000446706B850F00F023F82060012D05D037
:100280000E48022D02D0032D00D000206060316A9C
:10029000C840A0603168C1F3015120FA01F1E1606A
:1002A000B16AC1F30241072902D0C840206170BD84
:1002B0000621B0FBF1F0F9E70080084000127A0057
:1002C0000C49D1F8A400002813D0086A0A48D1F8D4
:1002D000FC1301290DD0094A9169C1F3C55101B937
:1002E00040219269C2F3415301229A40B0FBF2F0DF
:1002F000484370470000104300127A000080084015
:1003000000B585B06846FFF7B1FF039805B000BDA2
:10031000F0B5074F7C6AFD6A3E6B84438D4396437C
:1003200013B104430D4316437C62FD623E63F0BD8E
:10033000008008407047002A026801D00A4300E0AC
:100340008A4302607047000010B52021034800F086
:1003500023F808B1002010BD012010BD00600B4043
:10036000002A426801D00A4300E08A434260704795
:1003700042B1012A09D082688A438260C2688A43F6
:10038000C260704782680A43F7E7C2680A43C260E6
:1003900082688A4382607047C069084000D00120AB
:1003A00070470AB14162704781627047FEE7FEE71D
:1003B000704700F01F02012191404009800000F1C8
:1003C000E020C0F8001170470F4A0E480121C2F822
:1003D00000130E4903E0D1F80821272A03D0401E5C
:1003E000F9D101207047D1F82402D1F82432C0435A
:1003F000C1F82402D1F824228242F9D1C1F8243272
:1004000000207047005125020080084000A00640EF
:1004100070470029016802D041F0010101E021F09C
:1004200001010160704730B5D1E90543E4B14FF4F3
:100430000072DA4022438C680B682343D1E90345FC
:100440002C432343CC692343134343604B6A4A68DC
:100450001A430B6A42EA03128261896A4FF0FF3243
:1004600002EB5101C16030BD4FF480729A40E2E767
:100470000029016802D041F0080101E021F00801E3
:10048000016070477047704714480121C0F800139D
:10049000134AC2F8A810D2F80831002BFBD0002371
:1004A00013624FF010638361C2F8A410D2F80431D4
:1004B000002BFBD00B4AD2F8003223F00703DB1CE1
:1004C000C2F800320162426822F00302521C42600C
:1004D000426BB1EB927FFBD1704700000080084077
:1004E00000001043000008402DE9F0411E4EB068A6
:1004F00080071FD51D4F38681D4D2968884205D1DA
:1005000000220221304600F05BF813E0DFF864803F
:1005100000242968304618F8011000F0C2F8288835
:10052000401CC0F3090028603968814202D0641C75
:10053000082CEED3B1683046490712D50E4C21681D
:100540000E4A491CC1F309011268914209D000F01A
:100550009BF80B49226888542068401CC0F30900AE
:100560002060BDE8F0810000001000400400002081
:1005700000000020740000200C0000200800002073
:1005800074040020C2680A43C260704770B5054613
:100590000C46C88889882A690843218922F01F02ED
:1005A000114308432861686A618920F00300084309
:1005B0006862FFF7A5FE2168B0FBF1F0A86370BD8B
:1005C000002A426801D00A4300E08A434260704733
:1005D00070B515460446FFF7D9FF06212046FFF700
:1005E000D1FF012D05D0A826022D0BD0032D10D050
:1005F00025E00021204600F056F80121204600F0B9
:1006000058F81CE00021204600F038F8012211467D
:100610000DE00021204600F046F80121204600F0C0
:1006200048F80021204600F029F801220F21204639
:10063000FFF7C6FF26620121204600F028F8B4F13A
:10064000804F04D00A48844203D130200AE02F2092
:1006500008E00848844201D1312003E00648844282
:1006600004D13220BDE87040FFF7A3BE70BD00008A
:10067000000004400010004000100440C26822F056
:10068000C0020A43C2607047006880B27047002908
:10069000C16802D041F4007101E021F40071C16031
:1006A000704701607047C26822F030020A43C2609E
:1006B00070470029C16802D041F4807101E021F443
:1006C0008071C1607047FEE702E008C8121F08C1D0
:1006D000002AFAD170477047002001E001C1121FC3
:1006E000002AFBD17047000070B50DA001F0E7F9BA
:1006F0000D4D287801F000FA0CA001F0E0F900247B
:100700002819007901F0F8F90CA001F0D8F9641C5F
:10071000F6D00A2001F0C8F909490120087270BD1D
:100720005258444C454E3D00A80800202020525805
:100730004649464F5B5D3D20000000002000000060
:10074000CC0800200F4A68B101280ED002280FD033
:10075000032810D0042811D0052812D1D2E91201A3
:1007600000F08FBFD2E90801FAE7D2E90A01F7E702
:10077000D2E90C01F4E7D2E90E01F1E7D2E9100168
:10078000EEE77047180000202DE9F041154E0446B1
:100790000D4601200022717807E0AB5C8F18FFB294
:1007A000BB4200D00020521CD2B2A242F5D3012895
:1007B0000BD00DA001F083F90A2001F075F90A2091
:1007C00001F072F90A2001F06FF9641CE0B2307098
:1007D000202801D9012030702878401C7070BDE8B5
:1007E000F0810000180000204552524F5220212174
:1007F00021212121212121212121212121212121E9
:1008000021212121212121212121212121212121D8
:1008100021212121212121212121212121212121C8
:10082000212121212121200008B503460448006828
:1008300000901946009801F005F90028F9D008BD8C
:10084000100000200248052101700021416070471E
:1008500074080020024804210170002141607047A3
:1008600074080020164910B504200870154C606803
:10087000F8B92078E8B1207804280BD112A001F053
:100880001EF9532001F038F90A2001F00DF94FF458
:1008900080606060207805280BD110A001F00FF96E
:1008A000532001F029F90A2001F0FEF84FF4A0606E
:1008B000606000F0C7F8BDE8104000F019B8000013
:1008C000140000207408002035363032424C452098
:1008D0002050545820202043483D00003536303207
:1008E000424C45202050525820202043483D0000D3
:1008F00070B5484C606840F20155A0F5A06004F165
:100900000C06052831D2DFE800F0031731747B00B4
:100910000021152001F040F80121032001F03CF8EE
:10092000002000F0A7FE3F21372001F035F800F04D
:10093000A5FE00F065FE61E0374904200870002044
:1009400000F098FE01F000F8800604D400F00AFDE3
:10095000307800F0D1FC0121152001F01DF801F0E4
:100960006BF8A06040F20250606070BDFFF7ECFCD5
:100970000028FAD00020FFF757FF00F0E8FF0446F8
:100980004006F2D5254DE869401CE86100F0DCFF27
:10099000002000F06FFE22A001F091F8292000F065
:1009A00073FF01F0A9F8C4F3420400F0DDFF194918
:1009B000343111F8040BFFF7E7FE1BA001F07FF8BC
:1009C000E86901F086F81BA001F079F8204601F0F3
:1009D00093F81BA001F073F8FFF786FE00F0B4FF58
:1009E0008006C2D400F0BEFC3078BDE8704000F054
:1009F00083BC00F053FDA068142105E0656070BD64
:100A000000F04CFDA068C82101F01CF80028F5D1C9
:100A100070BD0000740800201400002018000020A1
:100A2000727373693D2000007061636B6574735F5E
:100A3000693D20002052585F505F4E4F3D0000003E
:100A4000202000002DE9F0479A4C60689A4EA0F5EE
:100A500080604FF0010A40F203454FF47A7840F28B
:100A6000044904F10C07072846D2DFE800F0041619
:100A700030477DF6F5008021032000F08DFF00F067
:100A8000BFFD0021152000F087FF002000F0F2FDDF
:100A90000121372000F080FF2DE00021152000F01B
:100AA0007BFF00F0E4FD00F0C7FFA06040F20240D1
:100AB0006060002000F0DEFD262000F0E5FE00F082
:100AC00007000128F8D1BDE8F04700F05BBFA0683F
:100AD000502100F0B7FF00280ED000F0C2FD00202A
:100AE00000F0C8FD262000F0CFFE00F0070002282D
:100AF000F8D100F047FF6560BDE8F08700F024FF03
:100B00008006F9D400F020FF800614D4012000F004
:100B10004BFC3878FFF716FE387848B1012807D02B
:100B2000022805D0032803D0042801D0052802D1CB
:100B3000132000F0EDFB0021152000F02DFF30699F
:100B4000404504DA00F090FD3069401C306100201F
:100B500000F090FD262000F097FE00F0070004282A
:100B6000F8D1C4F80490C7E7FFF7EEFB0028C3D024
:100B700052A000F0A4FF292000F086FE00F0BCFF88
:100B800000F0E5FE0546C00630D500F064FD01200A
:100B900000F00AFC3878FFF7D5FD112000F0B8FB13
:100BA0007069401C706147A000F089FF306900F057
:100BB00090FF45A000F083FF706900F08AFF45A018
:100BC00000F07DFFB06900F084FF45A000F077FFE2
:100BD000142000F059FE00F08FFF0A2000F064FF9F
:100BE00000F02AFFA06040F206406060A80630D501
:100BF000B069401CB06133A000F061FF306900F0C3
:100C000068FF31A000F05BFF706900F062FF31A067
:100C100000F055FFB06900F05CFF0A2000F044FFCF
:100C200000F092FEC0060CD587F801A00021152027
:100C300000F0B2FE00F000FFA06040F205406060EE
:100C400007E03069404504DA00F00EFD3069401CD1
:100C5000306168060FD44FE71BE011E000F084FE1E
:100C600021A000F02CFF387800F046FF21A000F012
:100C700026FFFFF739FD00F067FEC007EED03BE727
:100C8000A068642100F0DEFE0028E4D0C6F810A0C1
:100C900031E7A068642100F0D5FE0028DBD0306980
:100CA0004045BFF65EAF00F0DFFC3069401C3061AC
:100CB00057E7000074080020180000207273736961
:100CC0003D20000052543A0020204D41585F5254BC
:100CD0003A000000202054585F44533A00000000BE
:100CE00020205254323A00007A7A7A5F7069706537
:100CF0003D0000002020000070B50A490420087063
:100D0000094D2870687800280BD1FFF7A3FD012456
:100D10006C702878052804D1200002D1FFF792FDDD
:100D20006C7070BD14000020CC0800200E484021DB
:100D3000C1701021817001214171032202712022B2
:100D400082710022C27102724172022181720421F9
:100D5000C1728021017300F0B5F900F007F8FFF7C8
:100D600081FDFFF7C9FFFAE718000020D24910B54E
:100D70000420087000F072FC00F073FC00F068FCC6
:100D80004021002000F008FE002000F073FC5C21F0
:100D9000022000F001FE0021032000F0FDFD702183
:100DA000042000F0F9FDA021062000F0F5FD15213A
:100DB000072000F0F1FD7F21082000F0EDFD232148
:100DC000092000F0E9FD00210A2000F0E5FD0321E3
:100DD0000B2000F0E1FD2C210D2000F0DDFD0121B4
:100DE0000E2000F0D9FD1C210F2000F0D5FD53216D
:100DF000102000F0D1FDB148C178827840791143CC
:100E00000143112000F0C8FD3021122000F0C4FD84
:100E10001021132000F0C0FD0021142000F0BCFDC3
:100E20000021152000F0B8FD1F21162000F0B4FDB0
:100E3000002000F01FFC0021212000F0ADFD0A2160
:100E4000272000F0A9FD3F212A2000F0A5FD8721E1
:100E50002B2000F0A1FD20212C2000F09DFD202161
:100E60002D2000F099FD20212E2000F095FD20215D
:100E70002F2000F091FD2021302000F08DFD202159
:100E8000312000F089FD3F21322000F085FD7221E4
:100E9000332000F081FD7321342000F07DFD7421AA
:100EA000352000F079FD7521362000F075FD012117
:100EB000372000F071FD1021382000F06DFD002179
:100EC000392000F069FDAF213A2000F065FD0121D5
:100ED0003C2000F061FD04213D2000F05DFD01207B
:100EE00000F0C8FB0821202000F056FD74212120CD
:100EF00000F052FD1121222000F04EFD2021232080
:100F000000F04AFD0021242000F046FD00212520AC
:100F100000F042FD4021262000F03EFD0021272068
:100F200000F03AFD4221282000F036FD042129205E
:100F300000F032FD02212B2000F02EFD0021312097
:100F400000F02AFD0021322000F026FD022133208E
:100F500000F022FD0321352000F01EFD022000F0EC
:100F600089FB5721212000F017FD0021262000F0E9
:100F700013FD6621272000F00FFDA021282000F09E
:100F80000BFD9021292000F007FD11212A2000F0FF
:100F900003FD12212B2000F0FFFC18212D2000F072
:100FA000FBFCEC212E2000F0F7FC56212F2000F056
:100FB000F3FC0821302000F0EFFC2021312000F06C
:100FC000EBFC0821322000F0E7FC1421332000F074
:100FD000E3FCCF21342000F0DFFC3021352000F08D
:100FE000DBFC0321362000F0D7FC2021382000F064
:100FF000D3FC9021392000F0CFFC54213A2000F09E
:10100000CBFC54213B2000F0C7FC43213C2000F0E6
:10101000C3FC10213D2000F0BFFC02213E2000F067
:10102000BBFC032000F026FB01212C2000F0B4FCC7
:1010300000212D2000F0B0FC40212E2000F0ACFC5F
:101040000E212F2000F0A8FC4021392000F0A4FC44
:1010500000213A2000F0A0FC1F213B2000F09CFC66
:101060008621332000F098FC022000F003FB0821C9
:10107000202000F091FC0220FFF7D6FB012000F0B9
:10108000F9FAD7213D2000F087FC5D213E2000F0D9
:1010900083FC35212A2000F07FFC09A000F00FFD21
:1010A0002A2000F0F1FBC007FAD100F047F8BDE8B4
:1010B0001040002000F0DEBA1400002018000020CC
:1010C0005054580070B500F037F801222021032059
:1010D000FFF76EF8164C002220212046FFF72BF96F
:1010E000002220212046FFF743F90122202120463B
:1010F000FFF736F90122950329460320FFF758F838
:10110000002229462046FFF716F9002229462046EC
:10111000FFF72EF9012229462046FFF721F900F0BA
:10112000F1F904490020087048600C31487070BD26
:1011300000600B407408002000F062B91CB5244C1C
:10114000D4E9080100F09DFA684600F04BFB21A0AD
:1011500000F0B5FC0098000E00F0CEFC0098C0F343
:10116000074000F0C9FC0098C0F3072000F0C4FC61
:101170000098C0B200F0C0FC9DF8040000F0BCFC78
:101180000A2000F091FCD4E90A0100F0B5FA6846A3
:1011900000F02CFB14A000F092FC0098000E00F070
:1011A000ABFC0098C0F3074000F0A6FC0098C0F329
:1011B000072000F0A1FC0098C0B200F09DFC9DF853
:1011C000040000F099FC0A2000F06EFC1CBD000039
:1011D00018000020726561642070697065203020FD
:1011E00049442067657420007265616420706970ED
:1011F00065203120494420676574200000F00F000D
:101200000A2801D2303000E0373000F027BC00005F
:101210008EB000244FF4C81044F21041304A01232C
:10122000FFF776F8FFF7D0F800B1FEE72D48006829
:1012300044F62061B0FBF1F12B4D2846FFF711F881
:1012400000212846FFF70FF801212846FEF7FFFF8F
:1012500001212846FEF7F1FF0125244968020426F2
:10126000C1F80001002280212148FFF781F8052202
:10127000F0210020FEF79CFFA803CDE90004082020
:10128000CDE902040494059406940794052008947B
:10129000CDE909404FF0402769463846FFF7C3F8CB
:1012A00001213846FFF7E4F801213846FFF7B1F88D
:1012B00006220C210120FEF77BFF4FF47A300B90C1
:1012C000ADF83050ADF83440ADF83260ADF836408E
:1012D00003220BA90748FFF77BF9FFF727FDFEE77D
:1012E00040000100700000200060074004E000E0C2
:1012F00000000B400010004010B5044C04F108023F
:10130000217900F035FAF420607010BD80080020CB
:1013100010B5094C024604F108016068112A02D098
:10132000132A03D004E000F0B1F901E000F0EAF97B
:10133000F420607010BD00008008002030B5084B1C
:1013400018700020596005E01D1812F8014B401C70
:101350002C72C0B28842F7D3FF20587030BD000015
:101360008008002030B50F4A89B0D078401CC1B247
:101370000020D170052900D9D070D07020211171C2
:1013800053796D465B1CDBB2537100229C18AC5440
:10139000521CD2B28A42F9D32A46FFF7CFFF09B0D6
:1013A00030BD00006800002030B5144A89B000212B
:1013B00030B11078401CC0B21070052800D91170EF
:1013C000117008465178491CC9B25170202901D9C1
:1013D000012151702021517093786C465B1CDBB267
:1013E000937000229D18A554521CD2B28A42F9D3A0
:1013F0002246FFF7A3FF09B030BD000068000020BF
:1014000010B5254C01206062014600220320FEF742
:10141000CFFE012211462046FEF78DFF02206062BA
:10142000014600220320FEF7C3FE012202212046CE
:10143000FEF781FF04206062014600220320FEF7D0
:10144000B7FE012204212046FEF775FF0820A062A6
:10145000014600220320FEF7ABFE012208212046B0
:10146000FEF769FF1020A062014600220320FEF76C
:101470009FFE012210212046FEF75DFF4020A06262
:10148000014600220320FEF793FE20460122BDE81C
:1014900010404021FEF74FBF00600B4070B5FEF7D3
:1014A00053FF00281FD000F052FA40061BD50E4D06
:1014B00000F04AFAC00716D1022000F0E5F9C0F3A7
:1014C000420400F051FA2878291DFFF75DF907A0C2
:1014D00000F0F5FA204600F00FFB09A000F0EFFA4B
:1014E000FFF702F9E4E770BDA80800205F5F5F5FC7
:1014F0005F5F5F5F5F5F5F52585F505F4E4F3D00C1
:101500002020000010B5002201210420FEF750FE2B
:10151000002202210420FEF74BFE0421002208468F
:10152000FEF746FE002208210420FEF741FE0022BD
:1015300010210420FEF73CFE002220210420FEF7AB
:1015400037FE002240210420FEF732FE00228021D7
:101550000420FEF72DFE294C012211462046FEF7FD
:10156000EAFE012202212046FEF7E5FE01220421C7
:101570002046FEF7E0FE012208212046FEF7DBFEB2
:10158000012210212046FEF7D6FE0122202120460E
:10159000FEF7D1FE012240212046FEF7CCFE0122BB
:1015A00080212046FEF7C7FE002201212046FEF7DB
:1015B000F8FE002202212046FEF7F3FE002204215D
:1015C0002046FEF7EEFE002208212046FEF7E9FE47
:1015D000002210212046FEF7E4FE002220212046B2
:1015E000FEF7DFFE002240212046FEF7DAFE20460D
:1015F0000022BDE810408021FEF7D3BE00800B40E2
:101600007E21042000F0C8B92DE9F0410E4C0821DC
:10161000A1620E490A784FF00105D20700D0A562F9
:101620000A784FF00206920700D5A66209784FF0BB
:101630000407490700D5A76200F01CF965626662DD
:101640006762BDE8F081000000600B4014000020DC
:101650000820FFF7D9BF0920FFF7D6BF0A20FFF700
:10166000D3BF0C20FFF7D0BF0E20FFF7CDBF0F2058
:10167000FFF7CABF40F02000FFF7C6BF8920FFF781
:10168000C3BF0A460146102000F0B2B92DE9F04769
:101690000F46060029D0164D0820A862154801788B
:1016A0004FF0010AC90701D0C5F828A001784FF012
:1016B0000208890701D5C5F8288000784FF0040991
:1016C000400701D5C5F82890112000F0D3F8002478
:1016D00003E0385D00F0CEF8641CB442F9D3C5F8DD
:1016E00024A0C5F82480C5F82490BDE8F087000048
:1016F00000600B40140000200A460146122000F052
:1017000077B900002DE9F0470F46060029D0164DA5
:101710000820A862154801784FF0010AC90701D0D6
:10172000C5F828A001784FF00208890701D5C5F84F
:10173000288000784FF00409400701D5C5F82890AB
:10174000132000F097F8002403E0385D00F092F8D1
:10175000641CB442F9D3C5F824A0C5F82480C5F8A8
:101760002490BDE8F087000000600B4014000020CA
:101770002DE9F04717460D002ED0184E0821B16212
:1017800017490A784FF0010AD20701D0C6F828A0FD
:101790000A784FF00209920701D5C6F82890097817
:1017A0004FF00408490701D5C6F828801830C0B2A8
:1017B00000F060F8202D00D92025002404E0385DD9
:1017C00000F058F8641CE4B2AC42F8D3C6F824A088
:1017D000C6F82490C6F82480BDE8F08700600B406E
:1017E000140000200146902000F07EB801469220AF
:1017F00000F07AB82DE9F05F1C4F064608200D4630
:10180000B8621B4801784FF0010BC90701D0C7F837
:1018100028B001784FF00209890701D5C7F8289050
:1018200000784FF0040A400701D5C7F828A0BF2070
:1018300000F020F84FF04008C7F82480C7F8248053
:10184000002405E0002000F015F805F8010B641CE9
:10185000B442F7D3C7F82880C7F82880C7F824B067
:10186000C7F82490C7F824A0BDE8F09F00600B40A3
:10187000140000204FF04021086148698007FCD522
:101880000869C0B2704700002DE9F041144C0821EE
:10189000A16214490A784FF00108D20701D0C4F8B8
:1018A00028800A784FF00206920700D5A6620978D0
:1018B0004FF00407490700D5A76240F0C000FFF7CA
:1018C000D9FF4025656265620020FFF7D3FFA5625E
:1018D000A562C4F8248066626762BDE8F0810000FA
:1018E00000600B40140000202DE9F047154C0E4617
:1018F0000821A1620427A762FFF7BCFF40256562AB
:1019000065620020FFF7B6FF30710020FFF7B2FFDD
:1019100082460020FFF7AEFF81460020FFF7AAFFB6
:1019200080460020FFF7A6FF08EB002109EB01210C
:101930000AEB01203060A562A56201206062676247
:10194000BDE8F08700600B400520FFF79DBF10B594
:101950000420FFF799FF040003D00146042000F0A3
:101960001BF8204610BD000070B50C20FFF78CFF5F
:10197000040004D0024D291DFFF73CFF2C6070BD10
:10198000A808002010B50020FFF774FEBDE8104045
:101990002620FFF779BF00002DE9F041124C884660
:1019A0000821A16211490A784FF00105D20700D041
:1019B000A5620A784FF00206920700D5A662097860
:1019C0004FF00407490700D5A76200F03F0040F040
:1019D0004000FFF74FFF4046FFF74CFF656266622D
:1019E0006762BDE8F081000000600B401400002039
:1019F0002DE9F0410F4D0C4608211746A962042637
:101A0000AE62FFF737FFF8B2FFF734FFE0B2FFF73F
:101A100031FFC4F30720FFF72DFFC4F30740FFF7A2
:101A200029FF200EFFF726FF012068626E62BDE8E5
:101A3000F081000000600B40014800687047000022
:101A400010000020044A404212681044884201D32A
:101A500001207047002070471000002070B5054637
:101A60000E4E0F4C04E0012202213046FEF7A8FD85
:101A700060682168401CC0F309008842F3D009481F
:101A8000616845546068401CC0F3090060603046DE
:101A9000BDE8704001220221FEF792BD0010004017
:101AA000000000207400002010B50A2803D10D208A
:101AB000FFF7D4FF0A20BDE81040FFF7CFBF10B5F5
:101AC000044602E0641CFFF7C9FF20780028F9D122
:101AD00010BD10B50446C0F30730FFF78FFBC4F309
:101AE0000720FFF78BFBC4F30710FFF787FBE0B27B
:101AF000BDE81040FFF782BB10B504460009FFF7B0
:101B00007DFB2046BDE81040FFF778BB2C1B000092
:101B10000000002074000000C8060000A01B0000A8
:101B200074000020640A0000D806000000000000D5
:101B300000000000000000000000000000000000A5
:101B40000000000000000000000000000000000095
:101B50000000000000000000000000000000000085
:101B60000000000026F2E1F27F00000023F6E1F21F
:101B70007100000023F6E1F27200000023F6E1F2AA
:101B80007300000023F6E1F27400000023F6E1F296
:101B900075000000FF002FFF002F000000A24A0484
:0400000500000155A1
:00000001FF
