:020000040000FA
:1000000090050020C100000029070000190700002A
:10001000FFFFFFFFFFFFFFFFFFFFFFFFFFFFFFFFF0
:10002000FFFFFFFFFFFFFFFFFFFFFFFFC90700000C
:10003000FFFFFFFFFFFFFFFF59070000CB07000096
:1000400035010000350100003501000035010000D8
:1000500035010000350100003501000035010000C8
:1000600035010000FFFFFFFF3501000035010000F2
:10007000350100003501000035010000FFFFFFFFE2
:10008000FFFFFFFF210200003501000035010000E5
:100090003501000035010000350100003501000088
:1000A000B5080000350100003501000035010000F1
:1000B0003501000035010000350100003501000068
:1000C0001D4880471D4880471D4800471D4801695D
:1000D000002908D14169002905D18169002902D18F
:1000E000C169002909D01848C1680901090D002912
:1000F0000ED005290CD006290AD0BFF34F8F134824
:100100001349016013491248C860BFF34F8FFEE7DF
:100110000E4801680E48884200D070470E480F49CB
:1001200001600A480E4901607047FEE7FEE7FEE7FE
:10013000FEE7FEE7FEE70000CD000000CD0700006F
:100140006501000000030840800108400000002015
:100150000400FA0500ED00E0008108400100000005
:10016000000000000348854600F01CF800480047E6
:100170009D0E00009005002030B50B460146002082
:100180002022012409E00D46D5409D4205D31D469D
:100190009540491B2546954040191546521E002D95
:1001A000F1DC30BD064C0125064E05E0E36807CCC6
:1001B0002B430C3C98471034B442F7D3FFF7D6FFDB
:1001C0003816000058160000F0B596460A46134946
:1001D000C000461800230025FF2098402C461042FE
:1001E00016D00020012199408C461146C140674637
:1001F000394206D087000F21B9400D437146B940FE
:100200000C43401C0828F0D33068A84320433060DA
:100210000833361D082BDEDDF0BD00002020024033
:1002200010B504480168491C0160034800F006F855
:1002300010BD0000480000200060074041684908E8
:1002400049004160BFF34F8F7047042200290168C5
:1002500001D0114300E0914301607047002901681B
:1002600002D00122114301E04908490001607047B2
:10027000C16070478160704770B5184D0446686B67
:100280004607760F00F02EF815492060330000F085
:10029000C9FC081405070714140E1114606000E06F
:1002A0006160296A6068052909D3400908E00120D6
:1002B000C003F3E77D200002F0E70020EEE7C8402E
:1002C000A060A96A4903490F072902D0C840E0602D
:1002D00070BD0321FFF750FFF9E7000000800840E0
:1002E00000127A000C490868C869C20F4868400AC1
:1002F000C007C00F0ED00948002A0BD18869C00D75
:100300000007000F00D110208969044A4902890FB3
:100310005043C840704700000080084000127A0037
:100320001FB541090A4A89008A1800212E2800D1E8
:100330000221C006C00E1268032383401A40C24047
:1003400054186846FFF798FF029804B0E04010BDCB
:1003500038800840F0B5084F7C6AFD6A3E6B8443E4
:100360008D439643002B02D004430D4316437C6219
:10037000FD623E63F0BD000000800840F8B50A2031
:1003800001F01EF9ACA001F025F9532001F03CF971
:100390000A2001F015F9AE48027A002310215320FB
:1003A00000F0D4FE0122AB49002000F07FFE0420C3
:1003B00000F088FF022000F0AFFE032000F050FFA5
:1003C000A54E0020B060F06030613020B071307810
:1003D00000280AD001280DD0022811D0032815D0FA
:1003E000042819D005281DD024E001207071024690
:1003F00098491CE00220707196490246491D16E09A
:100400000B207071934902460A3110E0162070717A
:10041000904902460F310AE01F2070718D49024653
:10042000143104E0202070718A49024619310020FD
:1004300000F03CFE002006E0B179854A09182C3214
:100440001154401CC0B271798842F5D3B079401C78
:10045000B07172797E4900202C3100F087FF0120B5
:1004600001F046F800F06DFE04468006800F01D1D1
:100470006006F7D5E00624D51021072000F068FFBC
:100480000A2001F09DF8002000F074FC73A001F038
:10049000A1F8307801F0B8F873A001F09BF80420BF
:1004A00000F0EEFE01F0B0F874A001F093F808201F
:1004B00000F0E6FE01F0A8F87D20B168C00081429E
:1004C00022D2A00678D50A2001F07AF8012000F0A7
:1004D00051FC62A001F07EF8307801F095F86BA035
:1004E00001F078F8042000F0CBFE01F08DF863A055
:1004F00001F070F8082000F0C3FE01F085F87D20BF
:10050000B168C00081420CD3002000F0F1FF04204C
:1005100000F0D8FE022000F0FFFD4D4900200870D9
:10052000F8BD7079401CC0B27071202801D901203B
:10053000707100F03FFE009068460078032813D0E9
:100540002021072000F004FF00F080FD3078002813
:1005500033D0012836D002283AD003283ED00428D0
:1005600042D0052846D04DE06021072000F0F0FE83
:1005700068468578364829460C3000F089FE3449B3
:1005800028460C3100F06AFB45A001F023F828460C
:1005900001F03AF845A001F01DF82D4F00240C376A
:1005A00007E046A001F016F8385D01F02DF8641C54
:1005B000E4B2A542F5D8C7E739E0012070710246E0
:1005C00024491CE00220707122490246491D16E0B0
:1005D0000B2070711F4902460A3110E0162070711D
:1005E0001C4902460F310AE01F207071194902466A
:1005F000143104E0202070711649024619310020A0
:1006000000F054FD124A00202C3204E0B1790918A0
:100610001154401CC0B271798842F7D3B079401CA4
:10062000B07172790A4900202C3100F09FFEFF2042
:100630002D3000F091FB15E76E726632344C30318C
:100640002B202050545820202043483D000000001B
:10065000600000201A16000004000020207A7A7A38
:100660005F706970653D0000204D41585254202054
:1006700053455455505F524554523D0020204F423F
:1006800053455256455F54583D0000002054585F72
:100690004453202053455455505F524554523D0019
:1006A000207061636B65745F737A3D0020526563EF
:1006B00065697665446174613D00000020000000BA
:1006C000002A026801D00A4300E08A4302607047B2
:1006D000002A426801D00A4300E08A434260704722
:1006E000002A08D0012A09D082688A438260C26841
:1006F0008A43C260704782680A43F7E7C2680A43C8
:10070000C26082688A4382607047002A01D04162D9
:100710007047816270470000024801680029FCD0E0
:10072000704700000000002070470000084A07489A
:1007300001211160074902E08A68272A03D0401E80
:10074000FAD10120704700207047000000366E018A
:100750000083084000A1064070470029016802D0CC
:100760000122114301E0490849000160704730B59A
:100770004C698B69002C1AD001225202DA402243C4
:100780008C680B680D692343CC682C432343CC69E8
:100790002343134343604B6A4A681A430B6A1B01A5
:1007A0001A438261896A4908491EC16030BDFF222F
:1007B00001329A40E4E708220029016801D0114380
:1007C00000E091430160704770477047F0B53449CD
:1007D0001020C8603349012008603348016B402471
:1007E0002143016331498A68272AFCD1416A0322E7
:1007F00092029143416241680122D2021143416059
:100800008168C908C907FBD04168C908C900C91C6B
:100810004160416B4907490F0329FAD1244B1968FC
:10082000C908C900491C19600025056241685E15A8
:10083000B143416001689F153943016041681A1551
:100840001143416081688908C907FBD0016BA1434E
:1008500001630168B94301600321090681614168B0
:100860003143416081684908C907FBD01968C9084C
:10087000C900891C196005624168C908C900491C82
:100880004160416B4907490F0129FAD118681021CD
:10089000084318601868090208431860F0BD00009A
:1008A00000810840008308400080084000A1064005
:1008B00000020840F8B5354E8021304600F07CF843
:1008C00000281DD0324F3868324D2968884205D142
:1008D00000220221304600F0B7F811E000242E4833
:1008E0002968415C304600F0BAF82868401CC0B264
:1008F000286038682968884202D0641C082CEED32E
:1009000020213546304600F057F8244E244C254F20
:10091000002819D02021284600F046F80EE0206873
:100920003168401CC0B288420ED0284600F094F8CE
:10093000216878542068401CC0B2206001212846FC
:1009400000F03AF80028EAD14021284600F034F8B7
:10095000002819D04021284600F026F80EE0206833
:100960003168401CC0B288420ED0284600F074F8AE
:10097000216878542068401CC0B2206001212846BC
:1009800000F01AF80028EAD1F8BD00000000044089
:10099000500000204C0000208C010020540000205A
:1009A000580000208C02002002690A400261704752
:1009B00082680A43826070470069084000D00120C5
:1009C0007047000070B504460D46C8888988626883
:1009D00008432989184B1A40114308436989084381
:1009E000606001208007844206D11820FFF798FC40
:1009F0002968FFF7C1FB60621048844206D11A20C3
:100A0000FFF78EFC2968FFF7B7FB60620C48844251
:100A100006D11C20FFF784FC2968FFF7ADFB60625C
:100A20000848844206D11E20FFF77AFC2968FFF7A8
:100A3000A3FB606270BD0000FCE0FFFF000004400B
:100A40000010004000100440002AC26801D00A4390
:100A500000E08A43C2607047006880B2704701605E
:100A600070474269D209D2010A4380210A43426198
:100A7000704710B58368490030248C40A3438A40F6
:100A80001343836010BD10238B404168002A01D0BE
:100A9000194300E0994341607047000008B50A20FF
:100AA00000F08EFD48A000F095FD532000F0ACFD55
:100AB0000A2000F085FD4A48027A002310215320C5
:100AC00000F044FB01224749002000F0EFFA4549BD
:100AD0000222491D012000F0E9FA42490B220A31A5
:100AE000022000F0E3FA3F4916220F31032000F004
:100AF000DDFA3C491F221431042000F0D7FA3949AD
:100B000020221931052000F0D1FA042000F0DAFB90
:100B1000022000F001FB022000F0A2FB00F08EFB9F
:100B2000314D0020686100F00CFB8006800F03D07F
:100B30003021072000F00CFC00F03CFB00906846E0
:100B4000007803283AD14021072000F001FC6846D4
:100B500084782348264621460C3000F099FB204932
:100B600020460C3100F0AAF820A000F033FD6A699D
:100B7000521C6A6190B200F037FD20A000F02AFDFF
:100B80006846407800F040FD1EA000F023FD20469E
:100B900000F03AFD1EA000F01DFD114F00240C379F
:100BA00007E01FA000F016FD385D00F02DFD641C6D
:100BB000E4B2A642F5D80A2000F002FD00F0BCFA2B
:100BC000C007B9D0AFE700006E726632344C3031E6
:100BD0002B202050525820202043483D0000000088
:100BE000600000201A16000004000020636F756E7C
:100BF000745F726F6765723D00000000207069705D
:100C0000653D0000207061636B65745F737A3D0021
:100C10002052656365697665446174613D0000003A
:100C20002000000030B47446641E2578641CAB427A
:100C300000D21D46635D5B00E31830BC184702E03C
:100C400008C8121F08C1002AFAD170477047002057
:100C500001E001C1121F002AFBD17047F8B504461C
:100C6000144E0D4601200022317907E0AB5C8F184D
:100C7000FFB2BB4200D00020521CD2B2A242F5D338
:100C800001280BD00C4800F0A5FC0A2000F098FCCD
:100C90000A2000F095FC0A2000F092FC641CE0B2EF
:100CA000F070202801D90120F0702878401C3071A4
:100CB000F8BD000004000020180D0000F8B504463F
:100CC000144E0D4601200022B17807E0AB5C8F186E
:100CD000FFB2BB4200D00020521CD2B2A242F5D3D8
:100CE00001280BD00CA000F075FC0A2000F068FC75
:100CF0000A2000F065FC0A2000F062FC641CE0B2EF
:100D00007070202801D9012070702878401CB070C4
:100D1000F8BD0000040000204552524F522021210E
:100D200021212121212121212121212121212121B3
:100D300021212121212121212121212121212121A3
:100D40002121212121212121212121212121212193
:100D5000212121212121200008B5034604480068F3
:100D600000901946009800F0FBFB0028F9D008BD60
:100D70004800002010B5134CA168491CA160002850
:100D800003D0E068401CE06002E02069401C206164
:100D90000DA000F01FFC208980B200F025FC0DA002
:100DA00000F018FCA08980B200F01EFC0BA000F03F
:100DB00011FC208A80B200F017FC0AA000F00AFCA7
:100DC00010BD000004000020636F756E745F7365D2
:100DD0006E743D0020747864733D0000206D61786E
:100DE00072743D0020000000124C0120207200F0BF
:100DF00025F8012204210020FFF7E6F90E4D00221C
:100E000004212846FFF75CFC002204212846FFF756
:100E100067FC012204212846FFF75AFC02202070BB
:100E20002078022801D1FFF7A9FA20780328F7D10A
:100E3000FFF734FE6000002000000B4010B5104C9E
:100E4000002202212046FFF760FC0022022110460A
:100E5000FFF7BAF9012202212046FFF731FC0122F7
:100E600008212046FFF751FC002208211046FFF719
:100E7000ABF9012208212046FFF722FC10BD00003B
:100E800000000B40000710B5000F0A2801D23030D7
:100E900000E0373000F070FB10BD000090B0032080
:100EA000614D012700045F4A00247F042946012385
:100EB0000F920E90FFF74EFAFFF738FC002800D093
:100EC000FEE75B4859490068FFF756F9594E01465D
:100ED0003046FFF7CDF900213046FFF7CBF901216D
:100EE0003046FFF7BBF901213046FFF7AEF9524E0D
:100EF0003760002204215148FFF7F2FB052204214C
:100F00000120FFF761F9052208210120FFF75CF9B4
:100F1000052210210120FFF757F905222021012089
:100F2000FFF752F9012080030090082007940290F7
:100F300005940620424F0194039404940A90069469
:100F40000894099469463846FFF711FC0121384698
:100F5000FFF731FC01213846FFF7FFFB294601234B
:100F60000F9A0E98FFF7F6F9062210210020FFF7DE
:100F70002BF9062220210020FFF726F97D20C00250
:100F80000B90BD156846058644868486C4862D4C24
:100F90000BA92046FFF716FD03212046FFF708FDA9
:100FA000012202212046FFF74FFD01221146204673
:100FB000FFF74AFD012229462046FFF745FD0022A2
:100FC00011462046FFF755FD202201212046FFF75C
:100FD00050FD7F212046FFF744FD012200212046DD
:100FE000FFF751FD012211462046FFF74CFDA001FD
:100FF0003060012204210020FFF7E6F8124C0022A5
:1010000004212046FFF75CFB002204212046FFF765
:1010100067FB012204212046FFF75AFBFFF7E4FE9D
:10102000FEE700004000010010420000204E0000DA
:101030005C0000200060074000E100E000200B4061
:10104000004000400000044000000B4010B515496E
:101050000878401CC0B20870052802D9002008702A
:101060000DE000280BD001280CD0022810D0032856
:1010700011D0042812D0052809D10B4904E00A49EF
:10108000193901E008491439002000F0DFF910BDDA
:1010900005490F39F8E704490A39F5E70249491FBC
:1010A000F2E700000400002033160000F8B51746F0
:1010B000054606282DD2002901D000F0C7F90520E9
:1010C00000F096F901263446AC40E2B2E1B20220CB
:1010D00000F02AF9E2B2E1B2012000F025F90D4852
:1010E0008078002805D0E2B2E1B21C2000F01CF9A3
:1010F0000AE0E1B200221C2000F016F92846113067
:10110000C0B2394600F024F9062045430148401D8D
:101110004655F8BD1C00002010B5040001D0022C7B
:1011200002D1E22000F00DF9012C01D0022C02D1F5
:10113000E12000F006F910BD10B5172000F0A0F86E
:1011400010BD10B5FF2000F0FCF810BDF8B5184C2C
:101150001D0016460746217001D1202917D800200E
:1011600000F096F9062000F09AF9002D03D0012036
:10117000A070042202E00020A070024604211D207D
:1011800000F0D2F8002201211D2000F0CDF800224D
:1011900002211D2000F0C8F8304600F046F9022078
:1011A00000F035F93946052000F0D2F8F8BD00000E
:1011B0001C00002038B5FFF7BFFFC007002400283F
:1011C00007D068460470694608888978090408438E
:1011D00038BD032069460870FFF7B3FF0007400FD2
:1011E00069464870144989780125002909D0602092
:1011F00000F046F8694688702028E4D90D708C709C
:10120000E1E700280DD001280ED002280ED00328D7
:101210000ED004280ED00528D5D12020694688702C
:10122000D1E768468570CEE70220F7E70B20F5E7A7
:101230001620F3E71F20F1E71C00002010B505225F
:1012400006490A2000F053F8044C0020A41F6070E7
:10125000012000F04DF90220E07010BD22000020B6
:1012600010B50649C870022805D0022203210020CB
:1012700000F05AF810BD0322F8E700001C0000201F
:1012800010B5012100F04CF9022000F011F910BD59
:10129000F8B50E4605460121612000F041F9002411
:1012A000771E00900AE0BC4201D1022100E0032138
:1012B000FF2000F035F92855641CE4B2B442F2D3A3
:1012C0000098F8BD10B50446022801D0042C04D1C2
:1012D00060221146072000F027F8032C01D0042CCF
:1012E00004D110221146072000F01EF810BDF8B5F9
:1012F0000E46202108431546012100F011F9012472
:10130000074676190CE0AC4203D1301B007802216D
:1013100002E0301B0078032100F002F9641CE4B203
:10132000AC42F0D93846F8BD70B514460D460646B5
:10133000FFF7A6FFA84320430146304600F008F817
:1013400070BD202110B50843042100F0E9F810BD5C
:1013500070B50C4620210843012100F0E1F8054654
:101360000221204600F0DCF8284670BDFEB50F468D
:1013700004460020694615460871062C1CD22046FA
:101380000621484319490A5C002A15D04618711CE9
:1013900005221020FFF7ABFF711C05220A20FFF782
:1013A000A6FF1248401F047101214170B02000F0D7
:1013B000B7F800246E1E13E0FF20FEBDAC4201D240
:1013C000385D00E0002069460870B44201D1022176
:1013D00000E003216846007800F0A2F8641CE4B243
:1013E000AC42EBD368460079FEBD0000210000202E
:1013F00010B5032807D0042807D00322032108468C
:10140000FFF792FF10BD0122F8E70222F6E710B5C0
:101410000C210022002802D0012804D00C22002038
:10142000FFF782FF10BD0822F9E710B52821062238
:10143000002804D0012805D0022803D101E026228B
:1014400000E00E220620FFF76FFF10BD70B50628E2
:1014500001D3002070BD06220C4B4243D318022852
:101460000AD200229D180C78521CD2B2491C6C7012
:10147000052AF7D3052202E00979597001220A30C2
:10148000591CC0B2FFF733FF70BD000021000020DF
:1014900010B502460F210420FFF746FF10BD0007DC
:1014A00010B5020EF0210420FFF73EFF10BD000032
:1014B00038B50E4D0446042801D0012C04D1002279
:1014C00008212846FFF721F9FF2000F01FF86946A0
:1014D0000870042C01D0022C04D1012208212846D6
:1014E000FFF713F96846007838BD000000000B4094
:1014F00010B5054B002801D0012200E00022022196
:101500001846FFF702F910BD00000B4003490861BF
:1015100048698007FCD50869C0B2704700400040A8
:10152000F8B50E4D0C460646042901D0012C04D115
:10153000002208212846FFF7E8F83046FFF7E6FFCB
:1015400069460870042C01D0022C04D10122082124
:101550002846FFF7DAF868460078F8BD00000B402F
:10156000044A404212688018884201D30120704723
:10157000002070474800002070B505460D4E0E4C07
:1015800004E0012202213046FFF75EFA606821681C
:10159000401CC0B28842F4D0084861684554606875
:1015A000401CC0B26060012202213046FFF74CFAB5
:1015B00070BD0000000004404C0000208C010020A1
:1015C00010B50A2803D10D20FFF7D6FF0A20FFF738
:1015D000D3FF10BD10B5044602E0641CFFF7CCFF3A
:1015E00020780028F9D110BD10B50446000BFFF794
:1015F00049FC200AFFF746FC2005000EFFF742FCDD
:10160000E0B2FFF73FFC10BD10B504460009FFF73C
:1016100039FC2046FFF736FC10BDF2F1E2237F785B
:1016200056341271785634127278563412737856D2
:1016300034127478563412755816000000000020D9
:10164000600000003E0C0000B816000060000020A2
:10165000300500004E0C00000000000000013001C9
:1016600030012F000000000000000000000000001A
:101670000000000010000000FF01B7195195E701BC
:1016800048E1F2F1C20148E1F2F1C30148E1F2F1AF
:10169000C40148E1F2F1C50148E1F2F1C6000000E1
:1016A000000000000000000000000000000000003A
:0816B00000000000006CDC02E8
:04000005000000C136
:00000001FF
