:020000040000FA
:10000000D80A0020590100007B04000069040000A8
:1000100079040000F3020000E5070000FFFFFFFF86
:10002000FFFFFFFFFFFFFFFFFFFFFFFFBD0500001A
:10003000F1030000FFFFFFFFDD040000BF0500002B
:10004000DF010000DF010000DF010000FFFFFFFF14
:10005000DF010000DF010000DF010000DF01000020
:10006000DF010000DF010000DF010000DF01000010
:10007000DF010000DF010000DF010000DF01000000
:10008000DF010000DF010000DF010000DF010000F0
:10009000DF010000DF010000DF010000DF010000E0
:1000A000DF010000DF010000FFFFFFFFDF010000B4
:1000B000DF010000DF010000DF010000DF010000C0
:1000C000DF010000DF010000DF010000DF010000B0
:1000D000DF010000FFFFFFFFFFFFFFFFFFFFFFFF4C
:1000E000FFFFFFFF9D020000DF010000DF010000B5
:1000F000DF010000DF010000DF010000A5060000B5
:1001000045070000DF010000DF010000DF01000003
:10011000DF010000DF010000DF010000DF0100005F
:10012000DF010000DF010000DF010000DF0100004F
:10013000DF010000DF010000DF010000DF0100003F
:10014000DF010000DF010000DF010000DF0100002F
:10015000DF010000DF01000021488047214880477F
:100160002148004721480169002908D14169002937
:1001700005D18169002902D1C169002909D01C4833
:10018000C1680901090D00290FD001290DD00229EC
:100190000BD0BFF34F8F4FF0005016490160164946
:1001A0001448C860BFF34F8FFEE74FF0005001685E
:1001B0001048884200D0704710484FF0010101609C
:1001C0004FF000504FF0000101607047FEE7FEE77E
:1001D000FEE7FEE7FEE7FEE7FEE7FEE7FEE7FEE7F7
:1001E00065010000C1050000010200000003084095
:1001F000800108400400FA0500ED00E0008108409D
:10020000DFF80CD000F006F800480047911300001A
:10021000D80A0020064C074D06E0E06840F00103D4
:1002200094E8070098471034AC42F6D3FFF7ECFF90
:1002300038230000582300002DE9F0479146164A64
:100240004FF0FF0A02EBC005002200240AFA02F078
:100250002346084219D04FF0010C00200CFA02FC92
:100260004FF00F0821FA00F616EA0C0F06D08600B0
:1002700008FA06F73C4309FA06F73B43401C0828F6
:10028000F0D32868A0431843286008322D1D082A9F
:10029000DBDDBDE8F0870000202002400348016854
:1002A000491C0160024800F005B80000140000205D
:1002B00000600740416821F001014160BFF34F8FAA
:1002C00070470029016802D041F0040101E021F0EB
:1002D0000401016070470029016802D041F001016A
:1002E00001E021F0010101607047C1607047816049
:1002F0007047FEE770B5164D0446686B00F00706C0
:1003000000F02AF813492060082E1AD2DFE806F020
:100310001904060619191316606001E008466160A9
:10032000296AC840A060A96AC1F3024107290AD01E
:10033000C840E06070BD4FF40040EDE74FF4FA4074
:10034000EAE70020E8E70621B0FBF1F0F1E7000062
:100350000080084000127A000C49D1F8A40000285F
:1003600013D0086A0A48D1F8FC1301290DD0094AB4
:100370009169C1F3C45101B940219269C2F341535B
:1003800001229A40B0FBF2F048437047000010434E
:1003900000127A00008008401FB50B4A410902EBA9
:1003A000810200212E2800D1022100F01F001268D6
:1003B000032383401A40C24054186846FFF79AFF4F
:1003C000029804B0E04010BD38800840F0B5074FF7
:1003D0007C6AFD6A3E6B84438D43964313B10443AC
:1003E0000D4316437C62FD623E63F0BD0080084011
:1003F0007047002A026801D00A4300E08A43026085
:100400007047000010B52021034800F023F808B120
:10041000002010BD012010BD00600B40002A426882
:1004200001D00A4300E08A434260704742B1012A8A
:1004300009D082688A438260C2688A43C26070477A
:1004400082680A43F7E7C2680A43C26082688A4347
:1004500082607047C069084000D0012070470AB12F
:100460004162704781627047024801680029FCD0F0
:100470007047000000000020FEE7704700F01F02F8
:10048000012191404009800000F1E020C0F80011F6
:10049000704700000F4A0E480121C2F800130E49B0
:1004A00003E0D1F80821272A03D0401EF9D101200A
:1004B0007047D1F82402D1F82432C043C1F8240295
:1004C000D1F824228242F9D1C1F8243200207047A9
:1004D000006CDC020080084000A006407047002944
:1004E000016802D041F0010101E021F00101016049
:1004F000704730B5D1E90543E4B14FF40072DA40FA
:1005000022438C680B682343D1E903452C432343E2
:10051000CC692343134343604B6A4A681A430B6A0E
:1005200042EA03128261896A4FF0FF3202EB510105
:10053000C16030BD4FF480729A40E2E710B50122ED
:1005400010210320FFF778FE0B4C002210212046DB
:10055000FFF74FFF002210212046FFF767FF01221F
:1005600010212046FFF75AFF20460122BDE8104027
:100570004021FFF774BF000000600B4010B500225F
:1005800010210320FFF758FE064C012210212046BF
:10059000FFF72FFF20460022BDE810404021FFF763
:1005A0005EBF000000600B400029016802D041F0EE
:1005B000080101E021F008010160704770477047B1
:1005C000F0B532491020C1F80C01314E01233360DF
:1005D0003048D0F80821272AFBD14A6A22F4406229
:1005E0004A622D4AC2F8AC30D2F80C41002CFBD044
:1005F0004C6824F00704E41C4C604C6B04F00704C6
:10060000032CFAD1254DD5F8004224F00704641CD0
:10061000C5F8004200240C62C2F8A4401362C2F87C
:100620008C405362D0F8047147F03007C0F8047171
:10063000D0F804716FEA1717BF07F3D1C2F8A830DA
:10064000D2F808010028FBD0346014624FF0C0607B
:100650008861C2F8A430D2F804010028FBD0D5F894
:10066000000220F00700001DC5F800020C62486877
:1006700020F00700401C4860486B00F0070001288C
:10068000FAD1074803610363C361F0BD00800840ED
:100690001806104300A00640000010430000084068
:1006A000004000432DE9F0418021CE05304600F0A6
:1006B0004EF8F8B11D4F38681D4D2968884205D1A4
:1006C00000220221304600F077F813E0DFF8648062
:1006D00000242968304618F8011000F078F82888BE
:1006E000401CC0F3090028603968814202D0641CB4
:1006F000082CEED32021304600F029F8002813D032
:100700000D4C2168491CC1F309000C490968884255
:100710000AD0304600F058F8094922688854206809
:10072000401CC0F309002060BDE8F08108000020F3
:100730000400002070000020100000200C000020A9
:1007400070040020704782680A4382607047006925
:10075000084000D00120704770B504460D46C88897
:10076000898862680843298941F603739A431143D3
:100770000843698908436060B4F1804F0AD00B4890
:10078000844209D11A20FFF707FE2968B0FBF1F077
:10079000606270BD1820F6E70548844201D11C2034
:1007A000F1E704488442F4D11E20ECE70000044045
:1007B0000010004000100440002AC26801D00A4323
:1007C00000E08A43C2607047006880B270470160F1
:1007D000704710238B4041680AB1194300E09943E8
:1007E00041607047FEE702E008C8121F08C1002AF6
:1007F000FAD170477047002001E001C1121F002AA2
:10080000FBD1704770B50DA001F06FFD0D4D28783C
:1008100001F088FD0CA001F068FD00242819007982
:1008200001F080FD0CA001F060FD641CF6D00A20F0
:1008300001F050FD09490120087270BD5258444C26
:10084000454E3D00A4080020202052584649464FFE
:100850005B5D3D200000000020000000C808002073
:100860000F4A68B101280ED002280FD0032810D0FB
:10087000042811D0052812D1D2E9100101F0D3B813
:10088000D2E90601FAE7D2E90801F7E7D2E90A015D
:10089000F4E7D2E90C01F1E7D2E90E01EEE7704787
:1008A0001C0000202DE9F041154E04460D460120A4
:1008B0000022717807E0AB5C8F18FFB2BB4200D01A
:1008C0000020521CD2B2A242F5D301280BD00DA0B9
:1008D00001F00BFD0A2001F0FDFC0A2001F0FAFCFA
:1008E0000A2001F0F7FC641CE0B23070202801D926
:1008F000012030702878401C7070BDE8F081000045
:100900001C0000204552524F52202121212121213B
:1009100021212121212121212121212121212121C7
:1009200021212121212121212121212121212121B7
:1009300021212121212121212121212121212121A7
:10094000212120002DE9F041154E04460D460120DD
:100950000022F17807E0AB5C8F18FFB2BB4200D0F9
:100960000020521CD2B2A242F5D301280BD00DA018
:1009700001F0BBFC0A2001F0ADFC0A2001F0AAFC4A
:100980000A2001F0A7FC641CE0B2B070202801D955
:100990000120B0702878401CF070BDE8F0810000A4
:1009A0001C0000204552524F52202121212121219B
:1009B0002121212121212121212121212121212127
:1009C0002121212121212121212121212121212117
:1009D0002121212121212121212121212121212107
:1009E0002121200008B503460448006800901946FC
:1009F000009801F03DFC0028F9D008BD140000204B
:100A000002480521017000214160704770080020F4
:100A1000164910B504200870154C6068F8B92078A4
:100A2000E8B1207804280BD112A001F05EFC282048
:100A300001F078FC0A2001F04DFC4FF4806060600A
:100A4000207805280BD110A001F04FFC282001F0E0
:100A500069FC0A2001F03EFC4FF4A060606000F0E9
:100A6000B5F8BDE8104000F019B8000018000020EB
:100A70007008002035363032424C45202050545802
:100A800020202043483D000035363032424C45207E
:100A90002050525820202043483D000070B5414C62
:100AA000606840F20155A0F5A06004F10C0605282D
:100AB00031D2DFE800F0031731666D000021152008
:100AC00001F056FB0121032001F052FB002000F051
:100AD000A3FF3F21372001F04BFB00F0A1FF00F006
:100AE000B7FE53E0304904200870002000F094FF66
:100AF00001F016FB800604D400F02CFD307800F0E5
:100B0000F3FC0121152001F033FB01F0ABFBA060E9
:100B100040F20250606070BDFFF774FC0028FAD00C
:100B200001F001FB04464006F5D5204D6869401CE4
:100B3000686101F0F5FAC4F3420401F001FB1949C0
:100B4000343111F8040BFFF7FDFE19A001F0CDFBC5
:100B5000686901F0D4FB19A001F0C7FB204601F041
:100B6000E1FB19A001F0C1FBFFF74CFE01F0D8FA40
:100B70008006D0D400F0EEFC3078BDE8704000F084
:100B8000B3BC00F095FDA068142105E0656070BD60
:100B900000F08EFDA068C82101F06AFB0028F5D1A5
:100BA00070BD000070080020180000201C0000200C
:100BB0007061636B6574735F693D20002052585FFC
:100BC000505F4E4F3D000000202000002DE9F04115
:100BD0008B4C60688B4EA0F5806040F203474FF469
:100BE0007A7804F10C0507283DD2DFE800F00416FE
:100BF000303E6EF7FF008021032001F0B9FA00F0CB
:100C000027FE0021152001F0B3FA002000F004FFB8
:100C10000121372001F0ACFA24E00021152001F079
:100C2000A7FA00F0F6FE01F01DFBA06040F20240C2
:100C30006060002000F0F0FE262001F02FF900F0A7
:100C400007000128F8D1BDE8F04101F087BAA0689B
:100C5000502101F00DFB002805D000F0D4FE00204B
:100C600000F0DAFE6760BDE8F08101F059FA800615
:100C7000F9D401F055FA800614D4012000F094FC58
:100C80002878FFF7EDFD287848B1012807D0022821
:100C900005D0032803D0042801D0052802D1132051
:100CA00000F02EFC0021152001F062FAB0684045EA
:100CB00004DA00F0ABFEB068401CB060002000F029
:100CC000ABFE40F204406060CDE7FFF79BFB0028DD
:100CD000C9D001F028FA0746002000F09DFE4AA086
:100CE00001F003FB292001F0D9F801F01BFBF80605
:100CF00025D5F068401CF06045A001F0F6FAB06818
:100D000001F0FDFA43A001F0F0FAF06801F0F7FA03
:100D100043A001F0EAFA306901F0F1FA43A001F0D2
:100D2000E4FA142001F0BAF801F0FCFA0A2001F00C
:100D3000D1FA01F097FAA06040F206406060B80670
:100D400030D53069401C306131A001F0CEFAB06876
:100D500001F0D5FA2FA001F0C8FAF06801F0CFFA3F
:100D60002FA001F0C2FA306901F0C9FA0A2001F09F
:100D7000B1FA01F0D5F9C0060CD501206870002148
:100D8000152001F0F5F901F06DFAA06040F2054080
:100D9000606007E0B068404504DA00F037FEB068F4
:100DA000401CB06078068FD5154C343401F0B8F98A
:100DB000C00789D101F0C4F92078211DFFF772FD29
:100DC0001CA001F092FA287801F0ACFA1CA001F006
:100DD0008CFAFFF717FDE9E708E0FFE7A068642158
:100DE00001F046FA00287FF417AF3CE7A0686421C1
:100DF00001F03EFA0028F8D000F0FFFD32E70000D5
:100E0000700800201C000020727373693D200000F0
:100E100052543A0020204D41585F52543A0000008D
:100E2000202054585F44533A0000000020205254C0
:100E3000323A00007A7A7A5F706970653D0000008E
:100E400020200000074910B504200870064C05203A
:100E500020706078002803D1FFF7D2FD0120607078
:100E600010BD000018000020C808002019484021CB
:100E70004171102101710121C1710321817100F0C3
:100E8000E1F9154C012202212046FFF7E8FA002281
:100E900002212046FFF7E3FA012202212046FFF754
:100EA000DEFA002202212046FFF7D9FA01220221B0
:100EB0002046FFF7D4FA002202212046FFF7CFFA9E
:100EC00006490420087000F00BF8FFF7A1FDFFF7BA
:100ED000B9FFFAE71C00002000800B40180000203A
:100EE000D44910B50420087000F08AFD00F08BFD95
:100EF00000F080FD4021002001F03AF9002000F0D0
:100F00008BFD5C21022001F033F90021032001F068
:100F10002FF97021042001F02BF98021062001F027
:100F200027F95021072001F023F97F21082001F043
:100F30001FF92321092001F01BF900210A2001F0EB
:100F400017F903210B2001F013F92C210D2001F0DA
:100F50000FF901210E2001F00BF91C210F2001F0E7
:100F600007F92821102001F003F9B34841790279EB
:100F7000C07911430143112001F0FAF82021122019
:100F800001F0F6F81021132001F0F2F800211420EE
:100F900001F0EEF80021152001F0EAF81F211620DB
:100FA00001F0E6F8002000F037FD0021212001F0DB
:100FB000DFF80A21272001F0DBF83F212A2001F089
:100FC000D7F887212B2001F0D3F801212C2001F044
:100FD000CFF808212D2001F0CBF810212E2001F0B0
:100FE000C7F818212F2001F0C3F81C21302001F090
:100FF000BFF82021312001F0BBF83F21322001F061
:10100000B7F87221332001F0B3F87321342001F0D6
:10101000AFF87421352001F0ABF87521362001F0CE
:10102000A7F83F21372001F0A3F81021382001F064
:101030009FF80021392001F09BF8AF213A2001F000
:1010400097F801213C2001F093F804213D2001F0A4
:101050008FF8012000F0E0FC0821202001F088F842
:101060007121212001F084F81121222001F080F863
:101070002021232001F07CF80021242001F078F8C1
:101080000021252001F074F84021262001F070F89D
:101090000021272001F06CF84221282001F068F897
:1010A0000421292001F064F802212B2001F060F8CE
:1010B0000021312001F05CF80021322001F058F8C5
:1010C0000221332001F054F80321352001F050F8BB
:1010D000022000F0A1FC2C21212001F049F801217F
:1010E000262001F045F86621272001F041F8A021D3
:1010F000282001F03DF89321292001F039F8112131
:101100002A2001F035F813212B2001F031F81821A5
:101110002D2001F02DF8EF212E2001F029F8562185
:101120002F2001F025F80921302001F021F821219C
:10113000312001F01DF80821322001F019F8252195
:10114000332001F015F8CF21342001F011F83021BF
:10115000352001F00DF80421362001F009F8202196
:10116000382001F005F89021392001F001F85721CD
:101170003A2000F0FDFF57213B2000F0F9FF4B2102
:101180003C2000F0F5FF3F213D2000F0F1FF02215F
:101190003E2000F0EDFF032000F03EFC01212C205A
:1011A00000F0E6FF00212D2000F0E2FF40212E207C
:1011B00000F0DEFF0E212F2000F0DAFF4021392061
:1011C00000F0D6FF00213A2000F0D2FF1F213B2083
:1011D00000F0CEFF8B21332000F0CAFF022000F088
:1011E0001BFC0821202000F0C3FF0220FFF7FAFBC0
:1011F000012000F011FC57213D2000F0B9FF5D21D6
:101200003E2000F0B5FF35212A2000F0B1FF0BA0F1
:1012100001F06BF82A2000F041FEC007FAD108A0C7
:1012200001F063F800F04AF8BDE81040002000F03B
:10123000F3BB0000180000201C0000205052580092
:101240003132330070B500F037F80122202103203D
:10125000FEF7F2FF164C002220212046FFF7C9F8C6
:10126000002220212046FFF7E1F80122202120461C
:10127000FFF7D4F80122950329460320FEF7DCFF8F
:10128000002229462046FFF7B4F8002229462046CE
:10129000FFF7CCF8012229462046FFF7BFF800F0FF
:1012A0003BFA04490020087048600C31487070BD5A
:1012B00000600B407008002000F09AB91CB5244C67
:1012C000D4E9060100F0AFFB684600F06BFC21A0FA
:1012D00001F00BF80098000E01F024F80098C0F31C
:1012E000074001F01FF80098C0F3072001F01AF83A
:1012F0000098C0B201F016F89DF8040001F012F851
:101300000A2000F0E7FFD4E9080100F0CBFB6846B3
:1013100000F04CFC14A000F0E8FF0098000E01F073
:1013200001F80098C0F3074000F0FCFF0098C0F3FC
:10133000072000F0F7FF0098C0B200F0F3FF9DF81F
:10134000040000F0EFFF0A2000F0C4FF1CBD000005
:101350001C00002072656164207069706520302077
:10136000494420676574200072656164207069706B
:1013700065203120494420676574200000F00F008B
:101380000A2801D2303000E0373000F07DBF000085
:101390008EB000244FF4C81044F210114D4A0123BE
:1013A000FFF714F8FFF776F800B1FEE74A48006847
:1013B00044F62061B0FBF1F1484D2846FEF795FF59
:1013C00000212846FEF793FF01212846FEF783FF00
:1013D00001212846FEF775FF2920FFF74FF800226C
:1013E00080213F48FFF722F8052280210020FEF7E8
:1013F00023FF052210210020FEF71EFF05222021D9
:101400000020FEF719FF052240210020FEF714FFFF
:101410004FF48040CDE900040820CDE90204049493
:1014200005940694079407200894CDE909404FF0ED
:10143000402569462846FFF75CF801212846FFF75A
:10144000B3F801212846FFF74AF8AD1506222946D0
:101450000020FEF7F1FEAE00062231460020FEF726
:10146000EBFE4FF47A30ADF83440ADF836400B90D7
:10147000ADF83050C404ADF832600BA92046FFF738
:101480006BF903212046FFF75EF901220221204675
:10149000FFF792F9012211462046FFF78DF901224C
:1014A00000212046FFF795F9012211462046FFF75B
:1014B00090F92F20FEF7E2FF002201210320FEF722
:1014C000BBFE012211460748FEF793FFFFF7CEFC53
:1014D000FEE70000400001006C00002000600740B3
:1014E00000000B4000600B4010B5044C04F10802F2
:1014F000217900F017FBF420607010BD7C080020FB
:1015000010B5094C024604F108016068112A02D0A6
:10151000132A03D004E000F08BFA01E000F0C8FACF
:10152000F420607010BD00007C08002030B5084B2E
:1015300018700020596005E01D1812F8014B401C7E
:101540002C72C0B28842F7D3FF20587030BD000023
:101550007C08002030B5134D89B0E878401CC0B23B
:10156000E870052801D90020E8702879401CC0B235
:101570002871202801D90120287168796B46401C08
:10158000C2B26A710020297903E014181C54401C6F
:10159000C0B28842F9D31A46E878FFF7C7FF09B00E
:1015A00030BD00006400002030B5104A89B0002131
:1015B00030B11078401CC0B21070052800D91170ED
:1015C000117008462021517093786C465B1CDBB289
:1015D000937000229D18A554521CD2B28A42F9D3AE
:1015E0002246FFF7A3FF09B030BD000064000020D1
:1015F00010B52E4C012211462046FEF730FF002286
:1016000001210320FEF718FE012211462046FEF7B5
:10161000F0FE012202212046FEF721FF00220221D6
:101620000320FEF709FE012202212046FEF7E1FE1B
:10163000012204212046FEF712FF0022042103208C
:10164000FEF7FAFD012204212046FEF7D2FE002219
:1016500008212046FEF703FF002208210320FEF7A1
:10166000EBFD012208212046FEF7C3FE00221021D7
:101670002046FEF7F4FE002210210320FEF7DCFDD9
:10168000012210212046FEF7B4FE00224021204610
:10169000FEF7E5FE002240210320FEF7CDFD2046A7
:1016A0000122BDE810404021FEF7A3BE00600B40C0
:1016B00070B5FEF7A7FE00281FD000F034FD4006ED
:1016C0001BD50E4D00F02CFDC00716D1022000F0F6
:1016D000E5FBC0F3420400F033FD2878291DFFF735
:1016E00031F907A000F001FE204600F01BFE09A022
:1016F00000F0FBFDFFF786F8E4E770BDA4080020CA
:101700005F5F5F5F5F5F5F5F5F5F5F52585F505F0C
:101710004E4F3D002020000010B500220121042082
:10172000FEF78AFD002202210420FEF785FD042138
:1017300000220846FEF780FD002208210420FEF763
:101740007BFD002210210420FEF776FD00222021DF
:101750000420FEF771FD002240210420FEF76CFDFD
:10176000002280210420FEF767FD384C012211463B
:101770002046FEF73EFE012202212046FEF739FEFA
:10178000012204212046FEF734FE012208212046D2
:10179000FEF72FFE012210212046FEF72AFE01222D
:1017A00020212046FEF725FE012240212046FEF79B
:1017B00020FE012280212046FEF71BFE002201218F
:1017C0002046FEF74CFE002202212046FEF747FE8F
:1017D000002204212046FEF742FE00220821204676
:1017E000FEF73DFE002210212046FEF738FE0022C3
:1017F00020212046FEF733FE002240212046FEF73E
:101800002EFE002280212046FEF729FE0022022122
:101810002046FEF724FE012202212046FEF71FFE8D
:10182000002202212046FEF71AFE01220221204654
:10183000FEF715FE002202212046FEF710FE20468C
:101840000122BDE810400221FEF709BE00800B40D6
:101850007E21042000F08CBC70B5644E044600224A
:1018600008213046FEF7FBFD614D2878C00704D003
:10187000002201213046FEF7F2FD2878800704D5CA
:10188000002202213046FEF7EAFD2878400704D501
:10189000002204213046FEF7E2FD200601D5012298
:1018A00000E0002210213046FEF7D9FD0122082178
:1018B0003046FEF7D4FD002208213046FEF7CFFD6A
:1018C000600601D5012200E0002210213046FEF71B
:1018D000C6FD012208213046FEF7C1FD0022082185
:1018E0003046FEF7BCFDA00601D5012200E0002233
:1018F00010213046FEF7B3FD012208213046FEF7E5
:10190000AEFD002208213046FEF7A9FDE00601D514
:10191000012200E0002210213046FEF7A0FD012246
:1019200008213046FEF79BFD002208213046FEF7D5
:1019300096FD200701D5012200E00022102130464B
:10194000FEF78DFD012208213046FEF788FD0022BA
:1019500008213046FEF783FD600701D5012200E033
:10196000002210213046FEF77AFD01220821304680
:10197000FEF775FD002208213046FEF770FDA00736
:1019800001D5012200E0002210213046FEF767FD5C
:10199000012208213046FEF762FD00220821304670
:1019A000FEF75DFDE00701D0012200E000221021DA
:1019B0003046FEF754FD012208213046FEF74FFD68
:1019C000002208213046FEF74AFD0122114630462A
:1019D000FEF745FD012202213046FEF740FD30466C
:1019E000BDE8704001220421FEF739BD00600B40C4
:1019F000180000200820FFF72FBF0920FFF72CBF99
:101A00000A20FFF729BF0C20FFF726BF0E20FFF7A3
:101A100023BF0F20FFF720BF40F02000FFF71CBFBF
:101A20008920FFF719BF0A460146102000F0E2BBEB
:101A30002DE9F0410E4605002DD0184F0022082157
:101A40003846FEF70CFD164C2078C00704D0002263
:101A500001213846FEF703FD2078400704D5002217
:101A600004213846FEF7FBFC112000F077F9002432
:101A700003E0305D00F072F9641CAC42F9D301223E
:101A800011463846FEF7EBFC3846BDE8F04101222E
:101A90000421FEF7E4BCBDE8F081000000600B40CB
:101AA000180000200A460146122000F0A3BB0000E7
:101AB0002DE9F0410E4605002DD0184F00220821D7
:101AC0003846FEF7CCFC164C2078C00704D0002224
:101AD00001213846FEF7C3FC2078400704D50022D8
:101AE00004213846FEF7BBFC132000F037F9002430
:101AF00003E0305D00F032F9641CAC42F9D30122FE
:101B000011463846FEF7ABFC3846BDE8F0410122ED
:101B10000421FEF7A4BCBDE8F081000000600B408A
:101B2000180000202DE9F04116460D00804633D004
:101B30001A4F002208213846FEF791FC184C2078F5
:101B4000C00704D0002201213846FEF788FC207827
:101B5000400704D5002204213846FEF780FC08F136
:101B60001800C0B200F0FAF8202D00D9202500247A
:101B700004E0305D00F0F2F8641CE4B2AC42F8D34B
:101B8000012211463846FEF76AFC3846BDE8F041AE
:101B900001220421FEF763BCBDE8F08100600B4028
:101BA000180000200146902000F050BA0146922013
:101BB00000F04CBA2DE9F041664F0E4680460022F7
:101BC00008213846FEF74BFC634C2078C00704D050
:101BD000002201213846FEF742FC2078400704D558
:101BE000002204213846FEF73AFCBF2000F0B6F888
:101BF000FEF7A4FC012240213846FEF730FC002508
:101C000092E0002410213846FEF724FC012800D180
:101C10008024012208213846FEF721FC00220821F9
:101C20003846FEF71CFC10213846FEF713FC01284D
:101C300001D144F04004012208213846FEF70FFC90
:101C4000002208213846FEF70AFC10213846FEF72C
:101C500001FC012801D144F020040122082138466A
:101C6000FEF7FDFB002208213846FEF7F8FB1021A5
:101C70003846FEF7EFFB012801D144F010040122A1
:101C800008213846FEF7EBFB002208213846FEF714
:101C9000E6FB10213846FEF7DDFB012801D144F0B8
:101CA0000804012208213846FEF7D9FB002208214A
:101CB0003846FEF7D4FB10213846FEF7CBFB01284F
:101CC00001D144F00404012208213846FEF7C7FB85
:101CD000002208213846FEF7C2FB10213846FEF7E5
:101CE000B9FB012801D144F0020401220821384641
:101CF000FEF7B5FB002208213846FEF7B0FB1021A5
:101D00003846FEF7A7FB012801D144F00104012267
:101D100008213846FEF7A3FB002208213846FEF7CB
:101D20009EFB06F8014B6D1C4545FFF46AAFFEF7BC
:101D300025FC002240213846FEF791FB0122114686
:101D40003846FEF78CFB3846BDE8F04101220421FD
:101D5000FEF785BB00600B401800002070B50446FC
:101D60004D4D000601D5012200E000221021284639
:101D7000FEF775FB012208212846FEF770FB0022C2
:101D800008212846FEF76BFB600601D5012200E022
:101D9000002210212846FEF762FB01220821284676
:101DA000FEF75DFB002208212846FEF758FBA0063F
:101DB00001D5012200E0002210212846FEF74FFB4A
:101DC000012208212846FEF74AFB00220821284666
:101DD000FEF745FBE00601D5012200E000221021BC
:101DE0002846FEF73CFB012208212846FEF737FB78
:101DF000002208212846FEF732FB200701D50122E8
:101E000000E0002210212846FEF729FB01220821CC
:101E10002846FEF724FB002208212846FEF71FFB78
:101E2000600701D5012200E0002210212846FEF7BC
:101E300016FB012208212846FEF711FB002208218B
:101E40002846FEF70CFBA00701D5012200E0002286
:101E500010212846FEF703FB012208212846FEF741
:101E6000FEFA002208212846FEF7F9FAE00701D021
:101E7000012200E0002210212846FEF7F0FA01229C
:101E800008212846FEF7EBFA002208212846FEF733
:101E9000E6FA002070BD000000600B4070B5694D8F
:101EA0000646002208212846FEF7D9FA664C20781B
:101EB000C00704D0002201212846FEF7D0FA20787E
:101EC000800704D5002202212846FEF7C8FA2078B0
:101ED000400704D5002204212846FEF7C0FA46F048
:101EE000C000FFF73BFFFEF729FB012240212846F7
:101EF000FEF7B5FA002410212846FEF7ABFA0128B8
:101F000000D18024012208212846FEF7A8FA0022E9
:101F100008212846FEF7A3FA10212846FEF79AFA70
:101F2000012801D144F04004012208212846FEF78F
:101F300096FA002208212846FEF791FA1021284639
:101F4000FEF788FA012801D144F02004012208217B
:101F50002846FEF784FA002208212846FEF77FFA79
:101F600010212846FEF776FA012801D144F010042A
:101F7000012208212846FEF772FA0022082128468D
:101F8000FEF76DFA10212846FEF764FA012801D108
:101F900044F00804012208212846FEF760FA0022D6
:101FA00008212846FEF75BFA10212846FEF752FA70
:101FB000012801D144F00404012208212846FEF73B
:101FC0004EFA002208212846FEF749FA1021284639
:101FD000FEF740FA012801D144F002040122082151
:101FE0002846FEF73CFA002208212846FEF737FA79
:101FF00010212846FEF72EFA012801D144F00104F1
:10200000012208212846FEF72AFA00220821284644
:10201000FEF725FAFEF7B2FA002240212846FEF725
:102020001EFA012211462846FEF719FA0122022162
:102030002846FEF714FA012204212846FEF70FFA7B
:10204000204670BD00600B40180000202DE9F041D3
:10205000214D0C460646002208212846FEF7FFF9CE
:10206000002204212846FEF7FAF93046FFF776FEF3
:10207000FEF764FA012240212846FEF7F0F900F04D
:102080002DF8207100F02AF8804600F027F8074666
:1020900000F024F8064600F021F806EB002007EBDC
:1020A000002008EB00202060FEF768FA00224021A3
:1020B0002846FEF7D4F9012211462846FEF7CFF94B
:1020C000012202212846FEF7CAF92846BDE8F04160
:1020D00001220421FEF7C3B900600B402DE9F04155
:1020E00000240E4F8025264610213846FEF7B2F90F
:1020F000012800D12E43012208213846FEF7AFF90E
:10210000002208213846FEF7AAF9641C6D08E4B2E3
:10211000082CE9D33046BDE8F081000000600B4098
:102120000520FFF7BBBE10B50420FFF7B7FE040083
:1021300003D00146042000F01BF8204610BD00002B
:1021400070B50C20FFF7AAFE040004D0024D291D33
:10215000FFF730FD2C6070BDA408002010B50020F2
:10216000FFF75AFCBDE810402620FFF797BE00009D
:102170002DE9F0411D4D0E46074600220821284654
:10218000FEF76DF91A4C2078C00704D00022012117
:102190002846FEF764F92078800704D50022022142
:1021A0002846FEF75CF92078400704D50022042178
:1021B0002846FEF754F907F03F0040F04000FFF7D3
:1021C000CDFD3046FFF7CAFD012211462846FEF735
:1021D00046F9012202212846FEF741F92846BDE8CA
:1021E000F04101220421FEF73AB9000000600B40E3
:1021F000180000202DE9F041194D0C4616460746FF
:10220000002208212846FEF72AF900220421284648
:10221000FEF725F93846FFF7A1FDF0B2FFF79EFD66
:10222000E0B2FFF79BFDC4F30720FFF797FDC4F36F
:102230000740FFF793FD200EFFF790FD01221146A6
:102240002846FEF70CF9012202212846FEF707F97D
:102250002846BDE8F04101220421FEF700B9000044
:1022600000600B4001480068704700001400002027
:10227000044A404212681044884201D3012070474A
:10228000002070471400002070B505464FF08046CE
:102290000E4C04E0012202213046FEF78DFA606800
:1022A0002168401CC0F309008842F3D008486168E7
:1022B00045546068401CC0F3090060603046BDE8CA
:1022C000704001220221FEF777BA000004000020CE
:1022D0007000002010B50A2803D10D20FFF7D4FFAD
:1022E0000A20BDE81040FFF7CFBF10B5044602E05A
:1022F000641CFFF7C9FF20780028F9D110BD10B584
:102300000446C0F30730FFF739F8C4F30720FFF79E
:1023100035F8C4F30710FFF731F8E0B2BDE810401C
:10232000FFF72CB810B504460009FFF727F8204640
:10233000BDE81040FFF722B858230000000000203D
:1023400070000000E6070000C823000070000020B5
:10235000680A0000F607000000000000000000000E
:10236000000000000000000000000000000000006D
:10237000000000000000000000000000000000005D
:10238000000000000000000000000000EEF24AD152
:102390000700000023F6E1F27100000023F6E1F2ED
:1023A0007200000023F6E1F27300000023F6E1F270
:1023B0007400000023F6E1F275000000FF0520FF25
:0823C0000A20000000D8B80556
:04000005000001599D
:00000001FF
