:020000040000FA
:10000000D80A0020590100007B04000069040000A8
:1000100079040000F3020000CD070000FFFFFFFF9E
:10002000FFFFFFFFFFFFFFFFFFFFFFFFA505000032
:10003000F1030000FFFFFFFFDD040000A705000043
:10004000DF010000DF010000DF010000FFFFFFFF14
:10005000DF010000DF010000DF010000DF01000020
:10006000DF010000DF010000DF010000DF01000010
:10007000DF010000DF010000DF010000DF01000000
:10008000DF010000DF010000DF010000DF010000F0
:10009000DF010000DF010000DF010000DF010000E0
:1000A000DF010000DF010000FFFFFFFFDF010000B4
:1000B000DF010000DF010000DF010000DF010000C0
:1000C000DF010000DF010000DF010000DF010000B0
:1000D000DF010000FFFFFFFFFFFFFFFFFFFFFFFF4C
:1000E000FFFFFFFF9D020000DF010000DF010000B5
:1000F000DF010000DF010000DF0100008D060000CD
:100100002D070000DF010000DF010000DF0100001B
:10011000DF010000DF010000DF010000DF0100005F
:10012000DF010000DF010000DF010000DF0100004F
:10013000DF010000DF010000DF010000DF0100003F
:10014000DF010000DF010000DF010000DF0100002F
:10015000DF010000DF01000021488047214880477F
:100160002148004721480169002908D14169002937
:1001700005D18169002902D1C169002909D01C4833
:10018000C1680901090D00290FD001290DD00229EC
:100190000BD0BFF34F8F4FF0005016490160164946
:1001A0001448C860BFF34F8FFEE74FF0005001685E
:1001B0001048884200D0704710484FF0010101609C
:1001C0004FF000504FF0000101607047FEE7FEE77E
:1001D000FEE7FEE7FEE7FEE7FEE7FEE7FEE7FEE7F7
:1001E00065010000A90500000102000000030840AD
:1001F000800108400400FA0500ED00E0008108409D
:10020000DFF80CD000F006F8004800479D1300000E
:10021000D80A0020064C074D06E0E06840F00103D4
:1002200094E8070098471034AC42F6D3FFF7ECFF90
:10023000841E0000A41E00002DE9F0479146164AD6
:100240004FF0FF0A02EBC005002200240AFA02F078
:100250002346084219D04FF0010C00200CFA02FC92
:100260004FF00F0821FA00F616EA0C0F06D08600B0
:1002700008FA06F73C4309FA06F73B43401C0828F6
:10028000F0D32868A0431843286008322D1D082A9F
:10029000DBDDBDE8F0870000202002400348016854
:1002A000491C0160024800F005B80000140000205D
:1002B00000600740416821F001014160BFF34F8FAA
:1002C00070470029016802D041F0040101E021F0EB
:1002D0000401016070470029016802D041F001016A
:1002E00001E021F0010101607047C1607047816049
:1002F0007047FEE770B5164D0446686B00F00706C0
:1003000000F02AF813492060082E1AD2DFE806F020
:100310001904060619191316606001E008466160A9
:10032000296AC840A060A96AC1F3024107290AD01E
:10033000C840E06070BD4FF40040EDE74FF4FA4074
:10034000EAE70020E8E70621B0FBF1F0F1E7000062
:100350000080084000127A000C49D1F8A40000285F
:1003600013D0086A0A48D1F8FC1301290DD0094AB4
:100370009169C1F3C45101B940219269C2F341535B
:1003800001229A40B0FBF2F048437047000010434E
:1003900000127A00008008401FB50B4A410902EBA9
:1003A000810200212E2800D1022100F01F001268D6
:1003B000032383401A40C24054186846FFF79AFF4F
:1003C000029804B0E04010BD38800840F0B5074FF7
:1003D0007C6AFD6A3E6B84438D43964313B10443AC
:1003E0000D4316437C62FD623E63F0BD0080084011
:1003F0007047002A026801D00A4300E08A43026085
:100400007047000010B52021034800F023F808B120
:10041000002010BD012010BD00600B40002A426882
:1004200001D00A4300E08A434260704742B1012A8A
:1004300009D082688A438260C2688A43C26070477A
:1004400082680A43F7E7C2680A43C26082688A4347
:1004500082607047C069084000D0012070470AB12F
:100460004162704781627047024801680029FCD0F0
:100470007047000000000020FEE7704700F01F02F8
:10048000012191404009800000F1E020C0F80011F6
:10049000704700000F4A0E480121C2F800130E49B0
:1004A00003E0D1F80821272A03D0401EF9D101200A
:1004B0007047D1F82402D1F82432C043C1F8240295
:1004C000D1F824228242F9D1C1F8243200207047A9
:1004D000006CDC020080084000A006407047002944
:1004E000016802D041F0010101E021F00101016049
:1004F000704730B5D1E90543E4B14FF40072DA40FA
:1005000022438C680B682343D1E903452C432343E2
:10051000CC692343134343604B6A4A681A430B6A0E
:1005200042EA03128261896A4FF0FF3202EB510105
:10053000C16030BD4FF480729A40E2E710B50122ED
:1005400002210320FFF778FE084C002202212046FA
:10055000FFF74FFF002202212046FFF767FF2046EA
:100560000122BDE810400221FFF758BF00600B4098
:10057000012240210148FFF772BF000000600B40DC
:10058000002240210148FFF76ABF000000600B40D5
:100590000029016802D041F0080101E021F00801C2
:1005A0000160704770477047F0B532491020C1F8BC
:1005B0000C01314E012333603048D0F80821272A3E
:1005C000FBD14A6A22F440624A622D4AC2F8AC303A
:1005D000D2F80C41002CFBD04C6824F00704E41C3A
:1005E0004C604C6B04F00704032CFAD1254DD5F870
:1005F000004224F00704641CC5F8004200240C6289
:10060000C2F8A4401362C2F88C405362D0F804715F
:1006100047F03007C0F80471D0F804716FEA17177B
:10062000BF07F3D1C2F8A830D2F808010028FBD0E8
:10063000346014624FF0C0608861C2F8A430D2F810
:1006400004010028FBD0D5F8000220F00700001DAF
:10065000C5F800020C62486820F00700401C4860A2
:10066000486B00F007000128FAD1074803610363D3
:10067000C361F0BD008008401806104300A006408A
:100680000000104300000840004000432DE9F04105
:100690008021CE05304600F04EF8F8B11D4F386885
:1006A0001D4D2968884205D100220221304600F004
:1006B00077F813E0DFF8648000242968304618F8E2
:1006C000011000F078F82888401CC0F30900286069
:1006D0003968814202D0641C082CEED320213046B8
:1006E00000F029F8002813D00D4C2168491CC1F3F3
:1006F00009000C49096888420AD0304600F058F8D1
:100700000949226888542068401CC0F30900206011
:10071000BDE8F081080000200400002070000020E7
:10072000100000200C000020700400207047826838
:100730000A43826070470069084000D0012070477A
:1007400070B504460D46C8888988626808432989BF
:1007500041F603739A431143084369890843606073
:10076000B4F1804F0AD00B48844209D11A20FFF718
:1007700013FE2968B0FBF1F0606270BD1820F6E747
:100780000548844201D11C20F1E704488442F4D199
:100790001E20ECE700000440001000400010044060
:1007A000002AC26801D00A4300E08A43C260704751
:1007B000006880B270470160704710238B40416829
:1007C0000AB1194300E0994341607047FEE702E037
:1007D00008C8121F08C1002AFAD1704770470020CC
:1007E00001E001C1121F002AFBD1704770B50DA0B6
:1007F00001F021FB0D4D287801F03AFB0CA001F02F
:100800001AFB00242819007901F032FB0CA001F03A
:1008100012FB641CF6D00A2001F002FB09490120FA
:10082000087270BD5258444C454E3D00A40800204B
:10083000202052584649464F5B5D3D200000000095
:1008400020000000C80800200F4A68B101280ED01F
:1008500002280FD0032810D0042811D0052812D167
:10086000D2E9100101F051B8D2E90601FAE7D2E964
:100870000801F7E7D2E90A01F4E7D2E90C01F1E750
:10088000D2E90E01EEE770471C0000202DE9F0418F
:10089000154E04460D4601200022717807E0AB5C3E
:1008A0008F18FFB2BB4200D00020521CD2B2A2422D
:1008B000F5D301280BD00DA001F0BDFA0A2001F0FC
:1008C000AFFA0A2001F0ACFA0A2001F0A9FA641C80
:1008D000E0B23070202801D9012030702878401C07
:1008E0007070BDE8F08100001C0000204552524F9E
:1008F00052202121212121212121212121212121B8
:1009000021212121212121212121212121212121D7
:1009100021212121212121212121212121212121C7
:100920002121212121212121212120002DE9F04116
:10093000154E04460D4601200022F17807E0AB5C1D
:100940008F18FFB2BB4200D00020521CD2B2A2428C
:10095000F5D301280BD00DA001F06DFA0A2001F0AB
:100960005FFA0A2001F05CFA0A2001F059FA641CCF
:10097000E0B2B070202801D90120B0702878401C66
:10098000F070BDE8F08100001C0000204552524F7D
:100990005220212121212121212121212121212117
:1009A0002121212121212121212121212121212137
:1009B0002121212121212121212121212121212127
:1009C00021212121212121212121200008B50346B7
:1009D0000448006800901946009801F0EFF90028DB
:1009E000F9D008BD14000020024805210170002143
:1009F0004160704770080020024804210170002106
:100A00004160704770080020164910B50420087036
:100A1000154C6068F8B92078E8B1207804280BD12B
:100A200012A001F008FA282001F022FA0A2001F0B1
:100A3000F7F94FF480606060207805280BD110A092
:100A400001F0F9F9282001F013FA0A2001F0E8F981
:100A50004FF4A060606000F0B5F8BDE8104000F011
:100A600019B8000018000020700800203536303218
:100A7000424C45202050545820202043483D00003F
:100A800035363032424C45202050525820202043E9
:100A9000483D000070B5414C606840F20155A0F53A
:100AA000A06004F10C06052831D2DFE800F003173E
:100AB00031666D000021152001F000F901210320AD
:100AC00001F0FCF8002000F019FF3F21372001F071
:100AD000F5F800F017FF00F0C1FE53E030490420A4
:100AE0000870002000F00AFF01F0C0F8800604D46E
:100AF00000F036FD307800F0FDFC0121152001F0FA
:100B0000DDF801F055F9A06040F20250606070BD60
:100B1000FFF778FC0028FAD001F0ABF80446400655
:100B2000F5D5204D6869401C686101F09FF8C4F359
:100B3000420401F0ABF81949343111F8040BFFF706
:100B4000F5FE19A001F077F9686901F07EF919A0A6
:100B500001F071F9204601F08BF919A001F06BF951
:100B6000FFF744FE01F082F88006D0D400F0F8FCD4
:100B70003078BDE8704000F0BDBC00F09FFDA0687B
:100B8000142105E0656070BD00F098FDA068C821E3
:100B900001F014F90028F5D170BD000070080020A4
:100BA000180000201C0000207061636B6574735F87
:100BB000693D20002052585F505F4E4F3D000000BD
:100BC000202000002DE9F0478D4C60688D4EA0F587
:100BD00080604FF0010840F203474FF47A7904F146
:100BE0000C0507283DD2DFE800F00416303E6EF712
:100BF000F5008021032001F061F800F02FFE0021B4
:100C0000152001F05BF8002000F078FE012137206C
:100C100001F054F824E00021152001F04FF800F015
:100C20006AFE01F0C5F8A06040F20240606000205A
:100C300000F064FE262000F07FFF00F0070001288E
:100C4000F8D1BDE8F04701F02FB8A068502101F0BD
:100C5000B5F8002805D000F048FE002000F04EFE58
:100C60006760BDE8F08701F001F88006F9D400F074
:100C7000FDFF800614D4012000F09CFC2878FFF7CB
:100C8000E3FD287848B1012807D0022805D00328C1
:100C900003D0042801D0052802D1132000F036FC2F
:100CA0000021152001F00AF8B068484504DA00F088
:100CB0001FFEB068401CB060002000F01FFE40F234
:100CC00004406060CDE7FFF79DFB0028C9D000F02D
:100CD000D0FF0746002000F011FE4BA001F0ABF85A
:100CE000292000F029FF01F0C3F8F80625D5F068A7
:100CF000401CF06046A001F09EF8B06801F0A5F835
:100D000044A001F098F8F06801F09FF844A001F0C9
:100D100092F8306901F099F844A001F08CF81420A1
:100D200000F00AFF01F0A4F80A2001F079F801F0C0
:100D30003FF8A06040F206406060B80630D53069E8
:100D4000401C306132A001F076F8B06801F07DF807
:100D500030A001F070F8F06801F077F830A001F0F1
:100D60006AF8306901F071F80A2001F059F800F0D2
:100D70007DFFC0060CD585F801800021152000F00C
:100D80009DFF01F015F8A06040F20540606007E0AB
:100D9000B068484504DA00F0ABFDB068401CB060B4
:100DA00078068FD5164C343400F060FFC00789D127
:100DB00000F06CFF2078211DFFF768FD1DA001F0F9
:100DC0003AF8287801F054F81DA001F034F8FFF744
:100DD0000DFDE9E70AE0FFE7A068642100F0EEFFFF
:100DE00000283FF46FAFC6F8088039E7A068642197
:100DF00000F0E4FF0028F4D000F071FD30E70000BF
:100E0000700800201C000020727373693D200000F0
:100E100052543A0020204D41585F52543A0000008D
:100E2000202054585F44533A0000000020205254C0
:100E3000323A00007A7A7A5F706970653D0000008E
:100E40002020000070B50A4904200870094D287060
:100E5000687800280BD1FFF7CFFD01246C7028784B
:100E6000052804D1200002D1FFF7BEFD6C7070BDD3
:100E700018000020C8080020194880214171202155
:100E800001710021C1710321817100F0DBF9154C62
:100E9000012202212046FFF7E2FA00220221204629
:100EA000FFF7DDFA012202212046FFF7D8FA0022DF
:100EB00002212046FFF7D3FA012202212046FFF744
:100EC000CEFA002202212046FFF7C9FA0649042083
:100ED000087000F00BF8FFF797FDFFF7B3FFFAE794
:100EE0001C00002000800B4018000020D24910B5E3
:100EF0000420087000F0F6FC00F0F7FC00F0ECFCB9
:100F00004021002000F0DAFE002000F0F7FC5C2118
:100F1000022000F0D3FE0021032000F0CFFE70215C
:100F2000042000F0CBFEA821062000F0C7FE10210F
:100F3000072000F0C3FE7F21082000F0BFFE232120
:100F4000092000F0BBFE00210A2000F0B7FE0321BB
:100F50000B2000F0B3FE2C210D2000F0AFFE01218C
:100F60000E2000F0ABFE1C210F2000F0A7FE282170
:100F7000102000F0A3FEB14841790279C0791143F5
:100F80000143112000F09AFE2021122000F096FE6D
:100F90001021132000F092FE0021142000F08EFE9C
:100FA0000021152000F08AFE1F21162000F086FE89
:100FB000002000F0A3FC0021212000F07FFE0A2188
:100FC000272000F07BFE3F212A2000F077FE8721BA
:100FD0002B2000F073FE01212C2000F06FFE082171
:100FE0002D2000F06BFE10212E2000F067FE18214E
:100FF0002F2000F063FE1C21302000F05FFE202136
:10100000312000F05BFE3F21322000F057FE7221BC
:10101000332000F053FE7321342000F04FFE742182
:10102000352000F04BFE7521362000F047FE0121EF
:10103000372000F043FE1021382000F03FFE002151
:10104000392000F03BFEAF213A2000F037FE0021AE
:101050003C2000F033FE04213D2000F02FFE012053
:1010600000F04CFC0821202000F028FE71212120F6
:1010700000F024FE1121222000F020FE1A2123205E
:1010800000F01CFE0021242000F018FE0021252085
:1010900000F014FE4021262000F010FE0021272041
:1010A00000F00CFE4221282000F008FE0421292037
:1010B00000F004FE02212B2000F000FE042131206C
:1010C00000F0FCFD0021322000F0F8FD0221332069
:1010D00000F0F4FD0321352000F0F0FD022000F0C7
:1010E0000DFC2C21212000F0E9FD0121262000F03B
:1010F000E5FDAA21272000F0E1FDA321282000F032
:10110000DDFD9321292000F0D9FD11212A2000F0D6
:10111000D5FD13212B2000F0D1FD18212D2000F04A
:10112000CDFDEF212E2000F0C9FD56212F2000F02B
:10113000C5FD0921302000F0C1FD2121312000F042
:10114000BDFD0821322000F0B9FD2521332000F03B
:10115000B5FDCF21342000F0B1FD3021352000F065
:10116000ADFD0221362000F0A9FD2021382000F03D
:10117000A5FD9021392000F0A1FD57213A2000F073
:101180009DFD57213B2000F099FD4B213C2000F0B4
:1011900095FD3A213D2000F091FD02213E2000F016
:1011A0008DFD032000F0AAFB01212C2000F086FD1C
:1011B00000212D2000F082FD40212E2000F07EFD38
:1011C00018212F2000F07AFD4021392000F076FD13
:1011D00000213A2000F072FD1F213B2000F06EFD3F
:1011E0008621332000F06AFD022000F087FB0821F1
:1011F000202000F063FD0220FFF7E8FB012000F053
:101200007DFB50213D2000F059FD5D213E2000F086
:1012100055FD34212A2000F051FD09A000F00BFEFD
:101220002A2000F089FCC007FAD100F04DF8BDE893
:101230001040002000F062BB180000201C000020BD
:101240005054580070B500F037F8012220210320D7
:10125000FEF7F2FF164C002220212046FFF7C9F8C6
:10126000002220212046FFF7E1F80122202120461C
:10127000FFF7D4F80122950329460320FEF7DCFF8F
:10128000002229462046FFF7B4F8002229462046CE
:10129000FFF7CCF8012229462046FFF7BFF800F0FF
:1012A00041FA04490020087048600C31487070BD54
:1012B00000600B407008002010B500F09FF9BDE8F9
:1012C0001040FFF73BB900001CB5244CD4E90601DF
:1012D00000F01BFB684600F0D7FB21A000F0ABFD3F
:1012E0000098000E00F0C4FD0098C0F3074000F025
:1012F000BFFD0098C0F3072000F0BAFD0098C0B20F
:1013000000F0B6FD9DF8040000F0B2FD0A2000F0E8
:1013100087FDD4E9080100F037FB684600F0B8FB10
:1013200014A000F088FD0098000E00F0A1FD0098C8
:10133000C0F3074000F09CFD0098C0F3072000F0C8
:1013400097FD0098C0B200F093FD9DF8040000F0F6
:101350008FFD0A2000F064FD1CBD00001C00002071
:10136000726561642070697065203020494420678F
:101370006574200072656164207069706520312099
:10138000494420676574200000F00F000A2801D24C
:10139000303000E0373000F01DBD00008EB000247A
:1013A0004FF4C81044F210114D4A0123FFF70EF814
:1013B000FFF770F800B1FEE74A48006844F6206184
:1013C000B0FBF1F1484D2846FEF78FFF002128467B
:1013D000FEF78DFF01212846FEF77DFF01212846FB
:1013E000FEF76FFF2920FFF749F8002280213F48D0
:1013F000FFF71CF8052280210020FEF71DFF0522C3
:1014000010210020FEF718FF052220210020FEF702
:1014100013FF052240210020FEF70EFF4FF480400D
:10142000CDE900040820CDE9020404940594069453
:10143000079407200894CDE909404FF040256946FC
:101440002846FFF756F801212846FFF7A1F80121A9
:101450002846FFF744F8AD15062229460020FEF77E
:10146000EBFEAE00062231460020FEF7E5FE4FF40B
:101470007A30ADF83440ADF836400B90ADF83050CE
:10148000C404ADF832600BA92046FFF759F90321D7
:101490002046FFF74CF9012202212046FFF780F990
:1014A000012211462046FFF77BF901220021204648
:1014B000FFF783F9012211462046FFF77EF92F201E
:1014C000FEF7DCFF002201210320FEF7B5FE01221A
:1014D00011460748FEF78DFFFFF7CEFCFEE7000040
:1014E000400001006C0000200060074000000B403D
:1014F00000600B4010B5044C04F10802217900F0A3
:1015000083FAF420607010BD7C08002010B5094CEF
:10151000024604F108016068112A02D0132A03D0A0
:1015200004E000F0F7F901E000F034FAF420607014
:1015300010BD00007C08002030B5084B187000205A
:10154000596005E01D1812F8014B401C2C72C0B206
:101550008842F7D3FF20587030BD00007C0800207F
:1015600030B5134D89B0E878401CC0B2E87005284A
:1015700001D90020E8702879401CC0B228712028C9
:1015800001D90120287168796B46401CC2B26A718A
:101590000020297903E014181C54401CC0B2884272
:1015A000F9D31A46E878FFF7C7FF09B030BD00004D
:1015B0006400002030B5104A89B0002130B11078A5
:1015C000401CC0B21070052800D911701170084677
:1015D0002021517093786C465B1CDBB29370002223
:1015E0009D18A554521CD2B28A42F9D32246FFF765
:1015F000A3FF09B030BD00006400002010B52E4CE0
:10160000012211462046FEF72AFF00220121032075
:10161000FEF712FE012211462046FEF7EAFE0122E5
:1016200002212046FEF71BFF002202210320FEF7C5
:1016300003FE012202212046FEF7DBFE01220421E7
:101640002046FEF70CFF002204210320FEF7F4FDE4
:10165000012204212046FEF7CCFE0022082120466C
:10166000FEF7FDFE002208210320FEF7E5FD012222
:1016700008212046FEF7BDFE002210212046FEF77D
:10168000EEFE002210210320FEF7D6FD01221021DC
:101690002046FEF7AEFE002240212046FEF7DFFE88
:1016A000002240210320FEF7C7FD20460122BDE8AD
:1016B00010404021FEF79DBE00600B4070B5FEF764
:1016C000A1FE00281FD000F0D4FA40061BD50E4D15
:1016D00000F0CCFAC00716D1022000F02DFAC0F3BA
:1016E000420400F0D3FA2878291DFFF71FF907A05C
:1016F00000F0A1FB204600F0BBFB09A000F09BFB23
:10170000FFF774F8E4E770BDA40800205F5F5F5F37
:101710005F5F5F5F5F5F5F52585F505F4E4F3D009E
:101720002020000010B5002201210420FEF784FDD6
:10173000002202210420FEF77FFD0421002208463A
:10174000FEF77AFD002208210420FEF775FD002235
:1017500010210420FEF770FD002220210420FEF756
:101760006BFD002240210420FEF766FD002280214F
:101770000420FEF761FD384C012211462046FEF799
:1017800038FE012202212046FEF733FE0122042109
:101790002046FEF72EFE012208212046FEF729FEF4
:1017A000012210212046FEF724FE0122202120469E
:1017B000FEF71FFE012240212046FEF71AFE0122FD
:1017C00080212046FEF715FE002201212046FEF76B
:1017D00046FE002202212046FEF741FE002204219F
:1017E0002046FEF73CFE002208212046FEF737FE89
:1017F000002210212046FEF732FE00222021204642
:10180000FEF72DFE002240212046FEF728FE002292
:1018100080212046FEF723FE002202212046FEF70B
:101820001EFE012202212046FEF719FE002202219F
:101830002046FEF714FE012202212046FEF70FFE8D
:10184000002202212046FEF70AFE20460122BDE8C2
:1018500010400221FEF703BE00800B407E210420D1
:1018600000F02CBA70B51A4D064600220821284611
:10187000FEF7F5FD174C2078C00704D000220121A7
:101880002846FEF7ECFD2078800704D500220221CF
:101890002846FEF7E4FD2078400704D50022042105
:1018A0002846FEF7DCFD304600F03CF901221146E7
:1018B0002846FEF7D4FD012202212846FEF7CFFD7F
:1018C0002846BDE8704001220421FEF7C8BD000093
:1018D00000600B40180000200820FFF7C3BF09205C
:1018E000FFF7C0BF0A20FFF7BDBF0C20FFF7BABF4C
:1018F0000E20FFF7B7BF0F20FFF7B4BF40F0200066
:10190000FFF7B0BF8920FFF7ADBF0A4601461020A0
:1019100000F016BA2DE9F0410E4605002DD0184F03
:10192000002208213846FEF79AFD164C2078C007A1
:1019300004D0002201213846FEF791FD20784007AF
:1019400004D5002204213846FEF789FD112000F05D
:10195000E9F8002403E0305D00F0E4F8641CAC42D8
:10196000F9D3012211463846FEF779FD3846BDE825
:10197000F04101220421FEF772BDBDE8F0810000B4
:1019800000600B40180000200A460146122000F0BB
:10199000D7B900002DE9F0410E4605002DD0184FB3
:1019A000002208213846FEF75AFD164C2078C00761
:1019B00004D0002201213846FEF751FD207840076F
:1019C00004D5002204213846FEF749FD132000F01B
:1019D000A9F8002403E0305D00F0A4F8641CAC42D8
:1019E000F9D3012211463846FEF739FD3846BDE8E5
:1019F000F04101220421FEF732BDBDE8F081000074
:101A000000600B40180000202DE9F04116460D0043
:101A1000804633D01A4F002208213846FEF71FFDBA
:101A2000184C2078C00704D0002201213846FEF768
:101A300016FD2078400704D5002204213846FEF721
:101A40000EFD08F11800C0B200F06CF8202D00D98E
:101A50002025002404E0305D00F064F8641CE4B24A
:101A6000AC42F8D3012211463846FEF7F8FC38465E
:101A7000BDE8F04101220421FEF7F1BCBDE8F08190
:101A800000600B40180000200146902000F0A0B834
:101A90000146922000F09CB82DE9F0411F4F0D4601
:101AA0000646002208213846FEF7D9FC1C4C207857
:101AB000C00704D0002201213846FEF7D0FC207870
:101AC000400704D5002204213846FEF7C8FCBF2099
:101AD00000F028F8FEF74CFD012240213846FEF7C1
:101AE000BEFC002405E0002000F01CF805F8010B06
:101AF000641CB442F7D3FEF743FD00224021384670
:101B0000FEF7ADFC012211463846FEF7A8FC384628
:101B1000BDE8F04101220421FEF7A1BC00600B40AA
:101B2000180000204FF04021086148698007FCD56B
:101B30000869C0B27047000070B5234D0646002208
:101B400008212846FEF78BFC204C2078C00704D0E3
:101B5000002201212846FEF782FC2078800704D568
:101B6000002202212846FEF77AFC2078400704D59F
:101B7000002204212846FEF772FC46F0C000FFF761
:101B8000D1FFFEF7F5FC012240212846FEF767FC55
:101B90000020FFF7C7FF0446FEF7F2FC00224021B9
:101BA0002846FEF75CFC012211462846FEF757FC4A
:101BB000012202212846FEF752FC01220421284678
:101BC000FEF74DFC204670BD00600B401800002061
:101BD0002DE9F041244D0C460646002208212846F6
:101BE000FEF73DFC002204212846FEF738FC304673
:101BF000FFF798FFFEF7BCFC012240212846FEF7C4
:101C00002EFC0020FFF78EFF20710020FFF78AFFD7
:101C100080460020FFF786FF07460020FFF782FF7F
:101C200006460020FFF77EFF06EB002007EB0020B2
:101C300008EB00202060FEF7A3FC0022402128468C
:101C4000FEF70DFC012211462846FEF708FC012292
:101C500002212846FEF703FC2846BDE8F041012298
:101C60000421FEF7FCBB000000600B400520FFF7DD
:101C700063BF10B50420FFF75FFF040003D00146E7
:101C8000042000F01BF8204610BD000070B50C20A9
:101C9000FFF752FF040004D0024D291DFFF7FCFEA0
:101CA0002C6070BDA408002010B50020FFF726FEB0
:101CB000BDE810402620FFF73FBF00002DE9F041AE
:101CC0001D4D0E460746002208212846FEF7C7FB99
:101CD0001A4C2078C00704D0002201212846FEF7C4
:101CE000BEFB2078800704D5002202212846FEF79B
:101CF000B6FB2078400704D5002204212846FEF7D1
:101D0000AEFB07F03F0040F04000FFF70BFF30460E
:101D1000FFF708FF012211462846FEF7A0FB01222B
:101D200002212846FEF79BFB2846BDE8F041012230
:101D30000421FEF794BB000000600B401800002057
:101D40002DE9F041194D0C461646074600220821A0
:101D50002846FEF784FB002204212846FEF77FFB7D
:101D60003846FFF7DFFEF0B2FFF7DCFEE0B2FFF728
:101D7000D9FEC4F30720FFF7D5FEC4F30740FFF7F1
:101D8000D1FE200EFFF7CEFE012211462846FEF7B7
:101D900066FB012202212846FEF761FB2846BDE8CA
:101DA000F04101220421FEF75ABB000000600B4005
:101DB000014800687047000014000020044A4042B7
:101DC00012681044884201D30120704700207047F8
:101DD0001400002070B505464FF080460E4C04E01C
:101DE000012202213046FEF7DBFC60682168401CBE
:101DF000C0F309008842F3D0084861684554606820
:101E0000401CC0F3090060603046BDE8704001220C
:101E10000221FEF7C5BC0000040000207000002075
:101E200010B50A2803D10D20FFF7D4FF0A20BDE822
:101E30001040FFF7CFBF10B5044602E0641CFFF767
:101E4000C9FF20780028F9D110BD10B50446C0F3B1
:101E50000730FFF799FAC4F30720FFF795FAC4F3A8
:101E60000710FFF791FAE0B2BDE81040FFF78CBA17
:101E700010B504460009FFF787FA2046BDE8104078
:101E8000FFF782BAA41E00000000002070000000CE
:101E9000CE070000141F000070000020680A000038
:101EA000DE0700000000000000000000000000004D
:101EB0000000000000000000000000000000000022
:101EC0000000000000000000000000000000000012
:101ED0000000000000000000EEF24AD10700000000
:101EE00023F6E1F27100000023F6E1F27200000037
:101EF00023F6E1F27300000023F6E1F27400000023
:101F000023F6E1F275000000FF0520FF0A20000023
:041F100000D8B80538
:04000005000001599D
:00000001FF
