:020000040000FA
:1000000090050020C10000006106000051060000BC
:10001000FFFFFFFFFFFFFFFFFFFFFFFFFFFFFFFFF0
:10002000FFFFFFFFFFFFFFFFFFFFFFFF01070000D4
:10003000FFFFFFFFFFFFFFFF910600000307000027
:1000400035010000350100003501000035010000D8
:1000500035010000350100003501000035010000C8
:1000600035010000FFFFFFFF3501000035010000F2
:10007000350100003501000035010000FFFFFFFFE2
:10008000FFFFFFFF210200003501000035010000E5
:100090003501000035010000350100003501000088
:1000A000ED070000350100003501000035010000BA
:1000B0003501000035010000350100003501000068
:1000C0001D4880471D4880471D4800471D4801695D
:1000D000002908D14169002905D18169002902D18F
:1000E000C169002909D01848C1680901090D002912
:1000F0000ED005290CD006290AD0BFF34F8F134824
:100100001349016013491248C860BFF34F8FFEE7DF
:100110000E4801680E48884200D070470E480F49CB
:1001200001600A480E4901607047FEE7FEE7FEE7FE
:10013000FEE7FEE7FEE70000CD0000000507000037
:100140006501000000030840800108400000002015
:100150000400FA0500ED00E0008108400100000005
:10016000000000000348854600F01CF800480047E6
:10017000050E00009005002030B50B46014600201A
:100180002022012409E00D46D5409D4205D31D469D
:100190009540491B2546954040191546521E002D95
:1001A000F1DC30BD064C0125064E05E0E36807CCC6
:1001B0002B430C3C98471034B442F7D3FFF7D6FFDB
:1001C0002C1500004C150000F0B596460A46134960
:1001D000C000461800230025FF2098402C461042FE
:1001E00016D00020012199408C461146C140674637
:1001F000394206D087000F21B9400D437146B940FE
:100200000C43401C0828F0D33068A84320433060DA
:100210000833361D082BDEDDF0BD00002020024033
:1002200010B504480168491C0160034800F006F855
:1002300010BD00004C0000200060074041684908E4
:1002400049004160BFF34F8F7047042200290168C5
:1002500001D0114300E0914301607047002901681B
:1002600002D00122114301E04908490001607047B2
:10027000C16070478160704770B5184D0446686B67
:100280004607760F00F02EF815492060330000F085
:100290008FFC081405070714140E1114606000E0A9
:1002A0006160296A6068052909D3400908E00120D6
:1002B000C003F3E77D200002F0E70020EEE7C8402E
:1002C000A060A96A4903490F072902D0C840E0602D
:1002D00070BD0321FFF750FFF9E7000000800840E0
:1002E00000127A000C490868C869C20F4868400AC1
:1002F000C007C00F0ED00948002A0BD18869C00D75
:100300000007000F00D110208969044A4902890FB3
:100310005043C840704700000080084000127A0037
:100320001FB541090A4A89008A1800212E2800D1E8
:100330000221C006C00E1268032383401A40C24047
:1003400054186846FFF798FF029804B0E04010BDCB
:1003500038800840F0B5084F7C6AFD6A3E6B8443E4
:100360008D439643002B02D004430D4316437C6219
:10037000FD623E63F0BD000000800840F8B50A2031
:1003800001F0A4F884A001F0A2F8532001F0B5F820
:100390000A2001F09BF88648027A0123102153209D
:1003A00000F058FE01228349002000F003FE0420E3
:1003B00000F00CFF022000F033FE032000F0D4FE1A
:1003C0007D4D0020E8602861686130206871012659
:1003D0002E71774C00202C3404E0697909182154DF
:1003E000401CC0B229798842F7D36879401C6871F3
:1003F0002A796F4900202C3100F062FF00F025FEC1
:10040000C00714D12879401CC0B22871202801D916
:1004100001202871664A00202C3204E0697909180D
:100420001154401CC0B229798842DED2F6E701207F
:1004300001F008F800260421604800F0FEF80028CA
:10044000F9D100F002FE04468006800F01D160065B
:10045000F7D5E0060ED51021072000F023FF0A2073
:1004600001F034F8002000F04FFC7D20E968C00066
:1004700081420CD2A00622D50A2001F027F80120E3
:1004800000F042FC7D20E968C00081420CD30020CE
:1004900000F0D8FF042000F099FE022000F0C0FD1B
:1004A000434900200870F8BD00F008FE009068463F
:1004B000007803280BD02021072000F0F3FE761CE3
:1004C000F6B2032EB7D3002000F0BCFF2BE0602172
:1004D000072000F0E7FE6846847835482746214625
:1004E0000C3000F059FE324920460C3100F07CFB04
:1004F00033A000F0ECFF204600F0FFFF33A000F037
:10050000E6FF002409E035A000F0E1FF28480C30A8
:10051000005D00F0F2FF641CE4B2A742F3D8CEE71E
:10052000012000F07DFD00F08BFDC006F8D52CA069
:1005300000F0CDFF24E02879401CC0B228712028AB
:1005400001D9012028710A2000F0C0FF184E0024B4
:100550002C3609E00019305520A000F0B8FF305DBE
:1005600000F0CBFF641CE4B2287984426879F1D3AF
:10057000401C68712A790E4900202C3100F0A0FE41
:1005800000F063FDC007D6D017A000F0A0FFFF2049
:100590002D3000F0ABFB4AE76E726632344C3031DE
:1005A0002B202050545820202043483D00000000BC
:1005B000640000200C1500000400002000000B4027
:1005C000207061636B65745F737A3D0020526563D0
:1005D00065697665446174613D000000200000009B
:1005E0002F2A2A20000000002A2A202F00000000C5
:1005F000002A026801D00A4300E08A430260704783
:10060000002A426801D00A4300E08A4342607047F2
:10061000002A08D0012A09D082688A438260C26811
:100620008A43C260704782680A43F7E7C2680A4398
:10063000C26082688A4382607047C069084000D007
:1006400001207047002A01D04162704781627047E3
:10065000024801680029FCD070470000000000201B
:1006600070470000084A074801211160074902E06D
:100670008A68272A03D0401EFAD101207047002043
:100680007047000000366E010083084000A106405C
:1006900070470029016802D00122114301E0490896
:1006A00049000160704730B54C698B69002C1AD045
:1006B00001225202DA4022438C680B680D69234301
:1006C000CC682C432343CC692343134343604B6AD8
:1006D0004A681A430B6A1B011A438261896A4908F6
:1006E000491EC16030BDFF2201329A40E4E7082272
:1006F0000029016801D0114300E091430160704777
:1007000070477047F0B534491020C8603349012064
:1007100008603348016B40242143016331498A68F2
:10072000272AFCD1416A0322920291434162416827
:100730000122D202114341608168C908C907FBD078
:100740004168C908C900C91C4160416B4907490F8C
:100750000329FAD1244B1968C908C900491C19603A
:100760000025056241685E15B143416001689F152F
:100770003943016041681A15114341608168890855
:10078000C907FBD0016BA14301630168B943016054
:10079000032109068161416831434160816849084C
:1007A000C907FBD01968C908C900891C196005620E
:1007B0004168C908C900491C4160416B4907490F9C
:1007C0000129FAD118681021084318601868090235
:1007D00008431860F0BD0000008108400083084015
:1007E0000080084000A1064000020840F8B5354EE0
:1007F0008021304600F07CF800281DD0324F386848
:10080000324D2968884205D100220221304600F08D
:10081000B7F811E000242E482968415C304600F00A
:10082000BAF82868401CC0B2286038682968884235
:1008300002D0641C082CEED320213546304600F04F
:1008400057F8244E244C254F002819D02021284643
:1008500000F046F80EE020683168401CC0B28842C3
:100860000ED0284600F094F8216878542068401C87
:10087000C0B220600121284600F03AF80028EAD1F1
:100880004021284600F034F8002819D0402128469D
:1008900000F026F80EE020683168401CC0B28842A3
:1008A0000ED0284600F074F8216878542068401C67
:1008B000C0B220600121284600F01AF80028EAD1D1
:1008C000F8BD00000000044054000020500000204B
:1008D00090010020580000205C00002090020020C1
:1008E00002690A400261704782680A438260704769
:1008F0000069084000D001207047000070B5044630
:100900000D46C8888988626808432989184B1A40AF
:1009100011430843698908436060012080078442CD
:1009200006D11820FFF7FCFC2968FFF725FC606260
:100930001048844206D11A20FFF7F2FC2968FFF71D
:100940001BFC60620C48844206D11C20FFF7E8FCC7
:100950002968FFF711FC60620848844206D11E2016
:10096000FFF7DEFC2968FFF707FC606270BD00003E
:10097000FCE0FFFF000004400010004000100440B5
:10098000002AC26801D00A4300E08A43C26070476F
:10099000006880B27047016070474269D209D20195
:1009A0000A4380210A434261704710B583684900B9
:1009B00030248C40A3438A401343836010BD10232E
:1009C0008B404168002A01D0194300E099434160FF
:1009D0007047000008B50A2000F078FD5DA000F027
:1009E00076FD532000F089FD0A2000F06FFD5F487E
:1009F000027A01231021532000F02CFB01225C49D4
:100A0000002000F0D7FA5A490222491D012000F0C7
:100A1000D1FA57490B220A31022000F0CBFA54498F
:100A200016220F31032000F0C5FA51491F2214315C
:100A3000042000F0BFFA4E4920221931052000F0B1
:100A4000B9FA042000F0C2FB022000F0E9FA02200B
:100A500000F08AFB00F076FB464D0020A86100F014
:100A6000EFFA800625D4A879401CC0B2A8712028CE
:100A700001D90120A8713D4900202C3104E0EA7918
:100A800012180A54401CC0B2AA799042F7D3E879F0
:100A90002B46401CE871287A401CC0B228720528F9
:100AA00001D9002018729A793049C0B22C3100F077
:100AB000A2FB00F0CAFA8006800F03D03021072085
:100AC00000F0F0FB00F0FAFA009068460078032886
:100AD0003AD14021072000F0E5FB6846847823489E
:100AE000264621460C3000F057FB204920460C31A9
:100AF00000F0ACF820A000F0EAFCAA69521CAA6140
:100B000090B200F0EAFC20A000F0E1FC68464078DA
:100B100000F0F3FC1EA000F0DAFC204600F0EDFC33
:100B20001EA000F0D4FC114F00240C3707E01FA0DA
:100B300000F0CDFC385D00F0E0FC641CE4B2A6429D
:100B4000F5D80A2000F0C2FC00F07AFAC007B9D04C
:100B500085E700006E726632344C30312B20205015
:100B6000525820202043483D00000000640000202F
:100B70000C15000004000020636F756E745F726FC7
:100B80006765723D0000000020706970653D0000DF
:100B9000207061636B65745F737A3D0020526563FA
:100BA00065697665446174613D00000020000000C5
:100BB00030B47446641E2578641CAB4200D21D46D6
:100BC000635D5B00E31830BC184702E008C8121FE1
:100BD00008C1002AFAD170477047002001E001C126
:100BE000121F002AFBD17047F8B50446154E0D467A
:100BF00001200022F17807E0AB5C8F18FFB2BB4206
:100C000000D00020521CD2B2A242F5D3B178A1424A
:100C100001D101280BD00C4800F059FC0A2000F04B
:100C200055FC0A2000F052FC0A2000F04FFC641C26
:100C3000E0B2B070202801D90120B0702878401CA3
:100C4000F070F8BD04000020AC0C0000F8B50446BC
:100C5000154E0D4601200022717807E0AB5C8F181D
:100C6000FFB2BB4200D00020521CD2B2A242F5D348
:100C70003178A14201D101280BD00CA000F027FC53
:100C80000A2000F023FC0A2000F020FC0A2000F0DB
:100C90001DFC641CE0B23070202801D901203070A6
:100CA0002878401C7070F8BD040000204552524F57
:100CB00052202121212121212121212121212121F4
:100CC0002121212121212121212121212121212114
:100CD0002121212121212121212121212121212104
:100CE00021212121212121212121200008B5034694
:100CF0000448006800901946009800F0DBFB0028CB
:100D0000F9D008BD4C00002010B50F4CE168491C1B
:100D1000E160002803D02069401C206102E0606986
:100D2000401C606109A000F0D2FBA08980B200F0F5
:100D3000D4FB09A000F0CBFB208A80B200F0CDFBF1
:100D400007A000F0C4FB10BD04000020636F756EA7
:100D5000745F73656E743D0020747864733D0000A9
:100D600020000000124C0225257200F025F8012217
:100D700004210020FFF728FA0E4E002204213046FD
:100D8000FFF736FC002204213046FFF741FC012228
:100D900004213046FFF734FC25702078022801D169
:100DA000FFF7ECFA20780328F7D1FFF713FE0000D5
:100DB0006400002000000B4010B5104C00220221FE
:100DC0002046FFF73FFC002202211046FFF7FCF906
:100DD000012202212046FFF70BFC012208212046B8
:100DE000FFF730FC002208211046FFF7EDF9012241
:100DF00008212046FFF7FCFB10BD000000000B405F
:100E00007047000090B00320614D012700045F4A45
:100E100000247F04294601230F920E90FFF79AFACF
:100E2000FFF720FC002800D0FEE75B485949006826
:100E3000FFF7A2F9594E01463046FFF719FA002193
:100E40003046FFF717FA01213046FFF707FA012174
:100E50003046FFF7FAF9524E37600022042151481C
:100E6000FFF7D6FB052204210120FFF7ADF905228B
:100E700008210120FFF7A8F9052210210120FFF722
:100E8000A3F9052220210120FFF79EF9012080030C
:100E9000009008200794029005940620424F019488
:100EA000039404940A900694089409946946384679
:100EB000FFF7F9FB01213846FFF719FC01213846FD
:100EC000FFF7E7FB294601230F9A0E98FFF742FA36
:100ED000062210210020FFF777F9062220210020AA
:100EE000FFF772F97D20C0020B90BD15684605869C
:100EF00044868486C4862D4C0BA92046FFF7FEFC51
:100F000003212046FFF7F0FC012202212046FFF7D3
:100F100037FD012211462046FFF732FD0122294606
:100F20002046FFF72DFD002211462046FFF73DFD2C
:100F3000202201212046FFF738FD7F212046FFF7C0
:100F40002CFD012200212046FFF739FD0122114628
:100F50002046FFF734FDA00130600122042100206B
:100F6000FFF732F9124C002204212046FFF740FB24
:100F7000002204212046FFF74BFB012204212046DA
:100F8000FFF73EFBFFF7EEFEFEE70000400001002A
:100F900010420000204E000060000020006007406A
:100FA00000E100E000200B40004000400000044051
:100FB00000000B40F8B51746054606282DD200293B
:100FC00001D000F0EDF9052000F0BCF9012634460F
:100FD000AC40E2B2E1B2022000F050F9E2B2E1B27C
:100FE000012000F04BF90D488078002805D0E2B2CE
:100FF000E1B21C2000F042F90AE0E1B200221C201C
:1010000000F03CF928461130C0B2394600F04AF9E8
:10101000062045430148401D4655F8BD20000020EC
:1010200010B5040001D0022C02D1E22000F033F907
:10103000012C01D0022C02D1E12000F02CF910BDCE
:1010400010B5172000F0A0F810BD10B5FF2000F07B
:1010500022F910BDF8B5184C1D0016460746217040
:1010600001D1202917D8002000F0BCF9062000F09B
:10107000C0F9002D03D00120A070042202E000205E
:10108000A070024604211D2000F0F8F8012211464C
:101090001D2000F0F3F8022211461D2000F0EEF8AA
:1010A000304600F06CF9022000F05BF9394605206B
:1010B00000F0F8F8F8BD00002000002038B5FFF778
:1010C000BFFFC0070024002807D0684604706946A7
:1010D000088889780904084338BD032069460870E8
:1010E000FFF7B3FF0007400F69464870144989783D
:1010F0000125002909D0602000F046F86946887073
:101100002028E4D90D708C70E1E700280DD001286B
:101110000ED002280ED003280ED004280ED00528A9
:10112000D5D1202069468870D1E768468570CEE722
:101130000220F7E70B20F5E71620F3E71F20F1E781
:101140002000002010B5052206490A2000F079F899
:10115000044C0020A41F6070012000F073F90220ED
:10116000E07010BD2600002010B50649C8700228A6
:1011700005D002220321002000F080F810BD0322D8
:10118000F8E700002000002010B5012100F072F9FE
:10119000022000F037F910BDF8B50E4605460121D2
:1011A000612000F067F90024771E00900AE0BC423D
:1011B00001D1022100E00321FF2000F05BF9285556
:1011C000641CE4B2B442F2D30098F8BD10B50446F2
:1011D000022801D0042C04D160221146072000F01F
:1011E0004DF8032C01D0042C04D110221146072005
:1011F00000F044F810BDFEB50F46002669461546BE
:101200000E714007400F0121A83000F033F900248F
:101210006E1E11E0AC4201D2385D00E0002069464C
:101220000870B44201D1022100E003216846007831
:1012300000F020F9641CE4B2AC42EBD368460079BC
:10124000FEBDF8B50E46202108431546012100F0E9
:1012500011F90124074676190CE0AC4203D1301B8A
:101260000078022102E0301B0078032100F002F92F
:10127000641CE4B2AC42F0D93846F8BD70B51446EF
:101280000D460646FFF780FFA8432043014630463F
:1012900000F008F870BD202110B50843042100F0CB
:1012A000E9F810BD70B50C4620210843012100F07B
:1012B000E1F805460221204600F0DCF8284670BD22
:1012C000FEB50F4604460020694615460871062CF7
:1012D0001CD220460621484319490A5C002A15D031
:1012E0004618711C05221020FFF7ABFF711C052268
:1012F0000A20FFF7A6FF1248401F04710121417028
:10130000A02000F0B7F800246E1E13E0FF20FEBD01
:10131000AC4201D2385D00E0002069460870B4425A
:1013200001D1022100E003216846007800F0A2F814
:10133000641CE4B2AC42EBD368460079FEBD000009
:101340002500002010B5032807D0042807D0032269
:1013500003210846FFF792FF10BD0122F8E70222A1
:10136000F6E710B50C210022002802D0012804D095
:101370000C220020FFF782FF10BD0822F9E710B50C
:101380002E210622002804D0012805D0022803D1EE
:1013900001E0262200E00E220620FFF76FFF10BDBD
:1013A00070B5062801D3002070BD06220C4B4243C5
:1013B000D31802280AD200229D180C78521CD2B2EF
:1013C000491C6C70052AF7D3052202E0097959708F
:1013D00001220A30591CC0B2FFF733FF70BD000074
:1013E0002500002010B502460F210420FFF746FF1C
:1013F00010BD000710B5020EF0210420FFF73EFFDC
:1014000010BD000038B50E4D0446042801D0012C53
:1014100004D1002208212846FFF714F9FF2000F02C
:101420001FF869460870042C01D0022C04D1012257
:1014300008212846FFF706F96846007838BD000005
:1014400000000B4010B5054B002801D0012200E040
:10145000002202211846FFF7F5F810BD00000B40EE
:101460000349086148698007FCD50869C0B2704724
:1014700000400040F8B50E4D0C460646042901D048
:10148000012C04D1002208212846FFF7DBF8304662
:10149000FFF7E6FF69460870042C01D0022C04D146
:1014A000012208212846FFF7CDF868460078F8BDEC
:1014B00000000B40044A404212688018884201D361
:1014C00001207047002070474C000020704700E06A
:1014D000401C01780029FBD1704710B50446000B71
:1014E000FFF78EFC200AFFF78BFC2005000EFFF7AC
:1014F00087FCE0B2FFF784FC10BD10B5044600097C
:10150000FFF77EFC2046FFF77BFC10BDF2F1E223E3
:101510007F785634127178563412727856341273BA
:101520007856341274785634127500004C15000049
:101530000000002064000000CA0B0000B01500008D
:10154000640000202C050000DA0B00000000000001
:1015500001300130012F012F0000000000000000C9
:10156000000000000000000000000000100000006B
:10157000FF01B7195195E70148E1F2F1C20148E1D5
:10158000F2F1C30148E1F2F1C40148E1F2F1C50111
:1015900048E1F2F1C6000000000000000000000079
:1015A000000000000000000000000000006CDC02F1
:04000005000000C136
:00000001FF
