:020000040000FA
:10000000D80A002055010000B1030000AD03000034
:10001000AF0300006B020000230700000000000097
:10002000000000000000000000000000E1040000EB
:10003000350300000000000011040000E30400008C
:100040006F0100006F0100006F0100006F010000F0
:100050006F0100006F0100006F0100006F010000E0
:100060006F0100006F0100006F0100006F010000D0
:100070006F0100006F0100006F0100006F010000C0
:100080006F0100006F0100006F0100006F010000B0
:100090006F0100006F0100006F0100006F010000A0
:1000A0006F0100006F010000000000006F01000000
:1000B0006F0100006F0100006F0100006F01000080
:1000C0006F0100006F0100006F0100006F01000070
:1000D0006F010000000000000000000000000000B0
:1000E00000000000150200006F0100006F01000019
:1000F0006F0100006F0100006F0100006F01000040
:100100006F010000450500006F0100006F01000055
:100110006F0100006F010000000000006F0100008F
:100120006F0100006F0100006F0100006F0100000F
:100130006F0100006F0100006F010000000000006F
:1001400000000000000000000000000000000000AF
:100150006F0100000648804706480047FEE7FEE7BB
:10016000FEE7FEE7FEE7FEE7FEE7FEE7FEE7FEE767
:10017000E504000079010000DFF80CD000F006F87B
:1001800000480047D9120000D80A0020064C074D4D
:1001900006E0E06840F0010394E807009847103457
:1001A000AC42F6D3FFF7ECFF601E0000801E00009B
:1001B0002DE9F0479146164A4FF0FF0A02EBC005C1
:1001C000002200240AFA02F02346084219D04FF018
:1001D000010C00200CFA02FC4FF00F0821FA00F687
:1001E00016EA0C0F06D0860008FA06F73C4309FA17
:1001F00006F73B43401C0828F0D32868A043184367
:10020000286008322D1D082ADBDDBDE8F0870000DC
:100210002020024003480168491C0160024800F0A8
:1002200005B800001000002000600740416821F080
:1002300001014160BFF34F8F70470029016802D070
:1002400041F0040101E021F0040101607047002940
:10025000016802D041F0010101E021F001010160DB
:100260007047C160704781607047FEE770B5124EFD
:100270000446706B850F00F023F82060012D05D037
:100280000E48022D02D0032D00D000206060316A9C
:10029000C840A0603168C1F3015120FA01F1E1606A
:1002A000B16AC1F30241072902D0C840206170BD84
:1002B0000621B0FBF1F0F9E70080084000127A0057
:1002C0000C49D1F8A400002813D0086A0A48D1F8D4
:1002D000FC1301290DD0094A9169C1F3C55101B937
:1002E00040219269C2F3415301229A40B0FBF2F0DF
:1002F000484370470000104300127A000080084015
:1003000000B585B06846FFF7B1FF039805B000BDA2
:10031000F0B5074F7C6AFD6A3E6B84438D4396437C
:1003200013B104430D4316437C62FD623E63F0BD8E
:10033000008008407047002A026801D00A4300E0AC
:100340008A4302607047000010B52021034800F086
:1003500023F808B1002010BD012010BD00600B4043
:10036000002A426801D00A4300E08A434260704795
:1003700042B1012A09D082688A438260C2688A43F6
:10038000C260704782680A43F7E7C2680A43C260E6
:1003900082688A4382607047C069084000D00120AB
:1003A00070470AB14162704781627047FEE7FEE71D
:1003B000704700F01F02012191404009800000F1C8
:1003C000E020C0F8001170470F4A0E480121C2F822
:1003D00000130E4903E0D1F80821272A03D0401E5C
:1003E000F9D101207047D1F82402D1F82432C0435A
:1003F000C1F82402D1F824228242F9D1C1F8243272
:1004000000207047005125020080084000A00640EF
:1004100070470029016802D041F0010101E021F09C
:1004200001010160704730B5D1E90543E4B14FF4F3
:100430000072DA4022438C680B682343D1E90345FC
:100440002C432343CC692343134343604B6A4A68DC
:100450001A430B6A42EA03128261896A4FF0FF3243
:1004600002EB5101C16030BD4FF480729A40E2E767
:1004700010B5012210210320FFF79AFE094C00223B
:1004800010212046FFF757FF002210212046FFF7DA
:100490006FFF012210212046FFF762FF40216162B9
:1004A00010BD000000600B4010B500221021032099
:1004B000FFF77EFE044C012210212046FFF73BFF90
:1004C0004021A16210BD000000600B4000290168BE
:1004D00002D041F0080101E021F0080101607047FD
:1004E0007047704714480121C0F80013134AC2F83E
:1004F000A810D2F80831002BFBD0002313624FF074
:1005000010638361C2F8A410D2F80431002BFBD031
:100510000B4AD2F8003223F00703DB1CC2F800328A
:100520000162426822F00302521C4260426BB1EB4E
:10053000927FFBD17047000000800840000010430C
:10054000000008402DE9F0411E4EB06880071FD51D
:100550001D4F38681D4D2968884205D100220221AF
:10056000304600F05BF813E0DFF86480002429686F
:10057000304618F8011000F0C2F82888401CC0F37B
:10058000090028603968814202D0641C082CEED32F
:10059000B1683046490712D50E4C21680E4A491CF5
:1005A000C1F309011268914209D000F09BF80B4990
:1005B000226888542068401CC0F309002060BDE810
:1005C000F081000000100040040000200000002026
:1005D000740000200C00002008000020740400209B
:1005E000C2680A43C260704770B505460C46C888A9
:1005F00089882A690843218922F01F021143084390
:100600002861686A618920F0030008436862FFF787
:1006100077FE2168B0FBF1F0A86370BD002A426844
:1006200001D00A4300E08A434260704770B5154626
:100630000446FFF7D9FF06212046FFF7D1FF012D21
:1006400005D0A826022D0BD0032D10D025E00021C7
:10065000204600F056F80121204600F058F81CE032
:100660000021204600F038F8012211460DE000215B
:10067000204600F046F80121204600F048F800210D
:10068000204600F029F801220F212046FFF7C6FF7F
:1006900026620121204600F028F8B4F1804F04D0F2
:1006A0000A48844203D130200AE02F2008E008489D
:1006B000844201D1312003E00648844204D1322033
:1006C000BDE87040FFF775BE70BD0000000004403B
:1006D0000010004000100440C26822F0C0020A432B
:1006E000C2607047006880B270470029C16802D0BC
:1006F00041F4007101E021F40071C16070470160B4
:100700007047C26822F030020A43C2607047002975
:10071000C16802D041F4807101E021F48071C160B0
:100720007047FEE702E008C8121F08C1002AFAD18C
:1007300070477047002001E001C1121F002AFBD161
:100740007047000070B50DA001F063FB0D4D2878D7
:1007500001F07CFB0CA001F05CFB0024281900795F
:1007600001F074FB0CA001F054FB641CF6D00A20CD
:1007700001F044FB09490120087270BD5258444CF5
:10078000454E3D00A8080020202052584649464FBB
:100790005B5D3D200000000020000000CC08002030
:1007A0000F4A68B101280ED002280FD0032810D0BC
:1007B000042811D0052812D1D2E9120100F0FBBFA4
:1007C000D2E90801FAE7D2E90A01F7E7D2E90C0118
:1007D000F4E7D2E90E01F1E7D2E91001EEE7704744
:1007E000180000202DE9F041154E04460D46012069
:1007F0000022717807E0AB5C8F18FFB2BB4200D0DB
:100800000020521CD2B2A242F5D301280BD00DA079
:1008100001F0FFFA0A2001F0F1FA0A2001F0EEFAE5
:100820000A2001F0EBFA641CE0B23070202801D9F4
:10083000012030702878401C7070BDE8F081000005
:10084000180000204552524F522021212121212100
:100850002121212121212121212121212121212188
:100860002121212121212121212121212121212178
:100870002121212121212121212121212121212168
:10088000212120002DE9F041154E04460D4601209E
:100890000022F17807E0AB5C8F18FFB2BB4200D0BA
:1008A0000020521CD2B2A242F5D301280BD00DA0D9
:1008B00001F0AFFA0A2001F0A1FA0A2001F09EFA35
:1008C0000A2001F09BFA641CE0B2B070202801D924
:1008D0000120B0702878401CF070BDE8F081000065
:1008E000180000204552524F522021212121212160
:1008F00021212121212121212121212121212121E8
:1009000021212121212121212121212121212121D7
:1009100021212121212121212121212121212121C7
:100920002121200008B503460448006800901946BC
:10093000009801F031FA0028F9D008BD100000201D
:1009400002480521017000214160704774080020B1
:10095000164910B504200870154C6068F8B9207865
:10096000E8B1207804280BD112A001F052FA282017
:1009700001F06CFA0A2001F041FA4FF480606060E7
:10098000207805280BD110A001F043FA282001F0AF
:100990005DFA0A2001F032FA4FF4A060606000F0C6
:1009A000C3F8BDE8104000F019B8000014000020A2
:1009B0007408002035363032424C452020505458BF
:1009C00020202043483D000035363032424C45203F
:1009D0002050525820202043483D000070B5464C1E
:1009E000606840F20155A0F5A060052833D2DFE829
:1009F00000F0031733737A000021152001F076F917
:100A00000121032001F072F9002000F0CDFE3F210A
:100A1000372001F06BF900F0CBFE00F055FE60E0EE
:100A2000364904200870002000F0BEFE01F036F9BF
:100A3000800606D400F0FAFC2F480C30007800F055
:100A4000BFFC0121152001F051F901F09FF9A060D0
:100A500040F20250606070BDFFF776FC0028FAD0CB
:100A600001F01FF904464006F5D5254DE869401C04
:100A7000E86101F013F9002000F096FE21A001F0DA
:100A8000C8F9292001F03AF801F0E0F9C4F3420472
:100A900001F014F91849343111F8040BFFF7F2FE94
:100AA0001AA001F0B6F9E86901F0BDF91AA001F049
:100AB000B0F9204601F0CAF91AA001F0AAF9FFF72F
:100AC00041FE01F0EBF88006C5D400F0AFFC2046F3
:100AD000BDE8704000F074BC00F044FDA068142133
:100AE00005E0656070BD00F03DFDA068C82101F023
:100AF00053F90028F5D170BD7408002014000020BF
:100B000018000020727373693D2000007061636BF0
:100B10006574735F693D20002052585F505F4E4FEF
:100B20003D000000202000002DE9F047994C60684E
:100B3000994EA0F580604FF0010A40F203454FF452
:100B40007A7840F2044904F10C07072846D2DFE81E
:100B500000F0041630477BFEFD008021032001F0E9
:100B6000C5F800F0B1FD0021152001F0BFF800200C
:100B700000F01AFE0121372001F0B8F82DE0002125
:100B8000152001F0B3F800F00CFE01F0FFF8A060B2
:100B900040F202406060002000F006FE262000F0D7
:100BA000ADFF00F007000128F8D1BDE8F04701F0E3
:100BB00093B8A068502101F0EFF800280ED000F0A3
:100BC000EAFD002000F0F0FD262000F097FF00F085
:100BD00007000228F8D101F07FF86560BDE8F087D2
:100BE00001F05CF88006F9D401F058F8800614D4BE
:100BF000012000F03DFC3878FFF7D2FD387848B18D
:100C0000012807D0022805D0032803D0042801D0EA
:100C1000052802D1112000F0DFFB01F03FF8306918
:100C2000404504DA00F0BAFD3069401C3061002014
:100C300000F0BAFD262000F061FF00F00700042854
:100C4000F8D1C4F80490C9E7FFF77EFB0028C5D0AF
:100C500001F027F80546C00630D500F096FD0120CA
:100C600000F006FC3878FFF79BFD112000F0B4FB84
:100C70007069401C706149A001F0CBF8306901F047
:100C8000D2F847A001F0C5F8706901F0CCF847A090
:100C900001F0BFF8B06901F0C6F847A001F0B9F85B
:100CA000142000F02BFF01F0D1F80A2001F0A6F883
:100CB00001F06CF8A06040F206406060A80632D5F2
:100CC00000F0ECFFB069401CB06134A001F0A1F865
:100CD000306901F0A8F832A001F09BF8706901F0CA
:100CE000A2F832A001F095F8B06901F09CF80A2052
:100CF00001F084F800F0D2FFC0060CD587F801A0FF
:100D00000021152000F0F2FF01F040F8A06040F251
:100D10000540606007E03069404504DA00F03EFDC0
:100D20003069401C306168068DD51A4C343400F0AF
:100D3000B5FFC00787D100F0C1FF2078211DFFF764
:100D400051FD1FA001F065F8387801E012E007E0DE
:100D500001F07CF81DA001F05CF8FFF7F3FCE6E77A
:100D6000A068642101F018F800283FF46CAFC6F8C1
:100D700010A032E7A068642101F00EF80028F4D03A
:100D800030694045BFF65DAF00F008FD3069401C9A
:100D9000306156E7740800201800002052543A00D1
:100DA00020204D41585F52543A00000020205458F2
:100DB0005F44533A0000000020205254323A0000B1
:100DC0007A7A7A5F706970653D000000202000002B
:100DD000074910B504200870064C05202070607883
:100DE000002803D1FFF7ACFD0120607010BD0000AA
:100DF00014000020CC0800200D48802343712022DD
:100E000002710021C17103248471027241728172E6
:100E10000121C1720221017304214173837300F027
:100E2000B5F900F007F8FFF793FDFFF7D1FFFAE7F8
:100E300018000020D24910B50420087000F0A8FC6A
:100E400000F0A9FC00F09EFC4021002000F04EFFC5
:100E5000002000F0A9FC5C21022000F047FF0021E7
:100E6000032000F043FF7021042000F03FFF902199
:100E7000062000F03BFF5021072000F037FF7F21C4
:100E8000082000F033FF2321092000F02FFF00216C
:100E90000A2000F02BFF03210B2000F027FF2C215C
:100EA0000D2000F023FF01210E2000F01FFF1C2168
:100EB0000F2000F01BFF2821102000F017FFB14881
:100EC00041790279C07911430143112000F00EFFEE
:100ED0002021122000F00AFF1021132000F006FF4D
:100EE0000021142000F002FF0021152000F0FEFE7A
:100EF0001F21162000F0FAFE002000F055FC002112
:100F0000212000F0F3FE0A21272000F0EFFE3F2110
:100F10002A2000F0EBFE87212B2000F0E7FE0121C4
:100F20002C2000F0E3FE08212D2000F0DFFE102130
:100F30002E2000F0DBFE18212F2000F0D7FE1C2110
:100F4000302000F0D3FE2021312000F0CFFE3F21E1
:100F5000322000F0CBFE7221332000F0C7FE732157
:100F6000342000F0C3FE7421352000F0BFFE75214F
:100F7000362000F0BBFE3F21372000F0B7FE1021E5
:100F8000382000F0B3FE0021392000F0AFFEAF2181
:100F90003A2000F0ABFE00213C2000F0A7FE042127
:100FA0003D2000F0A3FE012000F0FEFB08212020E0
:100FB00000F09CFE7121212000F098FE11212220DA
:100FC00000F094FE1A21232000F090FE002124203E
:100FD00000F08CFE0021252000F088FE4021262014
:100FE00000F084FE0021272000F080FE422128200E
:100FF00000F07CFE0421292000F078FE02212B2045
:1010000000F074FE0421312000F070FE0021322037
:1010100000F06CFE0221332000F068FE0321352031
:1010200000F064FE022000F0BFFB2E21212000F022
:101030005DFE0121262000F059FEAA21272000F0A4
:1010400055FEA321282000F051FE9321292000F015
:101050004DFE11212A2000F049FE13212B2000F023
:1010600045FE18212D2000F041FEEF212E2000F03A
:101070003DFE56212F2000F039FE0921302000F0DE
:1010800035FE2121312000F031FE0821322000F010
:101090002DFE2521332000F029FECF21342000F041
:1010A00025FE3021352000F021FE0221362000F0FF
:1010B0001DFE2021382000F019FE9021392000F07B
:1010C00015FE57213A2000F011FE57213B2000F079
:1010D0000DFE4B213C2000F009FE3F213D2000F099
:1010E00005FE02213E2000F001FE032000F05CFB23
:1010F00001212C2000F0FAFD00212D2000F0F6FD4A
:1011000040212E2000F0F2FD18212F2000F0EEFDEE
:101110004021392000F0EAFD00213A2000F0E6FDF0
:101120001F213B2000F0E2FD8621332000F0DEFD90
:10113000022000F039FB0821202000F0D7FD02201A
:10114000FFF7F0FB012000F02FFB50213D2000F0C5
:10115000CDFD5D213E2000F0C9FD34212A2000F0A4
:10116000C5FD09A000F055FE2A2000F0C7FCC0070D
:10117000FAD100F047F8BDE81040002000F014BBA1
:1011800014000020180000205052580070B500F0E4
:1011900037F8012220210320FFF70AF8164C00221D
:1011A00020212046FFF7C7F8002220212046FFF724
:1011B000DFF8012220212046FFF7D2F80122950313
:1011C00029460320FEF7F4FF002229462046FFF7B8
:1011D000B2F8002229462046FFF7CAF80122294624
:1011E0002046FFF7BDF800F0F1F90449002008702F
:1011F00048600C31487070BD00600B4074080020DE
:1012000000F062B91CB5244CD4E9080100F0D3FA0F
:10121000684600F081FB21A000F0FBFD0098000E65
:1012200000F014FE0098C0F3074000F00FFE009895
:10123000C0F3072000F00AFE0098C0B200F006FEDE
:101240009DF8040000F002FE0A2000F0D7FDD4E96A
:101250000A0100F0EBFA684600F062FB14A000F00F
:10126000D8FD0098000E00F0F1FD0098C0F3074093
:1012700000F0ECFD0098C0F3072000F0E7FD0098B7
:10128000C0B200F0E3FD9DF8040000F0DFFD0A208D
:1012900000F0B4FD1CBD0000180000207265616400
:1012A00020706970652030204944206765742000F3
:1012B000726561642070697065203120494420673F
:1012C0006574200000F00F000A2801D2303000E0E1
:1012D000373000F06DBD00008EB000244FF4C81010
:1012E00044F21041304A0123FFF712F8FFF76CF87F
:1012F00000B1FEE72D48006844F62061B0FBF1F133
:101300002B4D2846FEF7ADFF00212846FEF7ABFF28
:1013100001212846FEF79BFF01212846FEF78DFF9D
:1013200001262449700209250427C1F80001002282
:1013300080212148FFF71CF80522F0210020FEF74C
:1013400037FFB003CDE900040820CDE9020404947E
:101350000594069407940894CDE909454FF040257B
:1013600069462846FFF75FF801212846FFF7AEF8E7
:1013700001212846FFF74DF806220C210120FEF737
:1013800017FF4FF47A300B90ADF83060ADF8344071
:10139000ADF83270ADF8364003220BA90748FFF7CD
:1013A00045F9FFF729FDFEE740000100700000202D
:1013B0000060074004E000E000000B400010004027
:1013C00010B5044C04F10802217900F06BFAF42006
:1013D000607010BD8008002010B5094C024604F171
:1013E00008016068112A02D0132A03D004E000F03B
:1013F000E7F901E000F020FAF420607010BD000071
:101400008008002030B5084B18700020596005E0B6
:101410001D1812F8014B401C2C72C0B28842F7D341
:10142000FF20587030BD00008008002030B50F4DFF
:1014300089B0E878401CC0B2E870052801D90020C6
:10144000E8702021297168796B46401CC2B26A712C
:10145000002014181C54401CC0B28842F9D31A460C
:10146000E878FFF7CFFF09B030BD0000680000202A
:1014700030B5144A89B0002130B11078401CC0B298
:101480001070052800D91170117008465178491C58
:10149000C9B25170202901D9012151702021517008
:1014A00093786C465B1CDBB2937000229D18A554A8
:1014B000521CD2B28A42F9D32246FFF7A3FF09B0E9
:1014C00030BD00006800002010B5254C012060628E
:1014D000014600220320FEF76BFE01221146204642
:1014E000FEF729FF02206062014600220320FEF77A
:1014F0005FFE012202212046FEF71DFF04206062EC
:10150000014600220320FEF753FE0122042120465B
:10151000FEF711FF0820A062014600220320FEF71B
:1015200047FE012208212046FEF705FF1020A06299
:10153000014600220320FEF73BFE01221021204637
:10154000FEF7F9FE4020A062014600220320FEF7CC
:101550002FFE20460122BDE810404021FEF7EBBEE1
:1015600000600B4070B5FEF7EFFE00281FD000F0C2
:1015700098FB40061BD50E4D00F090FBC00716D11E
:10158000022000F0BBFAC0F3420400F097FB287879
:10159000291DFFF777F907A000F03BFC204600F07B
:1015A00055FC09A000F035FCFFF7CCF8E4E770BD6E
:1015B000A80800205F5F5F5F5F5F5F5F5F5F5F52F4
:1015C000585F505F4E4F3D002020000010B50022B4
:1015D00001210420FEF7ECFD002202210420FEF789
:1015E000E7FD042100220846FEF7E2FD0022082163
:1015F0000420FEF7DDFD002210210420FEF7D8FDB7
:10160000002220210420FEF7D3FD002240210420E7
:10161000FEF7CEFD002280210420FEF7C9FD294CF3
:10162000012211462046FEF786FE012202212046B5
:10163000FEF781FE012204212046FEF77CFE0122F6
:1016400008212046FEF777FE012210212046FEF7F2
:1016500072FE012220212046FEF76DFE012240216C
:101660002046FEF768FE012280212046FEF763FE39
:10167000002201212046FEF794FE0022022120468E
:10168000FEF78FFE002204212046FEF78AFE00228C
:1016900008212046FEF785FE002210212046FEF795
:1016A00080FE002220212046FEF77BFE0022402102
:1016B0002046FEF776FE20460022BDE8104080213D
:1016C000FEF76FBE00800B407E21042000F00EBBB1
:1016D000F0B52A4A0823936229490C78E5074FF0B0
:1016E000010400D094620D78AE074FF0020500D5DA
:1016F000956209784FF00406490700D596620706FF
:101700004FF0100101D5516200E091625362936283
:10171000470601D5516200E09162536293628706E9
:1017200001D5516200E0916253629362C70601D510
:10173000516200E0916253629362070701D55162E2
:1017400000E0916253629362470701D5516200E065
:10175000916253629362870701D5516200E0916202
:1017600053629362C00701D0516200E091625362FC
:101770009362546255625662F0BD000000600B40F7
:10178000140000200820FFF7A3BF0920FFF7A0BF27
:101790000A20FFF79DBF0C20FFF79ABF0E20FFF72E
:1017A00097BF0F20FFF794BF40F02000FFF790BFD6
:1017B0008920FFF78DBF0A460146102000F0C2BA0B
:1017C0002DE9F0470F46060029D0164D0820A862E3
:1017D000154801784FF0010AC90701D0C5F828A0C3
:1017E00001784FF00208890701D5C5F828800078F4
:1017F0004FF00409400701D5C5F82890112000F0EA
:101800003BF9002403E0385D00F036F9641CB44273
:10181000F9D3C5F824A0C5F82480C5F82490BDE804
:10182000F087000000600B40140000200A460146CB
:10183000122000F087BA00002DE9F0470F4606009D
:1018400029D0164D0820A862154801784FF0010AEA
:10185000C90701D0C5F828A001784FF00208890710
:1018600001D5C5F8288000784FF00409400701D55C
:10187000C5F82890132000F0FFF8002403E0385D3D
:1018800000F0FAF8641CB442F9D3C5F824A0C5F8F6
:101890002480C5F82490BDE8F087000000600B406C
:1018A000140000202DE9F04717460D002ED0184EE9
:1018B0000821B16217490A784FF0010AD20701D016
:1018C000C6F828A00A784FF00209920701D5C6F899
:1018D000289009784FF00408490701D5C6F82880F8
:1018E0001830C0B200F0C8F8202D00D920250024FF
:1018F00004E0385D00F0C0F8641CE4B2AC42F8D3F8
:10190000C6F824A0C6F82490C6F82480BDE8F08765
:1019100000600B40140000200146902000F072B9D6
:101920000146922000F06EB92DE9F05F504C4FF067
:1019300008090E468346C4F828904E480178C90726
:1019400001D00121A1620178890701D50221A1629C
:101950000078400701D50420A062BF2000F08CF879
:10196000FEF786FD402060620025A2466DE000245F
:101970001021D0465046FEF70FFD012800D18024EB
:101980004F464046C8F82490C8F828901021FEF72A
:1019900003FD012801D144F040044046C8F82470FA
:1019A000C8F828701021FEF7F7FC012801D144F097
:1019B00020043946B94647464046C8F82410C8F8BE
:1019C00028101021FEF7E8FC012801D144F0100492
:1019D000B8463846C7F82490C7F828901021FEF77B
:1019E000DBFC012801D144F008044F464046C8F80A
:1019F0002490C8F828901021FEF7CEFC012801D1D0
:101A000044F004043946B94647464046C8F8241015
:101A1000C8F828101021FEF7BFFC012801D144F0BE
:101A20000204C8463846C7F82490C7F82890102109
:101A3000FEF7B2FC012801D144F00104C7F824806C
:101A4000C7F8288006F8014B6D1C5D458FD3FEF763
:101A50002BFD4021CAF828100121CAF824100221C8
:101A6000CAF824100421CAF82410BDE8F09F000031
:101A700000600B401400002010B51F4A03064FF011
:101A8000100101D5516200E0916208235362936214
:101A9000440601D5516200E091625362936284066C
:101AA00001D5516200E0916253629362C40601D590
:101AB000516200E0916253629362040701D5516262
:101AC00000E0916253629362440701D5516200E0E5
:101AD000916253629362840701D5516200E0916282
:101AE00053629362C00701D0516200E09162536279
:101AF0009362002010BD000000600B402DE9F0470C
:101B00003E4D0826AE623E490A784FF0010AD207E0
:101B100001D0C5F828A00A784FF00208920701D535
:101B2000C5F8288009784FF00407490700D5AF624F
:101B300040F0C000FFF7A0FFFEF79AFC4FF040090D
:101B40002846C5F8249000241021FEF725FC012822
:101B500000D1802428466E62AE621021FEF71CFC84
:101B6000012801D144F0400428466E62AE62102183
:101B7000FEF712FC012801D144F0200428466E62D1
:101B8000AE621021FEF708FC012801D144F01004D8
:101B900028466E62AE621021FEF7FEFB012801D1DD
:101BA00044F0080428466E62AE621021FEF7F4FB92
:101BB000012801D144F0040428466E62AE6210216F
:101BC000FEF7EAFB012801D144F0020428466E62C8
:101BD000AE621021FEF7E0FB012801D144F00104C0
:101BE0006E62AE62FEF760FCC5F82890C5F824A0CE
:101BF000C5F824806F622046BDE8F08700600B4086
:101C0000140000202DE9F047144C0D460821A16274
:101C10000426A662FFF730FFFEF72AFC4027676222
:101C200000F01EF8287100F01BF8824600F018F84A
:101C3000814600F015F8804600F012F808EB00210C
:101C400009EB01210AEB01202860FEF72DFCA762B9
:101C5000012060626662BDE8F087000000600B4012
:101C60002DE9F04100240C4F802526464FF008084E
:101C700010213846FEF790FB012800D12E43C7F80B
:101C80002480C7F82880641C6D08E4B2082CEFD3C8
:101C90003046BDE8F081000000600B400520FFF7F2
:101CA0002DBF10B50420FFF729FF040003D0014623
:101CB000042000F01BF8204610BD000070B50C2079
:101CC000FFF71CFF040004D0024D291DFFF72CFE76
:101CD0002C6070BDA808002010B50020FFF764FD3F
:101CE000BDE810402620FFF709BF00002DE9F041B4
:101CF000124C88460821A16211490A784FF001056B
:101D0000D20700D0A5620A784FF00206920700D5EC
:101D1000A66209784FF00407490700D5A76200F0D2
:101D20003F0040F04000FFF7A7FE4046FFF7A4FE4B
:101D3000656266626762BDE8F081000000600B408A
:101D4000140000202DE9F0410F4D0C4608211746E4
:101D5000A9620426AE62FFF78FFEF8B2FFF78CFE91
:101D6000E0B2FFF789FEC4F30720FFF785FEC4F356
:101D70000740FFF781FE200EFFF77EFE012068621C
:101D80006E62BDE8F081000000600B400148006811
:101D90007047000010000020044A404212681044BE
:101DA000884201D3012070470020704710000020B6
:101DB00070B505460E4E0F4C04E00122022130465C
:101DC000FEF72CFC60682168401CC0F309008842C3
:101DD000F3D00948616845546068401CC0F30900AD
:101DE00060603046BDE8704001220221FEF716BC5B
:101DF00000100040000000207400002010B50A28E8
:101E000003D10D20FFF7D4FF0A20BDE81040FFF7F3
:101E1000CFBF10B5044602E0641CFFF7C9FF20786D
:101E20000028F9D110BD10B50446C0F30730FFF704
:101E300049FAC4F30720FFF745FAC4F30710FFF788
:101E400041FAE0B2BDE81040FFF73CBA10B50446D5
:101E50000009FFF737FA2046BDE81040FFF732BA15
:101E6000801E000000000020740000002407000015
:101E7000F41E000074000020640A00003407000013
:101E80000000000000000000000000000000000052
:101E90000000000000000000000000000000000042
:101EA0000000000000000000000000000000000032
:101EB0000000000000000000EEF24AD10700000020
:101EC00023F6E1F27100000023F6E1F27200000057
:101ED00023F6E1F27300000023F6E1F27400000043
:101EE00023F6E1F275000000FF002FFF002F000035
:041EF00000A24A04FE
:0400000500000155A1
:00000001FF
