:020000040000FA
:1000000090050020C10000006106000051060000BC
:10001000FFFFFFFFFFFFFFFFFFFFFFFFFFFFFFFFF0
:10002000FFFFFFFFFFFFFFFFFFFFFFFF01070000D4
:10003000FFFFFFFFFFFFFFFF910600000307000027
:1000400035010000350100003501000035010000D8
:1000500035010000350100003501000035010000C8
:1000600035010000FFFFFFFF3501000035010000F2
:10007000350100003501000035010000FFFFFFFFE2
:10008000FFFFFFFF210200003501000035010000E5
:100090003501000035010000350100003501000088
:1000A000ED070000350100003501000035010000BA
:1000B0003501000035010000350100003501000068
:1000C0001D4880471D4880471D4800471D4801695D
:1000D000002908D14169002905D18169002902D18F
:1000E000C169002909D01848C1680901090D002912
:1000F0000ED005290CD006290AD0BFF34F8F134824
:100100001349016013491248C860BFF34F8FFEE7DF
:100110000E4801680E48884200D070470E480F49CB
:1001200001600A480E4901607047FEE7FEE7FEE7FE
:10013000FEE7FEE7FEE70000CD0000000507000037
:100140006501000000030840800108400000002015
:100150000400FA0500ED00E0008108400100000005
:10016000000000000348854600F01CF800480047E6
:10017000DD0D00009005002030B50B460146002043
:100180002022012409E00D46D5409D4205D31D469D
:100190009540491B2546954040191546521E002D95
:1001A000F1DC30BD064C0125064E05E0E36807CCC6
:1001B0002B430C3C98471034B442F7D3FFF7D6FFDB
:1001C0007815000098150000F0B596460A461349C8
:1001D000C000461800230025FF2098402C461042FE
:1001E00016D00020012199408C461146C140674637
:1001F000394206D087000F21B9400D437146B940FE
:100200000C43401C0828F0D33068A84320433060DA
:100210000833361D082BDEDDF0BD00002020024033
:1002200010B504480168491C0160034800F006F855
:1002300010BD0000480000200060074041684908E8
:1002400049004160BFF34F8F7047042200290168C5
:1002500001D0114300E0914301607047002901681B
:1002600002D00122114301E04908490001607047B2
:10027000C16070478160704770B5184D0446686B67
:100280004607760F00F02EF815492060330000F085
:1002900065FC081405070714140E1114606000E0D3
:1002A0006160296A6068052909D3400908E00120D6
:1002B000C003F3E77D200002F0E70020EEE7C8402E
:1002C000A060A96A4903490F072902D0C840E0602D
:1002D00070BD0321FFF750FFF9E7000000800840E0
:1002E00000127A000C490868C869C20F4868400AC1
:1002F000C007C00F0ED00948002A0BD18869C00D75
:100300000007000F00D110208969044A4902890FB3
:100310005043C840704700000080084000127A0037
:100320001FB541090A4A89008A1800212E2800D1E8
:100330000221C006C00E1268032383401A40C24047
:1003400054186846FFF798FF029804B0E04010BDCB
:1003500038800840F0B5084F7C6AFD6A3E6B8443E4
:100360008D439643002B02D004430D4316437C6219
:10037000FD623E63F0BD000000800840F8B50A2031
:1003800001F0BEF87AA001F0C5F8532001F0DCF8C6
:100390000A2001F0B5F87C48027A0123102153208D
:1003A00000F074FE01227949002000F01FFE0420B5
:1003B00000F028FF022000F04FFE032000F0F0FEC6
:1003C000734E0020B060F06030613020B0710120C9
:1003D0007071002006E0B1796B4A09182C32115473
:1003E000401CC0B271798842F5D3B079401CB0711D
:1003F0007279654900202C3100F058FF012001F08E
:1004000017F800F03EFE04468006800F01D160061A
:10041000F7D5E00624D51021072000F039FF0A2087
:1004200001F06EF8002000F045FC5AA001F072F8CF
:10043000307801F089F85AA001F06CF8042000F03F
:10044000BFFE01F081F85BA001F064F8082000F025
:10045000B7FE01F079F87D20B168C000814222D258
:10046000A0066ED50A2001F04BF8012000F022FC16
:1004700048A001F04FF8307801F066F851A001F083
:1004800049F8042000F09CFE01F05EF849A001F05C
:1004900041F8082000F094FE01F056F87D20B16884
:1004A000C00081420CD3002000F0C2FF042000F005
:1004B000A9FE022000F0D0FD334900200870F8BDED
:1004C0007079401CC0B27071202801D90120707170
:1004D00000F010FE009068460078032809D0202123
:1004E000072000F0D5FE00F051FD274A00202C32F5
:1004F0002DE06021072000F0CBFE68468578224879
:1005000029460C3000F064FE1F4928460C3100F0EB
:1005100041FB31A000F0FEFF284601F015F831A0A4
:1005200000F0F8FF184F00240C3707E031A000F06E
:10053000F1FF385D01F008F8641CE4B2A542F5D87B
:10054000D1E710E0B17909181154401CC0B271799B
:100550008842F7D3B079401CB07172790A49002003
:100560002C3100F0A3FEFF202D3000F095FB48E772
:100570006E726632344C30312B202050545820207B
:100580002043483D00000000600000205A15000094
:1005900004000020207A7A7A5F706970653D00005F
:1005A000204D41585254202053455455505F5245D8
:1005B00054523D0020204F4253455256455F5458F7
:1005C0003D0000002054585F4453202053455455AB
:1005D000505F524554523D00207061636B65745FFB
:1005E000737A3D0020526563656976654461746184
:1005F0003D00000020000000002A026801D00A43EC
:1006000000E08A4302607047002A426801D00A4332
:1006100000E08A4342607047002A08D0012A09D0CE
:1006200082688A438260C2688A43C2607047826877
:100630000A43F7E7C2680A43C26082688A4382605D
:100640007047002A01D04162704781627047000004
:10065000024801680029FCD070470000000000201B
:1006600070470000084A074801211160074902E06D
:100670008A68272A03D0401EFAD101207047002043
:100680007047000000366E010083084000A106405C
:1006900070470029016802D00122114301E0490896
:1006A00049000160704730B54C698B69002C1AD045
:1006B00001225202DA4022438C680B680D69234301
:1006C000CC682C432343CC692343134343604B6AD8
:1006D0004A681A430B6A1B011A438261896A4908F6
:1006E000491EC16030BDFF2201329A40E4E7082272
:1006F0000029016801D0114300E091430160704777
:1007000070477047F0B534491020C8603349012064
:1007100008603348016B40242143016331498A68F2
:10072000272AFCD1416A0322920291434162416827
:100730000122D202114341608168C908C907FBD078
:100740004168C908C900C91C4160416B4907490F8C
:100750000329FAD1244B1968C908C900491C19603A
:100760000025056241685E15B143416001689F152F
:100770003943016041681A15114341608168890855
:10078000C907FBD0016BA14301630168B943016054
:10079000032109068161416831434160816849084C
:1007A000C907FBD01968C908C900891C196005620E
:1007B0004168C908C900491C4160416B4907490F9C
:1007C0000129FAD118681021084318601868090235
:1007D00008431860F0BD0000008108400083084015
:1007E0000080084000A1064000020840F8B5354EE0
:1007F0008021304600F07CF800281DD0324F386848
:10080000324D2968884205D100220221304600F08D
:10081000B7F811E000242E482968415C304600F00A
:10082000BAF82868401CC0B2286038682968884235
:1008300002D0641C082CEED320213546304600F04F
:1008400057F8244E244C254F002819D02021284643
:1008500000F046F80EE020683168401CC0B28842C3
:100860000ED0284600F094F8216878542068401C87
:10087000C0B220600121284600F03AF80028EAD1F1
:100880004021284600F034F8002819D0402128469D
:1008900000F026F80EE020683168401CC0B28842A3
:1008A0000ED0284600F074F8216878542068401C67
:1008B000C0B220600121284600F01AF80028EAD1D1
:1008C000F8BD000000000440500000204C00002053
:1008D0008C01002054000020580000208C020020D1
:1008E00002690A400261704782680A438260704769
:1008F0000069084000D001207047000070B5044630
:100900000D46C8888988626808432989184B1A40AF
:1009100011430843698908436060012080078442CD
:1009200006D11820FFF7FCFC2968FFF725FC606260
:100930001048844206D11A20FFF7F2FC2968FFF71D
:100940001BFC60620C48844206D11C20FFF7E8FCC7
:100950002968FFF711FC60620848844206D11E2016
:10096000FFF7DEFC2968FFF707FC606270BD00003E
:10097000FCE0FFFF000004400010004000100440B5
:10098000002AC26801D00A4300E08A43C26070476F
:10099000006880B27047016070474269D209D20195
:1009A0000A4380210A434261704710B583684900B9
:1009B00030248C40A3438A401343836010BD10232E
:1009C0008B404168002A01D0194300E099434160FF
:1009D0007047000008B50A2000F092FD48A000F022
:1009E00099FD532000F0B0FD0A2000F089FD4A482F
:1009F000027A01231021532000F048FB01224749CD
:100A0000002000F0F3FA45490222491D012000F0C0
:100A1000EDFA42490B220A31022000F0E7FA3F4981
:100A200016220F31032000F0E1FA3C491F22143155
:100A3000042000F0DBFA394920221931052000F0AA
:100A4000D5FA042000F0DEFB022000F005FB0220B6
:100A500000F0A6FB00F092FB314D0020686100F031
:100A600010FB8006800F03D03021072000F010FC1F
:100A700000F040FB00906846007803283AD14021FE
:100A8000072000F005FC6846847823482646214666
:100A90000C3000F09DFB204920460C3100F0ACF8F2
:100AA00020A000F037FD6A69521C6A6190B200F024
:100AB0003BFD20A000F02EFD6846407800F044FD8C
:100AC0001EA000F027FD204600F03EFD1EA000F015
:100AD00021FD114F00240C3707E01FA000F01AFD84
:100AE000385D00F031FD641CE4B2A642F5D80A205E
:100AF00000F006FD00F0C0FAC007B9D0AFE7000073
:100B00006E726632344C30312B20205052582020E7
:100B10002043483D00000000600000205A150000FE
:100B200004000020636F756E745F726F6765723DBD
:100B30000000000020706970653D00002070616356
:100B40006B65745F737A3D002052656365697665F5
:100B5000446174613D0000002000000030B4744620
:100B6000641E2578641CAB4200D21D46635D5B00A9
:100B7000E31830BC184702E008C8121F08C1002A59
:100B8000FAD170477047002001E001C1121F002A0E
:100B9000FBD17047F8B50446154E0D4601200022E2
:100BA000317907E0AB5C8F18FFB2BB4200D0002068
:100BB000521CD2B2A242F5D3F178A14201D1012850
:100BC0000BD00C4800F0A6FC0A2000F099FC0A208B
:100BD00000F096FC0A2000F093FC641CE0B2F07078
:100BE000202801D90120F0702878401C3071F8BD10
:100BF00004000020580C0000F8B50446154E0D46C0
:100C000001200022B17807E0AB5C8F18FFB2BB4235
:100C100000D00020521CD2B2A242F5D37178A1427A
:100C200001D101280BD00CA000F074FC0A2000F0C8
:100C300067FC0A2000F064FC0A2000F061FC641CE0
:100C4000E0B27070202801D9012070702878401C13
:100C5000B070F8BD040000204552524F52202121AF
:100C60002121212121212121212121212121212174
:100C70002121212121212121212121212121212164
:100C80002121212121212121212121212121212154
:100C9000212121212121200008B5034604480068B4
:100CA00000901946009800F0FBFB0028F9D008BD21
:100CB0004800002010B5134CA168491CA160002811
:100CC00003D0E068401CE06002E02069401C206125
:100CD0000DA000F01FFC208980B200F025FC0DA0C3
:100CE00000F018FCA08980B200F01EFC0BA000F000
:100CF00011FC208A80B200F017FC0AA000F00AFC68
:100D000010BD000004000020636F756E745F736592
:100D10006E743D0020747864733D0000206D61782E
:100D200072743D0020000000124C0220207200F07E
:100D300025F8012204210020FFF746FA0E4D00227B
:100D400004212846FFF758FC002204212846FFF71B
:100D500063FC012204212846FFF756FC0320207083
:100D60002078022801D1FFF709FB20780328F7D16A
:100D7000FFF730FE6000002000000B4010B5104C63
:100D8000002202212046FFF75CFC002202211046CF
:100D9000FFF71AFA012202212046FFF72DFC01225B
:100DA00008212046FFF74DFC002208211046FFF7DE
:100DB0000BFA012208212046FFF71EFC10BD00009F
:100DC00000000B40000710B5000F0A2801D2303098
:100DD00000E0373000F070FB10BD000090B0032041
:100DE000614D012700045F4A00247F042946012346
:100DF0000F920E90FFF7AEFAFFF734FC002800D0F8
:100E0000FEE75B4859490068FFF7B6F9594E0146BD
:100E10003046FFF72DFA00213046FFF72BFA01216B
:100E20003046FFF71BFA01213046FFF70EFA524E0B
:100E30003760002204215148FFF7EEFB0522042110
:100E40000120FFF7C1F9052208210120FFF7BCF9B5
:100E5000052210210120FFF7B7F9052220210120EA
:100E6000FFF7B2F901208003009008200794029058
:100E700005940620424F0194039404940A9006942A
:100E80000894099469463846FFF70DFC012138465D
:100E9000FFF72DFC01213846FFF7FBFB2946012314
:100EA0000F9A0E98FFF756FA062210210020FFF73E
:100EB0008BF9062220210020FFF786F97D20C00251
:100EC0000B90BD156846058644868486C4862D4CE5
:100ED0000BA92046FFF712FD03212046FFF704FD72
:100EE000012202212046FFF74BFD01221146204638
:100EF000FFF746FD012229462046FFF741FD00226B
:100F000011462046FFF751FD202201212046FFF720
:100F10004CFD7F212046FFF740FD012200212046A5
:100F2000FFF74DFD012211462046FFF748FDA001C5
:100F30003060012204210020FFF746F9124C002204
:100F400004212046FFF758FB002204212046FFF72A
:100F500063FB012204212046FFF756FBFFF7E4FE66
:100F6000FEE700004000010010420000204E00009B
:100F70005C0000200060074000E100E000200B4022
:100F8000004000400000044000000B4010B515492F
:100F90000878401CC0B20870052802D900200870EB
:100FA0000DE000280BD001280CD0022810D0032817
:100FB00011D0042812D0052809D10B4904E00A49B0
:100FC000193901E008491439002000F0DFF910BD9B
:100FD00005490F39F8E704490A39F5E70249491F7D
:100FE000F2E700000400002073150000F8B5174672
:100FF000054606282DD2002901D000F0C7F90520AA
:1010000000F096F901263446AC40E2B2E1B202208B
:1010100000F02AF900223F21012000F025F90D48B7
:101020008078002805D0E2B2E1B21C2000F01CF963
:101030000AE0E1B200221C2000F016F92846113027
:10104000C0B2394600F024F9062045430148401D4E
:101050004655F8BD1C00002010B5040001D0022C3C
:1010600002D1E22000F00DF9012C01D0022C02D1B6
:10107000E12000F006F910BD10B5172000F0A0F82F
:1010800010BD10B5FF2000F0FCF810BDF8B5184CED
:101090001D0016460746217001D1202917D80020CF
:1010A00000F096F9062000F09AF9002D03D00120F7
:1010B000A070042202E00020A070024604211D203E
:1010C00000F0D2F8002201211D2000F0CDF800220E
:1010D00002211D2000F0C8F8304600F046F9022039
:1010E00000F035F93946052000F0D2F8F8BD0000CF
:1010F0001C00002038B5FFF7BFFFC0070024002800
:1011000007D068460470694608888978090408434E
:1011100038BD032069460870FFF7B3FF0007400F92
:1011200069464870144989780125002909D0602052
:1011300000F046F8694688702028E4D90D708C705C
:10114000E1E700280DD001280ED002280ED0032898
:101150000ED004280ED00528D5D1202069468870ED
:10116000D1E768468570CEE70220F7E70B20F5E768
:101170001620F3E71F20F1E71C00002010B5052220
:1011800006490A2000F053F8044C0020A41F6070A8
:10119000012000F04DF90220E07010BD2200002077
:1011A00010B50649C870022805D00222032100208C
:1011B00000F05AF810BD0322F8E700001C000020E0
:1011C00010B5012100F04CF9022000F011F910BD1A
:1011D000F8B50E4605460121612000F041F90024D2
:1011E000771E00900AE0BC4201D1022100E00321F9
:1011F000FF2000F035F92855641CE4B2B442F2D364
:101200000098F8BD10B50446022801D0042C04D182
:1012100060221146072000F027F8032C01D0042C8F
:1012200004D110221146072000F01EF810BDF8B5B9
:101230000E46202108431546012100F011F9012432
:10124000074676190CE0AC4203D1301B007802212E
:1012500002E0301B0078032100F002F9641CE4B2C4
:10126000AC42F0D93846F8BD70B514460D46064676
:10127000FFF7A6FFA84320430146304600F008F8D8
:1012800070BD202110B50843042100F0E9F810BD1D
:1012900070B50C4620210843012100F0E1F8054615
:1012A0000221204600F0DCF8284670BDFEB50F464E
:1012B00004460020694615460871062C1CD22046BB
:1012C0000621484319490A5C002A15D04618711CAA
:1012D00005221020FFF7ABFF711C05220A20FFF743
:1012E000A6FF1248401F047101214170A02000F0A8
:1012F000B7F800246E1E13E0FF20FEBDAC4201D201
:10130000385D00E0002069460870B44201D1022136
:1013100000E003216846007800F0A2F8641CE4B203
:10132000AC42EBD368460079FEBD000021000020EE
:1013300010B5032807D0042807D00322032108464C
:10134000FFF792FF10BD0122F8E70222F6E710B581
:101350000C210022002802D0012804D00C220020F9
:10136000FFF782FF10BD0822F9E710B528210622F9
:10137000002804D0012805D0022803D101E026224C
:1013800000E00E220620FFF76FFF10BD70B50628A3
:1013900001D3002070BD06220C4B4243D318022813
:1013A0000AD200229D180C78521CD2B2491C6C70D3
:1013B000052AF7D3052202E00979597001220A3083
:1013C000591CC0B2FFF733FF70BD000021000020A0
:1013D00010B502460F210420FFF746FF10BD00079D
:1013E00010B5020EF0210420FFF73EFF10BD0000F3
:1013F00038B50E4D0446042801D0012C04D100223A
:1014000008212846FFF71DF9FF2000F01FF8694664
:101410000870042C01D0022C04D101220821284696
:10142000FFF70FF96846007838BD000000000B4058
:1014300010B5054B002801D0012200E00022022156
:101440001846FFF7FEF810BD00000B400349086185
:1014500048698007FCD50869C0B270470040004069
:10146000F8B50E4D0C460646042901D0012C04D1D6
:10147000002208212846FFF7E4F83046FFF7E6FF90
:1014800069460870042C01D0022C04D101220821E5
:101490002846FFF7D6F868460078F8BD00000B40F4
:1014A000044A404212688018884201D301207047E4
:1014B000002070474800002070B505460D4E0E4CC8
:1014C00004E0012202213046FFF75AFA60682168E1
:1014D000401CC0B28842F4D0084861684554606836
:1014E000401CC0B26060012202213046FFF748FA7A
:1014F00070BD0000000004404C0000208C01002062
:1015000010B50A2803D10D20FFF7D6FF0A20FFF7F8
:10151000D3FF10BD10B5044602E0641CFFF7CCFFFA
:1015200020780028F9D110BD10B50446000BFFF754
:1015300049FC200AFFF746FC2005000EFFF742FC9D
:10154000E0B2FFF73FFC10BD10B504460009FFF7FD
:1015500039FC2046FFF736FC10BDF2F1E2237F781C
:101560005634127178563412727856341273785693
:10157000341274785634127598150000000000205B
:1015800060000000760B0000F815000060000020ED
:1015900030050000860B0000000000000001300153
:1015A00030012F00000000000000000000000000DB
:1015B0000000000010000000FF01B7195195E7017D
:1015C00048E1F2F1C20148E1F2F1C30148E1F2F170
:1015D000C40148E1F2F1C50148E1F2F1C6000000A2
:1015E00000000000000000000000000000000000FB
:0815F00000000000006CDC02A9
:04000005000000C136
:00000001FF
