:020000040000FA
:10000000D80A002055010000B1030000AD03000034
:10001000AF0300006B020000230700000000000097
:10002000000000000000000000000000E1040000EB
:10003000350300000000000011040000E30400008C
:100040006F0100006F0100006F0100006F010000F0
:100050006F0100006F0100006F0100006F010000E0
:100060006F0100006F0100006F0100006F010000D0
:100070006F0100006F0100006F0100006F010000C0
:100080006F0100006F0100006F0100006F010000B0
:100090006F0100006F0100006F0100006F010000A0
:1000A0006F0100006F010000000000006F01000000
:1000B0006F0100006F0100006F0100006F01000080
:1000C0006F0100006F0100006F0100006F01000070
:1000D0006F010000000000000000000000000000B0
:1000E00000000000150200006F0100006F01000019
:1000F0006F0100006F0100006F0100006F01000040
:100100006F010000450500006F0100006F01000055
:100110006F0100006F010000000000006F0100008F
:100120006F0100006F0100006F0100006F0100000F
:100130006F0100006F0100006F010000000000006F
:1001400000000000000000000000000000000000AF
:100150006F0100000648804706480047FEE7FEE7BB
:10016000FEE7FEE7FEE7FEE7FEE7FEE7FEE7FEE767
:10017000E504000079010000DFF80CD000F006F87B
:10018000004800472D120000D80A0020064C074DF9
:1001900006E0E06840F0010394E807009847103457
:1001A000AC42F6D3FFF7ECFF9C1D0000BC1D000025
:1001B0002DE9F0479146164A4FF0FF0A02EBC005C1
:1001C000002200240AFA02F02346084219D04FF018
:1001D000010C00200CFA02FC4FF00F0821FA00F687
:1001E00016EA0C0F06D0860008FA06F73C4309FA17
:1001F00006F73B43401C0828F0D32868A043184367
:10020000286008322D1D082ADBDDBDE8F0870000DC
:100210002020024003480168491C0160024800F0A8
:1002200005B800001000002000600740416821F080
:1002300001014160BFF34F8F70470029016802D070
:1002400041F0040101E021F0040101607047002940
:10025000016802D041F0010101E021F001010160DB
:100260007047C160704781607047FEE770B5124EFD
:100270000446706B850F00F023F82060012D05D037
:100280000E48022D02D0032D00D000206060316A9C
:10029000C840A0603168C1F3015120FA01F1E1606A
:1002A000B16AC1F30241072902D0C840206170BD84
:1002B0000621B0FBF1F0F9E70080084000127A0057
:1002C0000C49D1F8A400002813D0086A0A48D1F8D4
:1002D000FC1301290DD0094A9169C1F3C55101B937
:1002E00040219269C2F3415301229A40B0FBF2F0DF
:1002F000484370470000104300127A000080084015
:1003000000B585B06846FFF7B1FF039805B000BDA2
:10031000F0B5074F7C6AFD6A3E6B84438D4396437C
:1003200013B104430D4316437C62FD623E63F0BD8E
:10033000008008407047002A026801D00A4300E0AC
:100340008A4302607047000010B52021034800F086
:1003500023F808B1002010BD012010BD00600B4043
:10036000002A426801D00A4300E08A434260704795
:1003700042B1012A09D082688A438260C2688A43F6
:10038000C260704782680A43F7E7C2680A43C260E6
:1003900082688A4382607047C069084000D00120AB
:1003A00070470AB14162704781627047FEE7FEE71D
:1003B000704700F01F02012191404009800000F1C8
:1003C000E020C0F8001170470F4A0E480121C2F822
:1003D00000130E4903E0D1F80821272A03D0401E5C
:1003E000F9D101207047D1F82402D1F82432C0435A
:1003F000C1F82402D1F824228242F9D1C1F8243272
:1004000000207047005125020080084000A00640EF
:1004100070470029016802D041F0010101E021F09C
:1004200001010160704730B5D1E90543E4B14FF4F3
:100430000072DA4022438C680B682343D1E90345FC
:100440002C432343CC692343134343604B6A4A68DC
:100450001A430B6A42EA03128261896A4FF0FF3243
:1004600002EB5101C16030BD4FF480729A40E2E767
:1004700010B5012210210320FFF79AFE094C00223B
:1004800010212046FFF757FF002210212046FFF7DA
:100490006FFF012210212046FFF762FF40216162B9
:1004A00010BD000000600B4010B500221021032099
:1004B000FFF77EFE044C012210212046FFF73BFF90
:1004C0004021A16210BD000000600B4000290168BE
:1004D00002D041F0080101E021F0080101607047FD
:1004E0007047704714480121C0F80013134AC2F83E
:1004F000A810D2F80831002BFBD0002313624FF074
:1005000010638361C2F8A410D2F80431002BFBD031
:100510000B4AD2F8003223F00703DB1CC2F800328A
:100520000162426822F00302521C4260426BB1EB4E
:10053000927FFBD17047000000800840000010430C
:10054000000008402DE9F0411E4EB06880071FD51D
:100550001D4F38681D4D2968884205D100220221AF
:10056000304600F05BF813E0DFF86480002429686F
:10057000304618F8011000F0C2F82888401CC0F37B
:10058000090028603968814202D0641C082CEED32F
:10059000B1683046490712D50E4C21680E4A491CF5
:1005A000C1F309011268914209D000F09BF80B4990
:1005B000226888542068401CC0F309002060BDE810
:1005C000F081000000100040040000200000002026
:1005D000740000200C00002008000020740400209B
:1005E000C2680A43C260704770B505460C46C888A9
:1005F00089882A690843218922F01F021143084390
:100600002861686A618920F0030008436862FFF787
:1006100077FE2168B0FBF1F0A86370BD002A426844
:1006200001D00A4300E08A434260704770B5154626
:100630000446FFF7D9FF06212046FFF7D1FF012D21
:1006400005D0A826022D0BD0032D10D025E00021C7
:10065000204600F056F80121204600F058F81CE032
:100660000021204600F038F8012211460DE000215B
:10067000204600F046F80121204600F048F800210D
:10068000204600F029F801220F212046FFF7C6FF7F
:1006900026620121204600F028F8B4F1804F04D0F2
:1006A0000A48844203D130200AE02F2008E008489D
:1006B000844201D1312003E00648844204D1322033
:1006C000BDE87040FFF775BE70BD0000000004403B
:1006D0000010004000100440C26822F0C0020A432B
:1006E000C2607047006880B270470029C16802D0BC
:1006F00041F4007101E021F40071C16070470160B4
:100700007047C26822F030020A43C2607047002975
:10071000C16802D041F4807101E021F48071C160B0
:100720007047FEE702E008C8121F08C1002AFAD18C
:1007300070477047002001E001C1121F002AFBD161
:100740007047000070B50DA001F001FB0D4D287839
:1007500001F01AFB0CA001F0FAFA00242819007924
:1007600001F012FB0CA001F0F2FA641CF6D00A2092
:1007700001F0E2FA09490120087270BD5258444C58
:10078000454E3D00A8080020202052584649464FBB
:100790005B5D3D200000000020000000CC08002030
:1007A0000F4A68B101280ED002280FD0032810D0BC
:1007B000042811D0052812D1D2E9120100F099BF06
:1007C000D2E90801FAE7D2E90A01F7E7D2E90C0118
:1007D000F4E7D2E90E01F1E7D2E91001EEE7704744
:1007E000180000202DE9F041154E04460D46012069
:1007F0000022717807E0AB5C8F18FFB2BB4200D0DB
:100800000020521CD2B2A242F5D301280BD00DA079
:1008100001F09DFA0A2001F08FFA0A2001F08CFA0B
:100820000A2001F089FA641CE0B23070202801D956
:10083000012030702878401C7070BDE8F081000005
:10084000180000204552524F522021212121212100
:100850002121212121212121212121212121212188
:100860002121212121212121212121212121212178
:100870002121212121212121212121212121212168
:100880002121200008B5034604480068009019465D
:10089000009801F01FFA0028F9D008BD10000020D0
:1008A0000248052101700021416070477408002052
:1008B000164910B504200870154C6068F8B9207806
:1008C000E8B1207804280BD112A001F040FA2820CA
:1008D00001F05AFA0A2001F02FFA4FF480606060AC
:1008E000207805280BD110A001F031FA282001F062
:1008F0004BFA0A2001F020FA4FF4A060606000F08B
:10090000C7F8BDE8104000F019B80000140000203E
:100910007408002035363032424C4520205054585F
:1009200020202043483D000035363032424C4520DF
:100930002050525820202043483D000070B5484CBC
:10094000606840F20155A0F5A060052828D2DFE8D4
:1009500000F0031728767D000021152001F064F9CE
:100960000121032001F060F9002000F0BBFE3F21CF
:10097000372001F059F900F0B9FE00F043FE63E0C2
:10098000384904200870002000F0ACFE0121152039
:1009900001F04AF901F098F9A06040F2025060605D
:1009A00070BD032000F09EFE3C2001F045F8FFF7EB
:1009B000CBFC0028F4D001F012F904464006EFD534
:1009C000294DE869401CE86100F07DFE01F004F962
:1009D000002000F087FE25A001F0B9F9292001F0E0
:1009E0002BF801F0D1F9C4F3420401F005F91C49D8
:1009F000343111F8040BFFF7F5FE1EA001F0A7F942
:100A0000E86901F0AEF91EA001F0A1F9204601F05D
:100A1000BBF91EA001F09BF9FFF794FE01F0DCF892
:100A20008006BDD400F0A0FC20460D4C0C3404F12F
:100A30000802217900F0D4FEF420607070BD00F04F
:100A40002FFDA068142105E0656070BD00F028FD51
:100A5000A068C82101F03EF90028F5D170BD000062
:100A600074080020140000201800002072737369BD
:100A70003D2000007061636B6574735F693D200009
:100A80002052585F505F4E4F3D0000002020000074
:100A90002DE9F047904C6068904EA0F5806040F2E0
:100AA00003454FF47A7940F2044804F10C07072813
:100AB00046D2DFE800F0041630479BF9F7008021AA
:100AC000032001F0B1F800F09DFD0021152001F098
:100AD000ABF8002000F006FE0121372001F0A4F859
:100AE0002DE00021152001F09FF800F0F8FD01F045
:100AF000EBF8A06040F202406060002000F0F2FDE0
:100B0000262000F099FF00F007000128F8D1BDE889
:100B1000F04701F07FB8A068502101F0DBF8002811
:100B20000ED000F0D6FD002000F0DCFD262000F005
:100B300083FF00F007000228F8D101F06BF8656030
:100B4000BDE8F08701F048F88006F9D401F044F8D8
:100B5000800614D4012000F029FC3878FFF720FE2D
:100B6000387848B1012807D0022805D0032803D0DF
:100B7000042801D0052802D1132000F0CBFB13205C
:100B800000F0C8FB132000F0C5FB554D00220121E9
:100B90002846FFF706FC012211462846FFF701FC14
:100BA000002201212846FFF7FCFB012211462846BE
:100BB000FFF7F7FB002201212846FFF7F2FB01F0C7
:100BC0000BF83069484504DA00F086FD3069401CB6
:100BD0003061002000F086FD262000F02DFF00F09F
:100BE00007000428F8D1C4F80480A9E7FFF7ACFB9C
:100BF0000028A5D03BA001F0AAF8292000F01CFF96
:100C000001F0C2F800F0EBFF0546C00630D500F059
:100C10005AFD012000F0CAFB3878FFF7C1FD112012
:100C200000F078FB7069401C706130A001F08FF813
:100C3000306901F096F82EA001F089F8706901F092
:100C400090F82EA001F083F8B06901F08AF82EA088
:100C500001F07DF8142000F0EFFE01F095F80A2075
:100C600001F06AF801F030F8A06040F206406060E0
:100C7000A80602D500F0B0FFFEE768060DD45FE7D6
:100C800000F0BAFF22A001F062F8387801F07CF899
:100C900022A001F05CF8FFF755FD00F09DFFC007B2
:100CA000EED04DE709E0FFE7A068642101F012F8FB
:100CB00000289AD00120306141E7A068642101F04A
:100CC00009F8002891D0306948458CDA00F004FD1D
:100CD0003069401C306186E774080020180000204D
:100CE00000800B40727373693D20000052543A003B
:100CF00020204D41585F52543A00000020205458A3
:100D00005F44533A0000000020205254323A000061
:100D10007A7A7A5F706970653D00000020200000DB
:100D2000074910B504200870064C05202070607833
:100D3000002803D1FFF7B4FD0120607010BD000052
:100D400014000020CC0800200E484021C170102162
:100D500081700122427103210171202181710021E2
:100D6000C17101724272022282720422C272017344
:100D700000F0B6F900F008F8FFF79AFDFFF7D0FF92
:100D8000FAE7000018000020D24910B504200870CE
:100D900000F09CFC00F09DFC00F092FC4021002043
:100DA00000F042FF002000F09DFC5C21022000F0DA
:100DB0003BFF0021032000F037FF7021042000F0EA
:100DC00033FF8421062000F02FFF5021072000F080
:100DD0002BFF7F21082000F027FF2321092000F0AE
:100DE00023FF00210A2000F01FFF03210B2000F049
:100DF0001BFF2C210D2000F017FF01210E2000F019
:100E000013FF1C210F2000F00FFF2821102000F0FD
:100E10000BFFB148C178827840791143014311201A
:100E200000F002FF2021122000F0FEFE102113200E
:100E300000F0FAFE0021142000F0F6FE002115203B
:100E400000F0F2FE1F21162000F0EEFE002000F060
:100E500049FC0021212000F0E7FE0A21272000F0B4
:100E6000E3FE3F212A2000F0DFFE07212B2000F0C7
:100E7000DBFE01212C2000F0D7FE08212D2000F000
:100E8000D3FE10212E2000F0CFFE18212F2000F0DD
:100E9000CBFE1C21302000F0C7FE2021312000F0C5
:100EA000C3FE3F21322000F0BFFE7221332000F04C
:100EB000BBFE7321342000F0B7FE7421352000F012
:100EC000B3FE7521362000F0AFFE3F21372000F041
:100ED000ABFE1021382000F0A7FE0021392000F0E1
:100EE000A3FEAF213A2000F09FFE01213C2000F03C
:100EF0009BFE04213D2000F097FE012000F0F2FB54
:100F00000821202000F090FE7421212000F08CFEAA
:100F10001121222000F088FE2021232000F084FEF1
:100F20000021242000F080FE0021252000F07CFE1E
:100F30004021262000F078FE0021272000F074FEDA
:100F40004221282000F070FE0421292000F06CFED0
:100F500002212B2000F068FE0021312000F064FE09
:100F60000021322000F060FE0221332000F05CFE00
:100F70000321352000F058FE022000F0B3FB57217A
:100F8000212000F051FE0121262000F04DFE6621B7
:100F9000272000F049FEA021282000F045FE9321E3
:100FA000292000F041FE11212A2000F03DFE1321EE
:100FB0002B2000F039FE18212D2000F035FEEF2106
:100FC0002E2000F031FE56212F2000F02DFE0921A9
:100FD000302000F029FE2021312000F025FE0821DC
:100FE000322000F021FE2521332000F01DFECF210C
:100FF000342000F019FE3021352000F015FE0221CA
:10100000362000F011FE2021382000F00DFE902146
:10101000392000F009FE57213A2000F005FE572143
:101020003B2000F001FE4B213C2000F0FDFD3F2164
:101030003D2000F0F9FD02213E2000F0F5FD0320E7
:1010400000F050FB01212C2000F0EEFD00212D20AE
:1010500000F0EAFD40212E2000F0E6FD0E212F20B9
:1010600000F0E2FD4021392000F0DEFD00213A20B1
:1010700000F0DAFD1F213B2000F0D6FD8B2133204C
:1010800000F0D2FD022000F02DFB0821202000F00E
:10109000CBFD0220FFF7F6FB012000F023FB5721D8
:1010A0003D2000F0C1FD5D213E2000F0BDFD352159
:1010B0002A2000F0B9FD09A000F049FE2A2000F026
:1010C000BBFCC007FAD100F047F8BDE81040002093
:1010D00000F008BB140000201800002050525800F7
:1010E00070B500F037F8012220210320FFF760F8E7
:1010F000164C002220212046FFF71DF90022202156
:101100002046FFF735F9012220212046FFF728F974
:101110000122950329460320FFF74AF800222946B9
:101120002046FFF708F9002229462046FFF720F95C
:10113000012229462046FFF713F900F0E5F904499A
:101140000020087048600C31487070BD00600B4092
:101150007408002000F056B91CB5244CD4E90801ED
:1011600000F0C7FA684600F075FB21A000F0EFFD23
:101170000098000E00F008FE0098C0F3074000F051
:1011800003FE0098C0F3072000F0FEFD0098C0B2F7
:1011900000F0FAFD9DF8040000F0F6FD0A2000F0D2
:1011A000CBFDD4E90A0100F0DFFA684600F056FBF7
:1011B00014A000F0CCFD0098000E00F0E5FD0098B2
:1011C000C0F3074000F0E0FD0098C0F3072000F0F6
:1011D000DBFD0098C0B200F0D7FD9DF8040000F0E0
:1011E000D3FD0A2000F0A8FD1CBD0000180000205F
:1011F0007265616420706970652030204944206701
:10120000657420007265616420706970652031200A
:10121000494420676574200000F00F000A2801D2BD
:10122000303000E0373000F061BD00008EB00024A7
:101230004FF4C81044F21041304A0123FFF768F818
:10124000FFF7C2F800B1FEE72D48006844F62061C0
:10125000B0FBF1F12B4D2846FFF703F8002128469B
:10126000FFF701F801212846FEF7F1FF012128468A
:10127000FEF7E3FF01262449700209250427C1F87F
:101280000001002280212148FFF772F80522F02199
:101290000020FEF78DFFB003CDE900040820CDE962
:1012A000020404940594069407940894CDE9094532
:1012B0004FF0402569462846FFF7B5F8012128463A
:1012C000FFF704F901212846FFF7A3F806220C21B5
:1012D0000120FEF76DFF4FF47A300B90ADF83060CF
:1012E000ADF83440ADF83270ADF8364003220BA9AA
:1012F0000748FFF79BF9FFF727FDFEE740000100D5
:10130000700000200060074004E000E000000B4097
:101310000010004010B5094C024604F10801606855
:10132000112A02D0132A03D004E000F0E7F901E00B
:1013300000F020FAF420607010BD0000800800204A
:1013400030B5084B18700020596005E01D1812F8E0
:10135000014B401C2C72C0B28842F7D3FF2058705A
:1013600030BD00008008002030B50F4D89B0E8780E
:10137000401CC0B2E870052801D90020E870202187
:10138000297168796B46401CC2B26A71002014183A
:101390001C54401CC0B28842F9D31A46E878FFF7C3
:1013A000CFFF09B030BD00006800002030B5144AFE
:1013B00089B038B11078401CC0B21070052801D92E
:1013C00000201070052010705178491CC9B251706E
:1013D000202901D9012151702021517093786C4648
:1013E0005B1CDBB2937000229D18A554521CD2B234
:1013F0008A42F9D32246FFF7A3FF09B030BD0000AF
:101400006800002010B5254C0120606201460022D2
:101410000320FEF7CDFE012211462046FEF78BFF8A
:1014200002206062014600220320FEF7C1FE012275
:1014300002212046FEF77FFF042060620146002261
:101440000320FEF7B5FE012204212046FEF773FFBC
:101450000820A062014600220320FEF7A9FE012217
:1014600008212046FEF767FF1020A06201460022F7
:101470000320FEF79DFE012210212046FEF75BFFB0
:101480004020A062014600220320FEF791FE204684
:101490000122BDE810404021FEF74DBF00600B4027
:1014A00070B5FEF751FF00281FD000F098FB4006F2
:1014B0001BD50E4D00F090FBC00716D1022000F0A6
:1014C000BBFAC0F3420400F097FB2878291DFFF710
:1014D00089F907A000F03BFC204600F055FC09A06C
:1014E00000F035FCFFF72EF9E4E770BDA8080020F6
:1014F0005F5F5F5F5F5F5F5F5F5F5F52585F505F1F
:101500004E4F3D002020000010B500220121042094
:10151000FEF74EFE002202210420FEF749FE0421C0
:1015200000220846FEF744FE002208210420FEF7B0
:101530003FFE002210210420FEF73AFE0022202167
:101540000420FEF735FE002240210420FEF730FE85
:10155000002280210420FEF72BFE294C0122114697
:101560002046FEF7E8FE012202212046FEF7E3FEB8
:10157000012204212046FEF7DEFE0122082120463A
:10158000FEF7D9FE012210212046FEF7D4FE0122EB
:1015900020212046FEF7CFFE012240212046FEF703
:1015A000CAFE012280212046FEF7C5FE002201214D
:1015B0002046FEF7F6FE002202212046FEF7F1FE4D
:1015C000002204212046FEF7ECFE002208212046DE
:1015D000FEF7E7FE002210212046FEF7E2FE002281
:1015E00020212046FEF7DDFE002240212046FEF7A6
:1015F000D8FE20460022BDE810408021FEF7D1BE73
:1016000000800B407E21042000F00EBBF0B52A4A7A
:101610000823936229490C78E5074FF0010400D0B4
:1016200094620D78AE074FF0020500D595620978F7
:101630004FF00406490700D5966207064FF01001E7
:1016400001D5516200E0916253629362470601D571
:10165000516200E0916253629362870601D5516244
:1016600000E0916253629362C70601D5516200E0C7
:10167000916253629362070701D5516200E0916263
:1016800053629362470701D5516200E09162536251
:101690009362870701D5516200E0916253629362C1
:1016A000C00701D0516200E09162536293625462BC
:1016B00055625662F0BD000000600B40140000202F
:1016C0000820FFF7A3BF0920FFF7A0BF0A20FFF7FC
:1016D0009DBF0C20FFF79ABF0E20FFF797BF0F208A
:1016E000FFF794BF40F02000FFF790BF8920FFF77D
:1016F0008DBF0A460146102000F0C2BA2DE9F0471E
:101700000F46060029D0164D0820A862154801781A
:101710004FF0010AC90701D0C5F828A001784FF0A1
:101720000208890701D5C5F8288000784FF0040920
:10173000400701D5C5F82890112000F03BF900249E
:1017400003E0385D00F036F9641CB442F9D3C5F803
:1017500024A0C5F82480C5F82490BDE8F0870000D7
:1017600000600B40140000200A460146122000F0E1
:1017700087BA00002DE9F0470F46060029D0164D24
:101780000820A862154801784FF0010AC90701D066
:10179000C5F828A001784FF00208890701D5C5F8DF
:1017A000288000784FF00409400701D5C5F828903B
:1017B000132000F0FFF8002403E0385D00F0FAF891
:1017C000641CB442F9D3C5F824A0C5F82480C5F838
:1017D0002490BDE8F087000000600B40140000205A
:1017E0002DE9F04717460D002ED0184E0821B162A2
:1017F00017490A784FF0010AD20701D0C6F828A08D
:101800000A784FF00209920701D5C6F828900978A6
:101810004FF00408490701D5C6F828801830C0B237
:1018200000F0C8F8202D00D92025002404E0385D00
:1018300000F0C0F8641CE4B2AC42F8D3C6F824A0AF
:10184000C6F82490C6F82480BDE8F08700600B40FD
:10185000140000200146902000F072B90146922049
:1018600000F06EB92DE9F05F504C4FF008090E46BC
:101870008346C4F828904E480178C90701D0012159
:10188000A1620178890701D50221A1620078400791
:1018900001D50420A062BF2000F08CF8FEF7E8FD1F
:1018A000402060620025A2466DE000241021D04651
:1018B0005046FEF771FD012800D180244F46404676
:1018C000C8F82490C8F828901021FEF765FD01287B
:1018D00001D144F040044046C8F82470C8F828708C
:1018E0001021FEF759FD012801D144F020043946AA
:1018F000B94647464046C8F82410C8F828101021B9
:10190000FEF74AFD012801D144F01004B8463846DC
:10191000C7F82490C7F828901021FEF73DFD012854
:1019200001D144F008044F464046C8F82490C8F856
:1019300028901021FEF730FD012801D144F0040465
:101940003946B94647464046C8F82410C8F828101A
:101950001021FEF721FD012801D144F00204C84600
:101960003846C7F82490C7F828901021FEF714FDD8
:10197000012801D144F00104C7F82480C7F8288069
:1019800006F8014B6D1C5D458FD3FEF78DFD4021A0
:10199000CAF828100121CAF824100221CAF824101C
:1019A0000421CAF82410BDE8F09F000000600B403D
:1019B0001400002010B51F4A03064FF0100101D596
:1019C000516200E09162082353629362440601D59C
:1019D000516200E0916253629362840601D55162C4
:1019E00000E0916253629362C40601D5516200E047
:1019F000916253629362040701D5516200E09162E3
:101A000053629362440701D5516200E091625362D0
:101A10009362840701D5516200E091625362936240
:101A2000C00701D0516200E09162536293620020CE
:101A300010BD000000600B402DE9F0473E4D082628
:101A4000AE623E490A784FF0010AD20701D0C5F8CC
:101A500028A00A784FF00208920701D5C5F828801F
:101A600009784FF00407490700D5AF6240F0C00085
:101A7000FFF7A0FFFEF7FCFC4FF040092846C5F831
:101A8000249000241021FEF787FC012800D1802437
:101A900028466E62AE621021FEF77EFC012801D15D
:101AA00044F0400428466E62AE621021FEF774FCDA
:101AB000012801D144F0200428466E62AE62102154
:101AC000FEF76AFC012801D144F0100428466E623A
:101AD000AE621021FEF760FC012801D144F0080439
:101AE00028466E62AE621021FEF756FC012801D135
:101AF00044F0040428466E62AE621021FEF74CFCEE
:101B0000012801D144F0020428466E62AE62102121
:101B1000FEF742FC012801D144F001046E62AE627E
:101B2000FEF7C2FCC5F82890C5F824A0C5F82480AB
:101B30006F622046BDE8F08700600B401400002073
:101B40002DE9F047144C0D460821A1620426A66237
:101B5000FFF730FFFEF78CFC4027676200F01EF8AD
:101B6000287100F01BF8824600F018F8814600F05A
:101B700015F8804600F012F808EB002109EB01216E
:101B80000AEB01202860FEF78FFCA762012060624B
:101B90006662BDE8F087000000600B402DE9F0416F
:101BA00000240C4F802526464FF0080810213846A7
:101BB000FEF7F2FB012800D12E43C7F82480C7F8B6
:101BC0002880641C6D08E4B2082CEFD33046BDE8D1
:101BD000F081000000600B400520FFF72DBF10B51D
:101BE0000420FFF729FF040003D00146042000F081
:101BF0001BF8204610BD000070B50C20FFF71CFF3D
:101C0000040004D0024D291DFFF72CFE2C6070BD8E
:101C1000A808002010B50020FFF764FDBDE81040C3
:101C20002620FFF709BF00002DE9F041124C88463D
:101C30000821A16211490A784FF00105D20700D0AE
:101C4000A5620A784FF00206920700D5A6620978CD
:101C50004FF00407490700D5A76200F03F0040F0AD
:101C60004000FFF7A7FE4046FFF7A4FE65626662EC
:101C70006762BDE8F081000000600B4014000020A6
:101C80002DE9F0410F4D0C4608211746A9620426A4
:101C9000AE62FFF78FFEF8B2FFF78CFEE0B2FFF7FF
:101CA00089FEC4F30720FFF785FEC4F30740FFF762
:101CB00081FE200EFFF77EFE012068626E62BDE8A5
:101CC000F081000000600B40014800687047000090
:101CD00010000020044A404212681044884201D398
:101CE00001207047002070471000002070B50546A5
:101CF0000E4E0F4C04E0012202213046FEF78EFC0E
:101D000060682168401CC0F309008842F3D009488C
:101D1000616845546068401CC0F30900606030464B
:101D2000BDE8704001220221FEF778BC001000409F
:101D3000000000207400002010B50A2803D10D20F7
:101D4000FFF7D4FF0A20BDE81040FFF7CFBF10B562
:101D5000044602E0641CFFF7C9FF20780028F9D18F
:101D600010BD10B50446C0F30730FFF755FAC4F3B1
:101D70000720FFF751FAC4F30710FFF74DFAE0B25E
:101D8000BDE81040FFF748BA10B504460009FFF758
:101D900043FA2046BDE81040FFF73EBABC1D0000E4
:101DA000000000207400000024070000301E000026
:101DB00074000020640A00003407000000000000E6
:101DC0000000000000000000000000000000000013
:101DD0000000000000000000000000000000000003
:101DE00000000000000000000000000000000000F3
:101DF00000000000EEF24AD10700000023F6E1F2F5
:101E00007100000023F6E1F27200000023F6E1F217
:101E10007300000023F6E1F27400000023F6E1F203
:101E200075000000FF002FFF002F000000A24A04F1
:0400000500000155A1
:00000001FF
