:020000040000FA
:10000000900B0020590100000F070000FD060000C2
:100010000D070000F3020000890C0000FFFFFFFF46
:10002000FFFFFFFFFFFFFFFFFFFFFFFF19080000BB
:10003000F1030000FFFFFFFF710700001B08000035
:10004000DF010000DF010000DF010000FFFFFFFF14
:10005000DF010000DF010000DF010000DF01000020
:10006000DF010000DF010000DF010000DF01000010
:10007000DF010000DF010000DF010000DF01000000
:10008000DF010000DF010000DF010000DF010000F0
:10009000DF010000DF010000DF010000DF010000E0
:1000A000DF010000DF010000FFFFFFFFDF010000B4
:1000B000DF010000DF010000DF010000DF010000C0
:1000C000DF010000DF010000DF010000DF010000B0
:1000D000DF010000FFFFFFFFFFFFFFFFFFFFFFFF4C
:1000E000FFFFFFFF9D020000DF010000DF010000B5
:1000F000DF010000DF010000DF0100000109000056
:10010000A1090000DF010000DF010000DF010000A5
:10011000DF010000DF010000DF010000DF0100005F
:10012000DF010000DF010000DF010000DF0100004F
:10013000DF010000DF010000DF010000DF0100003F
:10014000DF010000DF010000DF010000DF0100002F
:10015000DF010000DF01000021488047214880477F
:100160002148004721480169002908D14169002937
:1001700005D18169002902D1C169002909D01C4833
:10018000C1680901090D00290FD001290DD00229EC
:100190000BD0BFF34F8F4FF0005016490160164946
:1001A0001448C860BFF34F8FFEE74FF0005001685E
:1001B0001048884200D0704710484FF0010101609C
:1001C0004FF000504FF0000101607047FEE7FEE77E
:1001D000FEE7FEE7FEE7FEE7FEE7FEE7FEE7FEE7F7
:1001E000650100001D080000010200000003084036
:1001F000800108400400FA0500ED00E0008108409D
:10020000DFF80CD000F006F800480047790E000037
:10021000900B0020064C074D06E0E06840F001031B
:1002200094E8070098471034AC42F6D3FFF7ECFF90
:1002300054170000741700002DE9F0479146164A44
:100240004FF0FF0A02EBC005002200240AFA02F078
:100250002346084219D04FF0010C00200CFA02FC92
:100260004FF00F0821FA00F616EA0C0F06D08600B0
:1002700008FA06F73C4309FA06F73B43401C0828F6
:10028000F0D32868A0431843286008322D1D082A9F
:10029000DBDDBDE8F0870000202002400348016854
:1002A000491C0160024800F005B800004800002029
:1002B00000600740416821F001014160BFF34F8FAA
:1002C00070470029016802D041F0040101E021F0EB
:1002D0000401016070470029016802D041F001016A
:1002E00001E021F0010101607047C1607047816049
:1002F0007047FEE770B5164D0446686B00F00706C0
:1003000000F02AF813492060082E1AD2DFE806F020
:100310001904060619191316606001E008466160A9
:10032000296AC840A060A96AC1F3024107290AD01E
:10033000C840E06070BD4FF40040EDE74FF4FA4074
:10034000EAE70020E8E70621B0FBF1F0F1E7000062
:100350000080084000127A000C49D1F8A40000285F
:1003600013D0086A0A48D1F8FC1301290DD0094AB4
:100370009169C1F3C45101B940219269C2F341535B
:1003800001229A40B0FBF2F048437047000010434E
:1003900000127A00008008401FB50B4A410902EBA9
:1003A000810200212E2800D1022100F01F001268D6
:1003B000032383401A40C24054186846FFF79AFF4F
:1003C000029804B0E04010BD38800840F0B5074FF7
:1003D0007C6AFD6A3E6B84438D43964313B10443AC
:1003E0000D4316437C62FD623E63F0BD0080084011
:1003F000704700008F48027A01232021282000F056
:100400009FFE8D49002000F037FE042000F041FFE0
:10041000022000F07DFE032000F008FF874F012638
:100420007E71DFF81082002008F12C08B97903E012
:100430000A1808F80020401C7A799042F8DB491C21
:10044000B9717C4920222C31002000F0A1FF4FF02F
:10045000200B4FF47A79FE6002E0F868A0427CDC61
:10046000012001F0CDF8E120401EC0B2FCD20020F6
:1004700001F0C6F800F061FE044610F0300F01D123
:100480006006F7D5E00646D51021072000F071FF81
:1004900038693D46401C386169A001F024F9E868DC
:1004A00001F02BF967A001F01EF9286901F025F988
:1004B00067A001F018F9686901F01FF90A2001F03E
:1004C00007F9E12000F050FF6879401CC0B2687164
:1004D000202800D96E7185F805B000F0BBFD002022
:1004E0004246A97902E00B181354401C6B799842DC
:1004F000F9DB491CA971E868484509DC6A794D496E
:1005000000202C3100F044FFE868401CE86002E065
:10051000022000F0FDFDA0067DD57869401C7861C1
:1005200047A001F0E0F8F86801F0E7F845A001F015
:10053000DAF8386901F0E1F845A001F0D4F87869FB
:1005400001F0DBF80A2001F0C3F87879401CC0B252
:100550007871202800D97E7100E066E087F805B048
:1005600000F022FE0446C0B203280ED0202107204E
:1005700000F0FFFE00F06EFD78793C46202800D99F
:10058000667100204246A17934E06021072000F026
:10059000F0FE2848C4F3074529460C3000F05DFE04
:1005A000244928460C3100F07FFB2CA001F09BF879
:1005B000284601F0B5F82DA001F095F82CA001F027
:1005C00092F8DFF870A000240AF10C0A08E027A0D6
:1005D00001F089F81AF8040001F0A2F8641CE4B2F2
:1005E000A542F4D80A2001F073F8C3E70B1813549E
:1005F000401CC0B263799842F8D3491CA171E068ED
:10060000484509DC62790B4900202C3100F0C0FE1E
:10061000E068401CE06002E0022000F079FD642008
:10062000FE6000F0DFFB4C4617E7022000F070FD93
:1006300013E70000600000203417000004000020D1
:1006400052543A0020204D41585F52543A00000065
:10065000202054585F44533A00000000202070616D
:10066000636B65745F737A3D00000000200000003A
:1006700052656365697665446174613D0000000000
:10068000002A026801D00A4300E08A4302607047F2
:10069000002A426801D00A4300E08A434260704762
:1006A00042B1012A09D082688A438260C2688A43C3
:1006B000C260704782680A43F7E7C2680A43C260B3
:1006C00082688A4382607047C069084000D0012078
:1006D0007047006A084000D00120704770B50C4692
:1006E0000546FFF7F6FF08B1AC6270BD6C6270BDE5
:1006F0000AB1416270478162704700000248016898
:100700000029FCD07047000000000020FEE7704781
:1007100000F01F02012191404009800000F1E0201B
:10072000C0F80011704700000F4A0E480121C2F8BE
:1007300000130E4903E0D1F80821272A03D0401EF8
:10074000F9D101207047D1F82402D1F82432C043F6
:10075000C1F82402D1F824228242F9D1C1F824320E
:1007600000207047006CDC020080084000A00640BA
:1007700070470029016802D041F0010101E021F039
:1007800001010160704730B5D1E90543E4B14FF490
:100790000072DA4022438C680B682343D1E9034599
:1007A0002C432343CC692343134343604B6A4A6879
:1007B0001A430B6A42EA03128261896A4FF0FF32E0
:1007C00002EB5101C16030BD4FF480729A40E2E704
:1007D00010B5012204210320FFF72EFD084C002252
:1007E00004212046FFF74CFF002204212046FFF79A
:1007F00057FF20460122BDE810400421FFF748BF03
:1008000000600B400029016802D041F0080101E0BE
:1008100021F008010160704770477047F0B5324918
:100820001020C1F80C01314E012333603048D0F85C
:100830000821272AFBD14A6A22F440624A622D4AE3
:10084000C2F8AC30D2F80C41002CFBD04C6824F03C
:100850000704E41C4C604C6B04F00704032CFAD131
:10086000254DD5F8004224F00704641CC5F8004269
:1008700000240C62C2F8A4401362C2F88C40536298
:10088000D0F8047147F03007C0F80471D0F8047153
:100890006FEA1717BF07F3D1C2F8A830D2F80801E2
:1008A0000028FBD0346014624FF0C0608861C2F849
:1008B000A430D2F804010028FBD0D5F8000220F0C3
:1008C0000700001DC5F800020C62486820F0070010
:1008D000401C4860486B00F007000128FAD1074827
:1008E00003610363C361F0BD008008401806104334
:1008F00000A00640000010430000084000400043F4
:100900002DE9F0418021CE05304600F04EF8F8B1D7
:100910001D4F38681D4D2968884205D100220221EB
:10092000304600F077F813E0DFF86480002429688F
:10093000304618F8011000F078F82888401CC0F301
:10094000090028603968814202D0641C082CEED36B
:100950002021304600F029F8002813D00D4C2168E2
:10096000491CC1F309000C49096888420AD0304685
:1009700000F058F80949226888542068401CC0F3E8
:1009800009002060BDE8F081500000204C000020EC
:100990008C01002058000020540000208C0500200D
:1009A000704782680A43826070470069084000D03F
:1009B0000120704770B504460D46C8888988626872
:1009C0000843298941F603739A431143084369890F
:1009D00008436060B4F1804F0AD00B48844209D1CB
:1009E0001A20FFF7D9FC2968B0FBF1F0606270BDF6
:1009F0001820F6E70548844201D11C20F1E704489D
:100A00008442F4D11E20ECE70000044000100040B6
:100A100000100440002AC26801D00A4300E08A4363
:100A2000C2607047006880B2704701607047102351
:100A30008B4041680AB1194300E099434160704717
:100A400008B501268DF8006078A000F04CFE282043
:100A500000F066FE0A2000F03BFE7A48027A01238D
:100A60002021282000F06CFB7749002000F004FBD7
:100A700075490120491D00F0FFFA734902200A312F
:100A800000F0FAFA704903200F3100F0F5FA6E49D0
:100A90000420143100F0F0FA6B490520193100F000
:100AA000EBFA042000F0F5FB022000F031FB0220FD
:100AB00000F0BCFB00F0A8FB624920222C31002092
:100AC00000F0FEFBDFF87C81604D08F12C0800F09F
:100AD00031FB800622D49DF80000401CC0B28DF886
:100AE0000000202801D98DF8006020208DF800003A
:100AF00000204246E97903E00B181354401CC0B2B1
:100B00009DF800309842F7D3491CE9710020287203
:100B10009DF800204B492C3100F0D2FB20214C489D
:100B2000FFF7D2FD0028D2D100F06AFD00F005FBEE
:100B300010F0300F03D03021072000F01AFC00F035
:100B400033FB0446C0B2032865D1E8684021401C4D
:100B5000E860072000F00DFC3A48C4F30747394627
:100B60000C3000F07AFB374938460C3100F0DCF8E5
:100B700038A000F0B8FDE86800F0BFFD38A000F034
:100B8000B2FD38A000F0AFFDC4F30720814600F0AD
:100B9000C7FD33A000F0A7FD34A000F0A4FD384647
:100BA00000F0BEFD2EA000F09EFD33A000F09BFDE6
:100BB000244F00240C372AA000F095FD385D00F08A
:100BC000AFFD641C14F0FF04F5D00A2000F080FD96
:100BD00000F0B0FA80061ED49DF80000401CC0B2A0
:100BE0008DF80000202801D98DF8006000204246D1
:100BF000E97903E00B181354401CC0B29DF8003093
:100C00009842F7D3491CE9719DF800200D494846E8
:100C10002C3100F055FB00F08DFAC0078FD0082072
:100C200000F0E0F8012000F0EBFC50E76E72663255
:100C3000344C30312B202050525820202043483D46
:100C400000000000600000203417000004000020B5
:100C500000600B407061636B65745F693D0000006C
:100C600020000000706970653D0000007061636BDA
:100C700065745F737A3D000052656365697665440B
:100C80006174613D00000000FEE702E008C8121F29
:100C900008C1002AFAD170477047002001E001C165
:100CA000121F002AFBD170472DE9F0411B4E04466C
:100CB0000D4601200022317907E0AB5C8F18FFB2AE
:100CC000BB4200D00020521CD2B2A242F5D3012870
:100CD00018D0134F01213846FFF700FD0121384697
:100CE000FFF7FCFC01213846FFF7F8FC0D4800F047
:100CF000FAFC0A2000F0ECFC0A2000F0E9FC0A20D3
:100D000000F0E6FC641CE0B2F070202801D901205C
:100D1000F0702878401C3071BDE8F081040000209C
:100D200000800B40A40D00002DE9F0411B4E04464D
:100D30000D4601200022B17807E0AB5C8F18FFB2AE
:100D4000BB4200D00020521CD2B2A242F5D30128EF
:100D500018D0134F01213846FFF7C0FC0121384657
:100D6000FFF7BCFC01213846FFF7B8FC0DA000F0EE
:100D7000BAFC0A2000F0ACFC0A2000F0A9FC0A2012
:100D800000F0A6FC641CE0B27070202801D901209C
:100D900070702878401CB070BDE8F081040000201D
:100DA00000800B404552524F522021212121212108
:100DB0002121212121212121212121212121212123
:100DC0002121212121212121212121212121212113
:100DD0002121212121212121212121212121212103
:100DE0002121200008B503460448006800901946F8
:100DF000009800F03BFC0028F9D008BD4800002016
:100E0000134C0120207200F027F80122202103203A
:100E1000FFF712FA0F4D002220212846FFF730FC81
:100E2000002220212846FFF73BFC012220212846F2
:100E3000FFF72EFC00F046FB0320207020780228EC
:100E400004D020780328F9D1FFF7FAFDFFF7D2FA92
:100E50006000002000600B4010B500F0B9F8BDE85C
:100E60001040FFF7B5BC00F00F000A2801D2303067
:100E700000E0373000F006BC8EB000244FF4C810FC
:100E800044F210114D4A0123FFF7A0FAFFF74CFC82
:100E900000B1FEE74A48006844F62061B0FBF1F17A
:100EA000484D2846FFF721FA00212846FFF71FFA90
:100EB00001212846FFF70FFA01212846FFF701FA22
:100EC0002920FFF725FC002280213F48FFF7E8FB9F
:100ED000052280210020FFF7AFF905221021002014
:100EE000FFF7AAF9052220210020FFF7A5F9052226
:100EF00040210020FFF7A0F94FF48040CDE9000425
:100F00000820CDE9020404940594069407940A206D
:100F10000894CDE909404FF0402569462846FFF77F
:100F200032FC01212846FFF76DFC01212846FFF71E
:100F300020FCAD15062229460020FFF77DF9AE0002
:100F4000062231460020FFF777F94FF47A30ADF8EA
:100F50003440ADF836400B90ADF83050C404ADF8D5
:100F600032600BA92046FFF725FD03212046FFF73D
:100F700018FD012202212046FFF74CFD01221146F7
:100F80002046FFF747FD012200212046FFF74FFDD5
:100F9000012211462046FFF74AFD2F20FFF7B8FB3C
:100FA000002201210320FFF747F9012211460748DB
:100FB000FFF766FBFFF724FFFEE70000400001009B
:100FC0005C0000200060074000000B4000600B4008
:100FD00010B51F4C012211462046FFF789FB002265
:100FE00001210320FFF728F9012211462046FFF7CF
:100FF00047FB002208212046FFF77AFB0022082148
:101000000320FFF719F9012208212046FFF738FBDA
:10101000002210212046FFF76BFB00221021032045
:10102000FFF70AF9012210212046FFF729FB0022D1
:1010300040212046FFF75CFB002240210320FFF700
:10104000FBF820460122BDE810404021FFF718BB05
:1010500000600B40064900220878401CC0B20870AE
:10106000052800D90A700A700249002000F0FAB978
:10107000040000203417000070B50446062835D25D
:1010800009B100F0EFF9052000F0C6F9012606FAD3
:1010900004F5EAB2E9B2022000F058F9EAB2E9B286
:1010A000012000F053F91948807828B1EAB2E9B27A
:1010B0001C2000F04BF913E0E9B200221C2000F0E4
:1010C00045F9A4B1012C15D0022C16D0032C17D051
:1010D000042C18D004F11100C0B2202100F049F90D
:1010E0000A4904EB4400491D01F8106070BD11204D
:1010F0000121F3E712200821F0E713201021EDE78A
:1011000014201821EAE715201C21E7E71C00002025
:1011100010B5040001D0022C02D1E22000F024F925
:10112000012C01D0022C04D1BDE81040E12000F0D8
:101130001BB910BD172000F087B8FF2000F014B9CC
:101140002DE9F041174C1D0016460746217001D1CC
:10115000202916D8002000F0A9F9062000F0ABF9EC
:101160001DB10120A070042202E00020A070024600
:1011700004211D2000F0EAF8012211461D2000F094
:10118000E5F8022211461D2000F0E0F8304600F09C
:101190005BF9022000F04DF93946BDE8F041052029
:1011A00000F0E7B81C00002038B5FFF7C3FFC00708
:1011B0004FF0000408D08DF80040BDF800009DF805
:1011C000021040EA014038BD03208DF80000FFF70F
:1011D000B4FFC0F342008DF801000A48817861B184
:1011E000602000F031F88DF802002028E5D90120B8
:1011F0008DF800008DF80240DFE700788DF80200DE
:10120000DBE700001C00002010B5052206490A207B
:1012100000F07FF8044C0020A41F6070012000F053
:10122000EFF90220E07010BD220000200549C870CF
:10123000022804D002220321002000F087B80322F4
:10124000F9E700001C00002010B5012100F0EEF9C4
:10125000BDE81040022000F0B3B92DE9F0410E4680
:1012600005460121612000F0E1F900248046771E47
:101270000AE0BC4201D1022100E00321FF2000F07E
:10128000D5F92855641CE4B2B442F2D34046BDE817
:10129000F08110B50446022801D0042C04D160224C
:1012A0001146072000F052F8032C01D0042C06D17F
:1012B0001022BDE810401146072000F047B810BDCD
:1012C0002DE9FC41002615460F468DF8046000F01C
:1012D000070040F0A800012100F0A8F90024B04662
:1012E0006E1E10E001D2385D00E040468DF800002F
:1012F000B44201D1022100E003219DF8000000F07A
:1013000095F9641CE4B2AC42ECD39DF80400BDE84E
:10131000FC812DE9F0410D46164640F020000121E8
:1013200000F084F90746012435440AE0A5EB0400E7
:10133000007801D1022100E0032100F077F9641C5C
:10134000E4B2B442F2D93846BDE8F08170B5144633
:101350000D460646FFF778FFA84340EA04013046F1
:10136000BDE8704000F005B840F02000042100F016
:101370005DB970B50C4640F02000012100F056F92F
:1013800005460221204600F051F9284670BD0000B4
:101390002DE9FC414FF0000815460F4604468DF834
:1013A000048006281CD21B4904EB440011F81020CD
:1013B000B2B101EB4006711C05221020FFF7A9FF16
:1013C000711C05220A20FFF7A4FF1248401F047178
:1013D00001214170A02000F029F900246E1E13E0C5
:1013E000FF20BDE8FC8101D2385D00E040468DF869
:1013F0000000B44201D1022100E003219DF8000069
:1014000000F014F9641CE4B2AC42ECD39DF8040083
:10141000E7E7000021000020032806D0042806D0BA
:10142000032203210846FFF791BF0122F9E70222B8
:10143000F7E70C21002210B1012803D00C22002074
:10144000FFF784BF0822FAE72E21062220B10128E7
:1014500005D0022803D101E0262200E00E2206205A
:10146000FFF774BF30B4062802D330BC00207047A9
:101470000D4B00EB400203EB420302280AD200228C
:101480009D18521C11F8014BD2B26C70052AF7D38B
:10149000052202E0097959700122591C0A3030BC3A
:1014A000C0B2FFF736BF00002100002002460F2126
:1014B0000420FFF74BBF0007020EF0210420FFF7C6
:1014C00045BF000010B5002201210420FEF7B4FE44
:1014D000002202210420FEF7AFFE0421002208466C
:1014E000FEF7AAFE002208210420FEF7A5FE002236
:1014F00010210420FEF7A0FE002220210420FEF788
:101500009BFE002240210420FEF796FE002280214F
:101510000420FEF791FE294C012211462046FFF7D8
:10152000AFF8012202212046FFF7AAF80122042188
:101530002046FFF7A5F8012208212046FFF7A0F872
:10154000012210212046FFF79BF80122202120468E
:10155000FFF796F8012240212046FFF791F801227B
:1015600080212046FFF78CF8002201212046FFF75A
:10157000BFF8002202212046FFF7BAF8002204211A
:101580002046FFF7B5F8002208212046FFF7B0F803
:10159000002210212046FFF7ABF800222021204630
:1015A000FFF7A6F8002240212046FFF7A1F82046C9
:1015B0000022BDE810408021FFF79AB800800B4060
:1015C00038B50E4D0446042801D0012C04D1002268
:1015D00001212846FFF78CF8FF2000F01DF88DF858
:1015E0000000042C01D0022C04D10122114628460F
:1015F000FFF77EF89DF8000038BD000000600B404A
:10160000044B08B1012200E0002240211846FFF7F8
:101610006FB8000000600B404FF04021086148693E
:101620008007FCD50869C0B270470000F8B50E4DC0
:101630000C460646042901D0012C04D100220121C8
:101640002846FFF755F83046FFF7E6FF8DF8000013
:10165000042C01D0022C04D1012211462846FFF7A8
:1016600047F89DF80000F8BD00600B40044A404276
:1016700012681044884201D301207047002070474F
:101680004800002070B505464FF080460E4C04E03F
:10169000012202213046FFF7BDF960682168401C35
:1016A000C0F309008842F3D0084861684554606877
:1016B000401CC0F3090060603046BDE87040012264
:1016C0000221FFF7A7B900004C0000208C01002088
:1016D00010B50A2803D10D20FFF7D4FF0A20BDE87A
:1016E0001040FFF7CFBF10B5044602E0641CFFF7BF
:1016F000C9FF20780028F9D110BD10B50446C0F309
:101700000730FFF7B0FBC4F30720FFF7ACFBC4F3CF
:101710000710FFF7A8FBE0B2BDE81040FFF7A3BB3E
:1017200010B504460009FFF79EFB2046BDE81040B7
:10173000FFF799BBD14AF2EE07F2E1F62371F2E12D
:10174000F62372F2E1F62373F2E1F62374F2E1F686
:1017500023750000741700000000002060000000E6
:101760008A0C0000D417000060000020300B00003D
:101770009A0C0000000000000000000000012F2F64
:101780000000000000000000000000000000000059
:1017900020000000FF01B7195195E70148E1F2F17F
:1017A000C20148E1F2F1C30148E1F2F1C40148E1AC
:1017B000F2F1C50148E1F2F1C600000000000000AE
:1017C0000000000000000000000000000000000019
:0417D00000D8B80580
:04000005000001599D
:00000001FF
