:020000040000FA
:10000000D80A002055010000B1030000AD03000034
:10001000AF0300006B020000C706000000000000F4
:100020000000000000000000000000008504000047
:1000300035030000000000001104000087040000E8
:100040006F0100006F0100006F0100006F010000F0
:100050006F0100006F0100006F0100006F010000E0
:100060006F0100006F0100006F0100006F010000D0
:100070006F0100006F0100006F0100006F010000C0
:100080006F0100006F0100006F0100006F010000B0
:100090006F0100006F0100006F0100006F010000A0
:1000A0006F0100006F010000000000006F01000000
:1000B0006F0100006F0100006F0100006F01000080
:1000C0006F0100006F0100006F0100006F01000070
:1000D0006F010000000000000000000000000000B0
:1000E00000000000150200006F0100006F01000019
:1000F0006F0100006F0100006F0100006F01000040
:100100006F010000E90400006F0100006F010000B2
:100110006F0100006F010000000000006F0100008F
:100120006F0100006F0100006F0100006F0100000F
:100130006F0100006F0100006F010000000000006F
:1001400000000000000000000000000000000000AF
:100150006F0100000648804706480047FEE7FEE7BB
:10016000FEE7FEE7FEE7FEE7FEE7FEE7FEE7FEE767
:100170008904000079010000DFF80CD000F006F8D7
:10018000004800473D120000D80A0020064C074DE9
:1001900006E0E06840F0010394E807009847103457
:1001A000AC42F6D3FFF7ECFF201B0000401B000021
:1001B0002DE9F0479146164A4FF0FF0A02EBC005C1
:1001C000002200240AFA02F02346084219D04FF018
:1001D000010C00200CFA02FC4FF00F0821FA00F687
:1001E00016EA0C0F06D0860008FA06F73C4309FA17
:1001F00006F73B43401C0828F0D32868A043184367
:10020000286008322D1D082ADBDDBDE8F0870000DC
:100210002020024003480168491C0160024800F0A8
:1002200005B800001000002000600740416821F080
:1002300001014160BFF34F8F70470029016802D070
:1002400041F0040101E021F0040101607047002940
:10025000016802D041F0010101E021F001010160DB
:100260007047C160704781607047FEE770B5124EFD
:100270000446706B850F00F023F82060012D05D037
:100280000E48022D02D0032D00D000206060316A9C
:10029000C840A0603168C1F3015120FA01F1E1606A
:1002A000B16AC1F30241072902D0C840206170BD84
:1002B0000621B0FBF1F0F9E70080084000127A0057
:1002C0000C49D1F8A400002813D0086A0A48D1F8D4
:1002D000FC1301290DD0094A9169C1F3C55101B937
:1002E00040219269C2F3415301229A40B0FBF2F0DF
:1002F000484370470000104300127A000080084015
:1003000000B585B06846FFF7B1FF039805B000BDA2
:10031000F0B5074F7C6AFD6A3E6B84438D4396437C
:1003200013B104430D4316437C62FD623E63F0BD8E
:10033000008008407047002A026801D00A4300E0AC
:100340008A4302607047000010B52021034800F086
:1003500023F808B1002010BD012010BD00600B4043
:10036000002A426801D00A4300E08A434260704795
:1003700042B1012A09D082688A438260C2688A43F6
:10038000C260704782680A43F7E7C2680A43C260E6
:1003900082688A4382607047C069084000D00120AB
:1003A00070470AB14162704781627047FEE7FEE71D
:1003B000704700F01F02012191404009800000F1C8
:1003C000E020C0F8001170470F4A0E480121C2F822
:1003D00000130E4903E0D1F80821272A03D0401E5C
:1003E000F9D101207047D1F82402D1F82432C0435A
:1003F000C1F82402D1F824228242F9D1C1F8243272
:1004000000207047005125020080084000A00640EF
:1004100070470029016802D041F0010101E021F09C
:1004200001010160704730B5D1E90543E4B14FF4F3
:100430000072DA4022438C680B682343D1E90345FC
:100440002C432343CC692343134343604B6A4A68DC
:100450001A430B6A42EA03128261896A4FF0FF3243
:1004600002EB5101C16030BD4FF480729A40E2E767
:100470000029016802D041F0080101E021F00801E3
:10048000016070477047704714480121C0F800139D
:10049000134AC2F8A810D2F80831002BFBD0002371
:1004A00013624FF010638361C2F8A410D2F80431D4
:1004B000002BFBD00B4AD2F8003223F00703DB1CE1
:1004C000C2F800320162426822F00302521C42600C
:1004D000426BB1EB927FFBD1704700000080084077
:1004E00000001043000008402DE9F0411E4EB068A6
:1004F00080071FD51D4F38681D4D2968884205D1DA
:1005000000220221304600F05BF813E0DFF864803F
:1005100000242968304618F8011000F0C2F8288835
:10052000401CC0F3090028603968814202D0641C75
:10053000082CEED3B1683046490712D50E4C21681D
:100540000E4A491CC1F309011268914209D000F01A
:100550009BF80B49226888542068401CC0F30900AE
:100560002060BDE8F0810000001000400400002081
:1005700000000020740000200C0000200800002073
:1005800074040020C2680A43C260704770B5054613
:100590000C46C88889882A690843218922F01F02ED
:1005A000114308432861686A618920F00300084309
:1005B0006862FFF7A5FE2168B0FBF1F0A86370BD8B
:1005C000002A426801D00A4300E08A434260704733
:1005D00070B515460446FFF7D9FF06212046FFF700
:1005E000D1FF012D05D0A826022D0BD0032D10D050
:1005F00025E00021204600F056F80121204600F0B9
:1006000058F81CE00021204600F038F8012211467D
:100610000DE00021204600F046F80121204600F0C0
:1006200048F80021204600F029F801220F21204639
:10063000FFF7C6FF26620121204600F028F8B4F13A
:10064000804F04D00A48844203D130200AE02F2092
:1006500008E00848844201D1312003E00648844282
:1006600004D13220BDE87040FFF7A3BE70BD00008A
:10067000000004400010004000100440C26822F056
:10068000C0020A43C2607047006880B27047002908
:10069000C16802D041F4007101E021F40071C16031
:1006A000704701607047C26822F030020A43C2609E
:1006B00070470029C16802D041F4807101E021F443
:1006C0008071C1607047FEE702E008C8121F08C1D0
:1006D000002AFAD170477047002001E001C1121FC3
:1006E000002AFBD17047000070B50DA001F0F1F9B0
:1006F0000D4D287801F00AFA0CA001F0EAF9002467
:100700002819007901F002FA0CA001F0E2F9641C4A
:10071000F6D00A2001F0D2F909490120087270BD13
:100720005258444C454E3D00A80800202020525805
:100730004649464F5B5D3D20000000002000000060
:10074000CC0800200F4A68B101280ED002280FD033
:10075000032810D0042811D0052812D1D2E91201A3
:1007600000F099BFD2E90801FAE7D2E90A01F7E7F8
:10077000D2E90C01F4E7D2E90E01F1E7D2E9100168
:10078000EEE77047180000202DE9F041154E0446B1
:100790000D4601200022717807E0AB5C8F18FFB294
:1007A000BB4200D00020521CD2B2A242F5D3012895
:1007B0000BD00DA001F08DF90A2001F07FF90A207D
:1007C00001F07CF90A2001F079F9641CE0B2307084
:1007D000202801D9012030702878401C7070BDE8B5
:1007E000F0810000180000204552524F5220212174
:1007F00021212121212121212121212121212121E9
:1008000021212121212121212121212121212121D8
:1008100021212121212121212121212121212121C8
:10082000212121212121200008B503460448006828
:1008300000901946009801F00FF90028F9D008BD82
:10084000100000200248052101700021416070471E
:1008500074080020164910B504200870154C606813
:10086000F8B92078E8B1207804280BD112A001F063
:1008700030F9532001F04AF90A2001F01FF94FF432
:1008800080606060207805280BD110A001F021F96C
:10089000532001F03BF90A2001F010F94FF4A06059
:1008A000606000F0C1F8BDE8104000F019B8000029
:1008B000140000207408002035363032424C4520A8
:1008C0002050545820202043483D00003536303217
:1008D000424C45202050525820202043483D0000E3
:1008E00070B5454C606840F20155A0F5A060052840
:1008F00028D2DFE800F003172870770000211520C8
:1009000001F054F80121032001F050F8002000F01C
:10091000BBFE3F21372001F049F800F0B9FE00F09E
:1009200079FE5DE0354904200870002000F0ACFE3F
:100930000121152001F03AF801F088F8A06040F29A
:100940000250606070BDFFF7FFFC0028FAD001F094
:1009500008F804464006F5D5294DE869401CE861D1
:1009600000F083FE00F0FAFF002000F08DFE25A0CD
:1009700001F0AFF8292000F091FF01F0C7F8C4F3AF
:10098000420400F0FBFF1C49343111F8040BFFF75F
:10099000FBFE1EA001F09DF8E86901F0A4F81EA07E
:1009A00001F097F8204601F0B1F81EA001F091F88F
:1009B000FFF79AFE00F0D2FF8006C3D400F0DCFC03
:1009C00020460D4C0C3404F10802217900F0DAFEC7
:1009D000F420607070BD00F06BFDA068142105E08C
:1009E000656070BD00F064FDA068C82101F034F8B6
:1009F0000028F5D170BD000074080020140000200C
:100A000018000020727373693D2000007061636BF1
:100A10006574735F693D20002052585F505F4E4FF0
:100A20003D000000202000002DE9F0479D4C60684B
:100A30009D4EA0F580604FF0010A40F203454FF44F
:100A40007A7840F2044904F10C07072846D2DFE81F
:100A500000F00416304782F0EF008021032000F000
:100A6000A5FF00F0D7FD0021152000F09FFF00201A
:100A700000F00AFE0121372000F098FF2DE0002150
:100A8000152000F093FF00F0FCFD00F0DFFFA060F8
:100A900040F202406060002000F0F6FD262000F0E9
:100AA000FDFE00F007000128F8D1BDE8F04700F096
:100AB00073BFA068502100F0CFFF00280ED000F0D7
:100AC000DAFD002000F0E0FD262000F0E7FE00F057
:100AD00007000228F8D100F05FFF6560BDE8F087ED
:100AE00000F03CFF8006F9D400F038FF800614D4F3
:100AF000012000F063FC3878FFF724FE387848B115
:100B0000012807D0022805D0032803D0042801D0EB
:100B1000052802D1132000F005FC00F01FFF63A0A0
:100B200000F0D7FF3069404504DA00F0A7FD3069D6
:100B3000401C3061002000F0A7FD5FA000F0C9FF5D
:100B4000262000F0ABFE00F007000428F8D15BA0DF
:100B500000F0BFFFA2E0FFF7F7FB0028BED058A0CF
:100B600000F0B7FF292000F099FE00F0CFFF00F061
:100B7000F8FE0546C00630D500F077FD012000F0F4
:100B80001DFC3878FFF7DEFD112000F0CBFB70690B
:100B9000401C70614CA000F09CFF306900F0A3FF86
:100BA0004AA000F096FF706900F09DFF4AA000F097
:100BB00090FFB06900F097FF4AA000F08AFF142070
:100BC00000F06CFE00F0A2FF0A2000F077FF00F0BA
:100BD0003DFFA06040F206406060A80632D5B069D3
:100BE000401CB06138A000F074FF306900F07BFF5A
:100BF00036A000F06EFF706900F075FF36A000F0BF
:100C000068FFB06900F06FFF0A2000F057FF00F0A6
:100C1000A5FEC0060ED587F801A00021152000F022
:100C2000C5FE00F013FFA06040F20540606009E0DF
:100C300026E01CE03069404504DA00F01FFD306911
:100C4000401C306168060DD448E700F097FE27A0ED
:100C500000F03FFF387800F059FF27A000F039FF7F
:100C6000FFF742FD00F07AFEC007EED036E7A0683D
:100C7000C82100F0F1FE0028E6D0C6F810A02CE74D
:100C8000A068C82100F0E8FE0028DDD030694045AA
:100C900004DA00F0F3FC3069401C3061C4F80490C1
:100CA0001CE7000074080020180000207374726FA5
:100CB000626520747800000033333300343434002C
:100CC000727373693D20000052543A0020204D4158
:100CD000585F52543A000000202054585F44533A61
:100CE0000000000020205254323A00007A7A7A5FE5
:100CF000706970653D00000020200000074910B5B4
:100D000004200870064C052020706078002803D16C
:100D1000FFF798FD0120607010BD00001400002056
:100D2000CC0800201A480021C17081700222427153
:100D30000323037120238371C17101720121417268
:100D400082720421C1728021017300F0D1F9114C2B
:100D5000002201212046FFF724FB012211462046F4
:100D6000FFF71FFB002201212046FFF71AFB01229B
:100D700011462046FFF715FB002201212046FFF710
:100D800010FB00F009F8FFF765FDFFF7B7FFFAE782
:100D90001800002000800B40D24910B504200870D4
:100DA00000F066FC00F067FC00F05CFC40210020D5
:100DB00000F0FCFD002000F067FC5C21022000F048
:100DC000F5FD0021032000F0F1FD7021042000F06A
:100DD000EDFDA921062000F0E9FD4021072000F0EB
:100DE000E5FD7F21082000F0E1FD2321092000F02E
:100DF000DDFD00210A2000F0D9FD03210B2000F0C9
:100E0000D5FD2C210D2000F0D1FD01210E2000F098
:100E1000CDFD1C210F2000F0C9FD5321102000F052
:100E2000C5FDB148C1788278407911430143112052
:100E300000F0BCFD2021122000F0B8FD102113208D
:100E400000F0B4FD0021142000F0B0FD00211520B9
:100E500000F0ACFD1F21162000F0A8FD002000F0DE
:100E600013FC0021212000F0A1FD0A21272000F021
:100E70009DFD3F212A2000F099FD87212B2000F0C5
:100E800095FD01212C2000F091FD08212D2000F07E
:100E90008DFD10212E2000F089FD18212F2000F05B
:100EA00085FD1C21302000F081FD2021312000F043
:100EB0007DFD3F21322000F079FD7221332000F0CA
:100EC00075FD7321342000F071FD7421352000F090
:100ED0006DFD7521362000F069FD3F21372000F0BF
:100EE00065FD1021382000F061FD0021392000F05F
:100EF0005DFDAF213A2000F059FD02213C2000F0B9
:100F000055FD04213D2000F051FD012000F0BCFB07
:100F10000821202000F04AFD7421212000F046FD28
:100F20001121222000F042FD2021232000F03EFD6F
:100F30000021242000F03AFD0021252000F036FD9C
:100F40004021262000F032FD0021272000F02EFD58
:100F50004221282000F02AFD0421292000F026FD4E
:100F600002212B2000F022FD0021312000F01EFD87
:100F70000021322000F01AFD0221332000F016FD7E
:100F80000321352000F012FD022000F07DFB7721C7
:100F9000212000F00BFD0021262000F007FD662136
:100FA000272000F003FDA121282000F0FFFC902164
:100FB000292000F0FBFC1D212A2000F0F7FC122163
:100FC0002B2000F0F3FC18212D2000F0EFFCEC2189
:100FD0002E2000F0EBFC56212F2000F0E7FC08212A
:100FE000302000F0E3FC2021312000F0DFFC08215C
:100FF000322000F0DBFC1421332000F0D7FCCF219D
:10100000342000F0D3FC3021352000F0CFFC032148
:10101000362000F0CBFC2021382000F0C7FC9021C6
:10102000392000F0C3FC54213A2000F0BFFC5421C9
:101030003B2000F0BBFC43213C2000F0B7FC2F21FB
:101040003D2000F0B3FC02213E2000F0AFFC032065
:1010500000F01AFB01212C2000F0A8FC00212D201B
:1010600000F0A4FC40212E2000F0A0FC0A212F203B
:1010700000F09CFC4021392000F098FC00213A202F
:1010800000F094FC1F213B2000F090FC86213320CF
:1010900000F08CFC022000F0F7FA0821202000F07C
:1010A00085FC0220FFF7C0FB012000F0EDFA57217C
:1010B0003D2000F07BFC5D213E2000F077FC3521D7
:1010C0002A2000F073FC09A000F003FD2A2000F0A4
:1010D000E5FBC007FAD100F047F8BDE8104000205A
:1010E00000F0D2BA1400002018000020505258001E
:1010F00070B500F037F8012220210320FFF758F8DF
:10110000164C002220212046FFF715F9002220214D
:101110002046FFF72DF9012220212046FFF720F974
:101120000122950329460320FFF742F800222946B1
:101130002046FFF700F9002229462046FFF718F95C
:10114000012229462046FFF70BF900F0E5F9044992
:101150000020087048600C31487070BD00600B4082
:101160007408002000F056B91CB5244CD4E90801DD
:1011700000F091FA684600F03FFB21A000F0A9FCC6
:101180000098000E00F0C2FC0098C0F3074000F089
:10119000BDFC0098C0F3072000F0B8FC0098C0B276
:1011A00000F0B4FC9DF8040000F0B0FC0A2000F050
:1011B00085FCD4E90A0100F0A9FA684600F020FB9A
:1011C00014A000F086FC0098000E00F09FFC009830
:1011D000C0F3074000F09AFC0098C0F3072000F02D
:1011E00095FC0098C0B200F091FC9DF8040000F05E
:1011F0008DFC0A2000F062FC1CBD000018000020DD
:1012000072656164207069706520302049442067F0
:1012100065742000726561642070697065203120FA
:10122000494420676574200000F00F000A2801D2AD
:10123000303000E0373000F01BBC00008EB00024DE
:101240004FF4C81044F21041304A0123FFF760F810
:10125000FFF7BAF800B1FEE72D48006844F62061B8
:10126000B0FBF1F12B4D2846FEF7FBFF002128468D
:10127000FEF7F9FF01212846FEF7E9FF0121284684
:10128000FEF7DBFF01262449700209250427C1F877
:101290000001002280212148FFF76AF80522F02191
:1012A0000020FEF785FFB003CDE900040820CDE95A
:1012B000020404940594069407940894CDE9094522
:1012C0004FF0402569462846FFF7ADF80121284632
:1012D000FFF7CEF801212846FFF79BF806220C21E4
:1012E0000120FEF765FF4FF47A300B90ADF83060C7
:1012F000ADF83440ADF83270ADF8364003220BA99A
:101300000748FFF765F9FFF70DFDFEE74000010014
:10131000700000200060074004E000E000000B4087
:101320000010004010B5094C024604F10801606845
:10133000112A02D0132A03D004E000F0B1F901E031
:1013400000F0EAF9F420607010BD00008008002071
:1013500030B5084B18700020596005E01D1812F8D0
:10136000014B401C2C72C0B28842F7D3FF2058704A
:1013700030BD00008008002030B50F4D89B0E878FE
:10138000401CC0B2E870052801D90020E870202177
:10139000297168796B46401CC2B26A71002014182A
:1013A0001C54401CC0B28842F9D31A46E878FFF7B3
:1013B000CFFF09B030BD00006800002030B5144AEE
:1013C00089B0002130B11078401CC0B210700528DF
:1013D00000D91170117008465178491CC9B251707A
:1013E000202901D9012151702021517093786C4638
:1013F0005B1CDBB2937000229D18A554521CD2B224
:101400008A42F9D32246FFF7A3FF09B030BD00009E
:101410006800002010B5254C0120606201460022C2
:101420000320FEF7C5FE012211462046FEF783FF8A
:1014300002206062014600220320FEF7B9FE01226D
:1014400002212046FEF777FF042060620146002259
:101450000320FEF7ADFE012204212046FEF76BFFBC
:101460000820A062014600220320FEF7A1FE01220F
:1014700008212046FEF75FFF1020A06201460022EF
:101480000320FEF795FE012210212046FEF753FFB0
:101490004020A062014600220320FEF789FE20467C
:1014A0000122BDE810404021FEF745BF00600B401F
:1014B00070B5FEF749FF00281FD000F052FA400631
:1014C0001BD50E4D00F04AFAC00716D1022000F0DD
:1014D000E5F9C0F3420400F051FA2878291DFFF71E
:1014E00053F907A000F0F5FA204600F00FFB09A021
:1014F00000F0EFFAFFF7F8F8E4E770BDA808002065
:101500005F5F5F5F5F5F5F5F5F5F5F52585F505F0E
:101510004E4F3D002020000010B500220121042084
:10152000FEF746FE002202210420FEF741FE0421C0
:1015300000220846FEF73CFE002208210420FEF7A8
:1015400037FE002210210420FEF732FE0022202167
:101550000420FEF72DFE002240210420FEF728FE85
:10156000002280210420FEF723FE294C012211468F
:101570002046FEF7E0FE012202212046FEF7DBFEB8
:10158000012204212046FEF7D6FE01220821204632
:10159000FEF7D1FE012210212046FEF7CCFE0122EB
:1015A00020212046FEF7C7FE012240212046FEF7FB
:1015B000C2FE012280212046FEF7BDFE002201214D
:1015C0002046FEF7EEFE002202212046FEF7E9FE4D
:1015D000002204212046FEF7E4FE002208212046D6
:1015E000FEF7DFFE002210212046FEF7DAFE002281
:1015F00020212046FEF7D5FE002240212046FEF79E
:10160000D0FE20460022BDE810408021FEF7C9BE72
:1016100000800B407E21042000F0C8B92DE9F04184
:101620000E4C0821A1620E490A784FF00105D2073D
:1016300000D0A5620A784FF00206920700D5A66294
:1016400009784FF00407490700D5A76200F01CF99C
:10165000656266626762BDE8F081000000600B4071
:10166000140000200820FFF7D9BF0920FFF7D6BFDC
:101670000A20FFF7D3BF0C20FFF7D0BF0E20FFF7E3
:10168000CDBF0F20FFF7CABF40F02000FFF7C6BF55
:101690008920FFF7C3BF0A460146102000F0B2B907
:1016A0002DE9F0470F46060029D0164D0820A86204
:1016B000154801784FF0010AC90701D0C5F828A0E4
:1016C00001784FF00208890701D5C5F82880007815
:1016D0004FF00409400701D5C5F82890112000F00B
:1016E000D3F8002403E0385D00F0CEF8641CB44267
:1016F000F9D3C5F824A0C5F82480C5F82490BDE826
:10170000F087000000600B40140000200A460146EC
:10171000122000F077B900002DE9F0470F460600CF
:1017200029D0164D0820A862154801784FF0010A0B
:10173000C90701D0C5F828A001784FF00208890731
:1017400001D5C5F8288000784FF00409400701D57D
:10175000C5F82890132000F097F8002403E0385DC6
:1017600000F092F8641CB442F9D3C5F824A0C5F87F
:101770002480C5F82490BDE8F087000000600B408D
:10178000140000202DE9F04717460D002ED0184E0A
:101790000821B16217490A784FF0010AD20701D037
:1017A000C6F828A00A784FF00209920701D5C6F8BA
:1017B000289009784FF00408490701D5C6F8288019
:1017C0001830C0B200F060F8202D00D92025002488
:1017D00004E0385D00F058F8641CE4B2AC42F8D381
:1017E000C6F824A0C6F82490C6F82480BDE8F08787
:1017F00000600B40140000200146902000F07EB8ED
:101800000146922000F07AB82DE9F05F1C4F0646A1
:1018100008200D46B8621B4801784FF0010BC9073C
:1018200001D0C7F828B001784FF00209890701D527
:10183000C7F8289000784FF0040A400701D5C7F890
:1018400028A0BF2000F020F84FF04008C7F82480FF
:10185000C7F82480002405E0002000F015F805F802
:10186000010B641CB442F7D3C7F82880C7F828805E
:10187000C7F824B0C7F82490C7F824A0BDE8F09FAB
:1018800000600B40140000204FF0402108614869BF
:101890008007FCD50869C0B2704700002DE9F0410F
:1018A000144C0821A16214490A784FF00108D207AC
:1018B00001D0C4F828800A784FF00206920700D5BC
:1018C000A66209784FF00407490700D5A76240F0E7
:1018D000C000FFF7D9FF4025656265620020FFF771
:1018E000D3FFA562A562C4F8248066626762BDE882
:1018F000F081000000600B40140000202DE9F0474B
:10190000154C0E460821A1620427A762FFF7BCFF11
:101910004025656265620020FFF7B6FF3071002048
:10192000FFF7B2FF82460020FFF7AEFF814600209E
:10193000FFF7AAFF80460020FFF7A6FF08EB002173
:1019400009EB01210AEB01203060A562A5620120AC
:1019500060626762BDE8F08700600B400520FFF71A
:101960009DBF10B50420FFF799FF040003D0014686
:10197000042000F01BF8204610BD000070B50C20BC
:10198000FFF78CFF040004D0024D291DFFF73CFF38
:101990002C6070BDA808002010B50020FFF774FE71
:1019A000BDE810402620FFF779BF00002DE9F04187
:1019B000124C88460821A16211490A784FF00105AE
:1019C000D20700D0A5620A784FF00206920700D530
:1019D000A66209784FF00407490700D5A76200F016
:1019E0003F0040F04000FFF74FFF4046FFF74CFF3D
:1019F000656266626762BDE8F081000000600B40CE
:101A0000140000202DE9F0410F4D0C460821174627
:101A1000A9620426AE62FFF737FFF8B2FFF734FF82
:101A2000E0B2FFF731FFC4F30720FFF72DFFC4F347
:101A30000740FFF729FF200EFFF726FF012068620D
:101A40006E62BDE8F081000000600B400148006854
:101A50007047000010000020044A40421268104401
:101A6000884201D3012070470020704710000020F9
:101A700070B505460E4E0F4C04E00122022130469F
:101A8000FEF79EFD60682168401CC0F30900884293
:101A9000F3D00948616845546068401CC0F30900F0
:101AA00060603046BDE8704001220221FEF788BD2B
:101AB00000100040000000207400002010B50A282B
:101AC00003D10D20FFF7D4FF0A20BDE81040FFF737
:101AD000CFBF10B5044602E0641CFFF7C9FF2078B1
:101AE0000028F9D110BD10B50446C0F30730FFF748
:101AF0009BFBC4F30720FFF797FBC4F30710FFF726
:101B000093FBE0B2BDE81040FFF78EBB10B5044672
:101B10000009FFF789FB2046BDE81040FFF784BBB2
:101B2000401B00000000002074000000C8060000F8
:101B3000B41B000074000020640A0000D8060000F6
:101B40000000000000000000000000000000000095
:101B50000000000000000000000000000000000085
:101B60000000000000000000000000000000000075
:101B70000000000000000000EEF24AD10700000063
:101B800023F6E1F27100000023F6E1F2720000009A
:101B900023F6E1F27300000023F6E1F27400000086
:101BA00023F6E1F275000000FF002FFF002F000078
:041BB00000A24A0441
:0400000500000155A1
:00000001FF
